:020000040800F2
:1000000000200020310100084B2F00086540000847
:100010004B2F00084B2F00084B2F0008000000005A
:100020000000000000000000000000004B2F00084E
:100030004B2F0008000000004B2F00084B2F00083A
:100040004B2F00084B2F00084B2F00084B2F0008A8
:100050004B2F00084B2F00084B2F00084B2F000898
:100060004B2F00084B2F00084B2F00084B2F000888
:100070004B2F00084B2F00084B2F00084B2F000878
:100080004B2F00084B2F00084B2F000800000000EA
:100090000000000000000000000000004B2F0008DE
:1000A0004B2F00084B2F00084B2F00084B2F000848
:1000B0004B2F00084B2F00084B2F00084B2F000838
:1000C0004B2F00084B2F00084B2F00084B2F000828
:1000D0004B2F00084B2F00084B2F00084B2F000818
:1000E0004B2F00084B2F00084B2F00084B2F000808
:1000F0004B2F00084B2F00080000000000000000FC
:100100004B2F0008000000004B2F00084B2F000869
:100110004B2F00084B2F00084B2F00084B2F0008D7
:100120004B2F00084B2F00084B2F00084B2F0008C7
:1001300002F00DFF084809490022814201D004C0A5
:10014000FBE707480749084A814202D008CA08C0AD
:10015000FAE700F040FA00DE000000200400002072
:100160000000002000000020C04D000880B56F4650
:100170008AB003900690FFE741F20000C4F202004B
:100180000790099001F075FB0B2102F034FDFFE7A9
:1001900041F20000C4F202000190089001F06EFBF1
:1001A0000B21029102F01BFD019801F067FB0299FF
:1001B00002F009FDFFE7039904A800F042F8FFE709
:1001C0000AB080BD80B56F469CB003900491059144
:1001D0000790012107F84D1C099005A80690069983
:1001E000019142F60C40C4F201000290109011916E
:1001F0001790189002F092FE0146019812910D910D
:100200000D9A14921392139A0C920F910F991691C2
:10021000159115990E910CA90A910EA90B910A99A5
:100220000B9A00F087F901460298096819901A9113
:100230001B9002F07DFEFFE71CB080BD82B002B0D3
:10024000704780B56F469CB00891014608980991A7
:100250000B910C9000F008FA0A90FFE70AA801F051
:10026000E4F90790FFE7FFE7079847F6D501C2F2E8
:10027000E96148434FEAF00048F63711C0F2410106
:10028000884205D8FFE70AA801F0CFF906900BE0F5
:1002900044F29000C0F6000044F21412C0F60002CE
:1002A000272102F077FEFEDEFFE7069844F6D351E1
:1002B000C1F26201A0FB010290090D900121C1EB86
:1002C00092110591012806D3FFE7059800F0E3F9A4
:1002D000039004910BE044F24010C0F6000044F299
:1002E0002412C0F60002212102F054FEFEDE049921
:1002F000039844F26412C0F6000201F070FA029012
:10030000FFE70998029927F8361C10901190A7F181
:1003100036000F900F9842F62841C4F20101019176
:10032000159116900021149114991891179117990D
:10033000139113A91291129900F00BF8014601983C
:10034000096819901A911B9002F0F2FDFFE71CB0AA
:1003500080BD80B56F468EB0049005910B910D91D4
:100360000C910C980390FFE703990498008807917B
:1003700027F8160C079909910968019101F02CF9E9
:100380000246019807990A9162F30F0008600798E6
:100390000290FFE702980690FFE702980EB080BD3A
:1003A00080B56F4690B0059006910D910F910E911A
:1003B0000E980390FFE7039808900990012007F832
:1003C000150C09990B910968019100F05FF902463B
:1003D000019809990C9162F3000008600998029055
:1003E000FFE702980790FFE7029810B080BD80B544
:1003F0006F468EB004900B900D900C900C9802906C
:10040000FFE7029806900790012007F8150C07995E
:1004100009910968009100F039F90246009807999E
:100420000A9162F30000086007980190FFE70198C5
:100430000590FFE701980EB080BD80B56F4690B083
:10044000059006910D910F910E910E980390FFE784
:10045000039808900990002007F8150C09990B9152
:10046000096821F00401019100F010F9014601989A
:1004700001F0010209990C9140EA82000860099894
:100480000290FFE702980790FFE7029810B080BD46
:1004900080B56F4690B0059006910D910F910E9129
:1004A0000E980390FFE7039808900990012007F841
:1004B000150C09990B91096821F00401019100F0D4
:1004C000E5F80146019801F0010209990C9140EA12
:1004D0008200086009980290FFE702980790FFE702
:1004E000029810B080BD80B56F4690B0059006911F
:1004F0000D910F910E910E980390FFE703980890CD
:100500000990002007F8150C09990B9109680191D1
:1005100000F0BCF80246019809990C9162F30000C2
:10052000086009980290FFE702980790FFE7029899
:1005300010B080BD80B56F468EB0029203910490DA
:10054000059106920791FFE70398089000680190D3
:10055000FFE7049800F05BFD0090FFE70299019827
:10056000009A104309910A900B910C900860FFE7E4
:1005700002980D90FFE702980EB080BD80B56F46DF
:100580008AB0019103900491039800F040FD02901D
:10059000FFE701990298C04380B206910790089145
:1005A00009900860FFE701980590FFE701980AB0FD
:1005B00080BD88B00091019002910198006804917B
:1005C0000590069107900860FFE700980390FFE709
:1005D000009808B0704780B56F4684B0FFE7FFE72A
:1005E000FFE700F006F9FFE700F00AFDFFE700F083
:1005F00084FCFFE700F08BFCFFE7002007F8050C08
:1006000000F00EF807F8060C17F8060C07F8090CAE
:10061000FFE7A7F109000390FFE700F056F8FEDEC0
:1006200081B08DF802008DF803008DF801009DF86F
:1006300001008DF800009DF8000001B0704780B502
:100640006F4682B0019000F003F8FFE702B080BD72
:1006500080B56F4682B00190FFF788FDFFE7FFF796
:10066000EDFDFFE702B080BD80B56F4682B001901E
:1006700001F01AFC0090FFE7009802B080BD40F244
:100680000001C2F2000101200870704781B08DF8AE
:10069000030001B0704783B0014600910291002031
:1006A000B0EB114F07D1FFE70098ADF8060000202E
:1006B000ADF8040003E00120ADF80400FFE7BDF849
:1006C0000400BDF8061003B0704780B56F4682B0D5
:1006D000FFE700F016FCFCE780B56F4682B00190A2
:1006E00000F005F80090FFE7009802B080BD80B5EB
:1006F0006F4684B003904FF47A71A0FB0110029111
:1007000008B9FFE70BE044F2E010C0F6000044F245
:10071000CC12C0F60002212102F03CFCFEDE029861
:1007200002F03CFA0190FFE7019804B080BD7047E9
:1007300082B08DF804009DF80400014600918DF808
:1007400006008DF80700FFE7009800F001008DF823
:1007500005009DF8050002B0704780B56F4684B073
:10076000019107F8060C17F8060C811E18BF01212D
:10077000022802D0FFE702E0FEDE04B080BD01984F
:1007800017F8061C07F8051C6946086044F20120AA
:10079000C0F6000044F22C23C0F600032B217A1F80
:1007A00002F00FFCFEDE82B08DF801009DF8010022
:1007B000811E18BF0121022802D0FFE704E0FEDEFF
:1007C00002208DF802000AE09DF801008DF8070074
:1007D0008DF803009DF803008DF80200FFE79DF8F7
:1007E000020002B0704780B56F4602F0AAFBFFE737
:1007F00080BD80B56F4602F0A2FBFFE780BD80B5EB
:100800006F46B8B0059106900B900C9100F0A2FFD6
:100810000790FFE707980D90022007F8BD0C17F826
:10082000BD0C022807D0FFE717F8BD0C07F8A50C90
:10083000C007D0B900E031E007981030049017905D
:10084000002016901698199018901898159015A8D1
:100850001490149800F06CF90146049809681A90F5
:100860001B911C9002F064FBE5E7079810300390A1
:10087000209000201F901F982290219021981E9078
:100880001EA81D901D9800F01CF9014603980968E8
:1008900023902491259002F04BFBCCE70599069A12
:1008A0000320099009A80A900A98009010921191CB
:1008B000129000F04FFF0099029013900F910F9942
:1008C00001912C902D913390349002F027FB01463A
:1008D00001982E912991299A30922F922F9A28923D
:1008E0002B912B993291319131992A9128A92691F6
:1008F0002AA927912699279A00F0CFFA0146029853
:10090000096835903691379002F012FBFFE738B056
:1009100080BD80B56F46B8B0059106900B900C91E4
:1009200000F018FF0790FFE707980D90022007F8E6
:10093000BD0C17F8BD0C022807D0FFE717F8BD0C57
:1009400007F8A50CC007D0B900E031E007981030D7
:1009500004901790002016901698199018901898E7
:10096000159015A81490149800F05EF801460498AC
:1009700009681A901B911C9002F0DAFAE5E70798D3
:1009800010300390209000201F901F9822902190FB
:1009900021981E901EA81D901D9800F0B6F80146E3
:1009A0000398096823902491259002F0C1FACCE7BE
:1009B0000599069A0320099009A80A900A980090C0
:1009C00010921191129000F0C5FE0099139004301E
:1009D00002900F910F9901912C902D9133903490AA
:1009E00002F09CFA014601982E912991299A3092A1
:1009F0002F922F9A28922B912B99329131913199E4
:100A00002A9128A926912AA927912699279A00F0A8
:100A10001EFA01460298096835903691379002F027
:100A200087FAFFE738B080BD80B56F468AB0019085
:100A3000049018200290002050B9FFE7029800F0BF
:100A40001F0201219140009110F0E00F14D10BE042
:100A500044F2B020C0F6000044F29822C0F6000232
:100A60001C2102F097FAFEDE00980199059106908C
:100A70000791089008600BE044F2E020C0F6000007
:100A800044F2CC22C0F60002232102F083FAFEDEFB
:100A900001980990FFE701980AB080BD85B00291E6
:100AA00003900491FFE7029820F0704000900398B3
:100AB000006800070190FFE700980199084305B01E
:100AC000704788B000900290FFE700990391802062
:100AD0000490059106900860FFE700980790FFE7F3
:100AE000009808B0704785B0029103900491FFE729
:100AF000029820F00F000090039800680190FFE733
:100B000000980199084305B0704788B000900290A2
:100B1000FFE7009903914FF48070049005910690CF
:100B20000860FFE700980790FFE7009808B070475B
:100B300080B56F468AB00190049017200290002083
:100B400050B9FFE7029800F01F0201219140009187
:100B500010F0E00F14D10BE044F2B020C0F600001A
:100B600044F29822C0F600021C2102F013FAFEDEC5
:100B700000980199059106900791089008600BE094
:100B800044F2E020C0F6000044F2CC22C0F600029D
:100B9000232102F0FFF9FEDE01980990FFE701989A
:100BA0000AB080BD80B56F469CB00390059007F8F1
:100BB000561C07F8551C04A8079017F8551CC807C1
:100BC00010B1FFE71CE0FEDE04A8099000F0C2FDB2
:100BD000103002900D9000200C900C980F900E9009
:100BE0000E980B900BA80A900A9800F00BF901469A
:100BF0000298096810901191129002F099F91BE087
:100C000004A8089000F0A6FD103001901690002076
:100C100015901598189017901798149014A8139081
:100C2000139800F0B5F801460198096819901A91D7
:100C30001B9002F07DF9FFE7FFE7039904A8FFF797
:100C400068FEFFE700F062F8FFE7FFE71CB080BD39
:100C500080B56F469CB00390059007F8561C07F8C6
:100C6000551C04A8079017F8551CC80710B1FFE7DA
:100C70001CE0FEDE04A8099000F06CFD103002902C
:100C800016900020159015981890179017981490AA
:100C900014A81390139800F0C8F801460298096848
:100CA00019901A911B9002F043F91BE004A80890D8
:100CB00000F050FD103001900D9000200C900C9829
:100CC0000F900E900E980B900BA80A900A9800F0C7
:100CD00025F801460198096810901191129002F0D0
:100CE00027F9FFE7FFE7039904A8FFF788FDFFE76F
:100CF00000F004F8FFE7FFE71CB080BD80B56F4649
:100D000082B000F0F0F8FFE702B080BD80B56F461A
:100D100082B000F0E8F8FFE702B080BD80B56F4612
:100D20008AB00190049017200290002050B9FFE78C
:100D3000029800F01F0201219140009110F0E00F95
:100D400014D10BE044F2B020C0F6000044F20432AB
:100D5000C0F600021C2102F01DF9FEDE0098019988
:100D6000059106900791089008600BE044F2E0209E
:100D7000C0F6000044F21432C0F60002232102F053
:100D800009F9FEDE01980990FFE701980AB080BDDD
:100D900080B56F468AB00190049018200290002020
:100DA00050B9FFE7029800F01F0201219140009125
:100DB00010F0E00F14D10BE044F2B020C0F60000B8
:100DC00044F20432C0F600021C2102F0E3F8FEDE19
:100DD00000980199059106900791089008600BE032
:100DE00044F2E020C0F6000044F21432C0F60002E3
:100DF000232102F0CFF8FEDE01980990FFE7019869
:100E00000AB080BD88B000900290FFE7009903917E
:100E10004FF480700490059106900860FFE70098F9
:100E20000790FFE7009808B0704788B000900290E4
:100E3000FFE70099039180200490059106900860D7
:100E4000FFE700980790FFE7009808B0704780B56B
:100E50006F4690B002920391049006900791089219
:100E60000991FFE703980A9000680190FFE7049852
:100E7000019905910599FFF736FE0090FFE700986C
:100E800002990B910C900D910E900860FFE702986B
:100E90000F90FFE7029810B080BD80B56F4690B00C
:100EA0000292039104900690079108920991FFE73E
:100EB00003980A9000680190FFE704980199059152
:100EC0000599FFF7EBFD0090FFE7009802990B9161
:100ED0000C900D910E900860FFE702980F90FFE7CD
:100EE000029810B080BD80B56F46FFF720FCFFE789
:100EF00080BD81B0009001B0704781B0FFE701B0C4
:100F0000704780B56F4602F01EF8FFE780BD80B5E0
:100F10006F4682B000F003F8FFE702B080BDF0B585
:100F200003AF4DF804BDC2B0FFF7E7FFFFE7FFF7DF
:100F3000A6FBFFE700F0A2FA0DA8019000F0A1FACD
:100F400001991FAA1046B1E87850A0E8785091E8BE
:100F5000785080E878500CA80290419031A908465A
:100F6000B2E87850A0E8785092E8785080E878505D
:100F70002DA800F0A4FF029A2D982E992F9BDDF842
:100F8000C0C0CDF800C13F933E913D9019A8059097
:100F90003DA900F078FC00F0A1FA0020039007F8CA
:100FA0006A0C17F86A1C2BA80490FFF7FBFD039945
:100FB000049807F8691C17F8691CFFF749FE0598A3
:100FC000FFF73DFB01200790FFF786FB01462CA8A9
:100FD000069000F021F8C0B244F23031C0F60001B2
:100FE000FFF7BBFB069800F0B6F90799FFF7EAF8A0
:100FF000FFE7FFF7F8FBFFE742B05DF804BBF0BD89
:1010000040F20101C2F2000101200870704781B076
:101010000090006801B0704780B56F46ADF50E7D59
:101020000E901091129000F096F90F90FFE70F9834
:101030001790239042F60040C4F201000D90839077
:1010400089908A9001F06AFF8490809080998691BF
:10105000859185997F9182908298889087908798D2
:1010600081907FA87D9081A87E907D987E99FFF7E2
:101070003AFA01460D9809688B908C918D9001F099
:1010800057FFFFE70E9800F066F90C90FFE70C9809
:1010900001211B911D9022901BA81C901C9842F6C8
:1010A0001041C4F201010B9139913A90002138911D
:1010B00038993C913B913B99379137A936913699B4
:1010C000FFF75CFA01460B9809683D903E913F900E
:1010D00001F02EFFFFE70E9800F03DF90A90FFE7C0
:1010E0000A981490289042F62440C4F201002990F6
:1010F0002A9000212B912C9001F01AFFFFE70E9807
:1011000000F029F90990FFE710A801F057FD0890B9
:10111000FFE70898411E0791012847D3FFE707988A
:10112000099919911A9020B9FFE700208DF8630002
:1011300008E007990020B1F5803F38BF01208DF805
:101140006300FFE79DF86300C00720B9FFE70120B7
:101150008DF8620026E0099807991E912090219051
:101160001EA81F901F9842F62C41C4F2010106915F
:10117000439144900021429142994691459145996D
:10118000419141A940914099FFF713FA0146069811
:10119000096847904891499001F0CAFE02208DF8F5
:1011A0006200FFE79DF8620005900BE044F2C0305A
:1011B000C0F6000044F2A432C0F60002212101F082
:1011C000E9FEFEDE0598FFF7EEFAC0B28DF84700A3
:1011D000FFE79DF84700811E18BF0121022802D0B9
:1011E000FFE705E0FEDE0E9800F0B5F8049012E08F
:1011F0009DF847008DF84F0044F2E431C0F600013D
:10120000FFF796FAC0B28DF84600FFE79DF846005A
:101210000DF50E7D80BD04981690269042F6004094
:10122000C4F20100039072907890799001F076FEFC
:1012300073906F906F997591749174996E9171908C
:10124000719877907690769870906EA86C9070A850
:101250006D906C986D99FFF71BF90146039809682A
:101260007A907B917C9001F063FE0498259042F681
:101270001440C4F201000290309000202F902F986B
:101280003290319031982E902EA82D902D98FFF706
:10129000AEF801460298096833903491359001F018
:1012A00047FE04990398249161906790689001F03B
:1012B00035FE62905E905E996491639163995D9151
:1012C000609060986690659065985F905DA85B906F
:1012D0005FA85C905B985C99FFF7AFF801460398B4
:1012E000096869906A916B9001F022FEFFE70E9801
:1012F00000F031F80190FFE701981590279042F631
:101300000040C4F20100009050905690579001F0B8
:1013100005FE51904D904D995391529152994C9197
:101320004F904F985590549054984E904CA84A9096
:101330004EA84B904A984B99FFF732F80146009817
:101340000968589059915A9001F0F2FDFFE7022088
:101350008DF846005AE781B0009001B0704780B523
:101360006F4682B00190FFE7042007F8050C17F8DC
:10137000050C00F001F8F7E780B56F468AB007F872
:10138000190C17F8190C02900299DFE801F0041407
:1013900015161700FEDE69460020086044F2284159
:1013A000C0F6000144F23043C0F6000304A8012255
:1013B00000F00FF805E002E001E000E0FFE70AB00E
:1013C00080BD44F28041C0F6000104A801F0CCFDCC
:1013D000FEDE80B56F4694B00293039204910590AF
:1013E000B8680690109111921293139082420AD31A
:1013F000FFE703990698421C0020914288BF012014
:1014000007F8310C03E0012007F8310CFFE717F86B
:10141000310CC007B8B9FFE706980599029A039BFB
:10142000DDF810C04FF0000ECDF838E0C1F800C074
:101430004B60DDF838C00F9BC1F808C0CB600A6173
:10144000486114B080BD69460020086044F29C41A8
:10145000C0F6000144F2A443C0F6000308A801222C
:10146000FFF7B7FFFFE744F2F041C0F6000108A81C
:1014700001F07AFDFEDE70477047704781B001B021
:101480007047B0B502AF99B000210C910E91109148
:101490001291149116910C9A0D99009201910E9A45
:1014A0000F9902920391109A119904920591129A40
:1014B000139906920791149A159908920991169A10
:1014C00017990A920B916946B1E83C50A0E83C504C
:1014D00091E83C5080E83C5019B0B0BD80B56F46F3
:1014E00086B0FFE741F20000C4F2020003900490CE
:1014F00000F0BFF9032101F07EFBFFE741F200009D
:10150000C4F202000090059000F0B8F903210191A7
:1015100001F065FB009800F0B1F9019901F053FB6F
:10152000FFE700F0BFF8FFE700F0ECF8FFE700F09E
:10153000F9F8FFE700F006F9FFE700F0DBF8FFE756
:1015400000F098F8FFE700F085F8FFE700F09AF860
:10155000FFE700F0AFF8FFE700F0DCF8FFE700F08E
:10156000E9F8FFE700F0AEF8FFE700F07BF8FFE7EF
:1015700000F090F8FFE700F0B5F8FFE700F0AAF8F8
:10158000FFE706B080BD80B56F4682B0019000F0E5
:101590002FF80090FFE7009802B080BD81B0009066
:1015A00001B0704782B08DF805008DF807008DF806
:1015B00006009DF806000090FFE7009802B0704713
:1015C00080B56F4682B007F8010C01F096FC0090E0
:1015D000FFE7009802B080BD80B56F4682B027F863
:1015E000020C01F090FC0090FFE7009802B080BD73
:1015F00080B56F4684B003900290002008B9FFE7E1
:101600000BE044F27050C0F6000044F25452C0F6B1
:101610000002212101F0BEFCFEDE029800F00AF873
:101620000190FFE7019804B080BD81B00090006890
:1016300001B0704780B56F4684B001900390FFF70A
:101640001AFFFFE7FFF717FFFFE7019802900298E4
:1016500004B080BD80B56F4682B000F0B9F8FFE7F6
:1016600002B080BD80B56F4682B000F0B1F8FFE7F0
:1016700002B080BD80B56F4682B000F0A9F8FFE7E8
:1016800002B080BD80B56F4682B000F0A1F8FFE7E0
:1016900002B080BD80B56F4682B000F099F8FFE7D8
:1016A00002B080BD80B56F4682B000F091F8FFE7D0
:1016B00002B080BD80B56F4682B000F089F8FFE7C8
:1016C00002B080BD80B56F4682B000F081F8FFE7C0
:1016D00002B080BD80B56F4682B000F079F8FFE7B8
:1016E00002B080BD80B56F4682B000F071F8FFE7B0
:1016F00002B080BD80B56F4682B000F06FF8FFE7A2
:1017000002B080BD80B56F4682B000F061F8FFE79F
:1017100002B080BD80B56F4682B000F059F8FFE797
:1017200002B080BD80B56F4682B000F051F8FFE78F
:1017300002B080BD80B56F4682B000F049F8FFE787
:1017400002B080BD80B56F4682B000F047F8FFE779
:1017500002B080BD80B56F4682B0012000900020AD
:1017600028B90099DFE801F00F151617180044F2A8
:101770009150C0F6000044F21462C0F60002282125
:1017800001F008FCFEDE40F60000C4F2010001900A
:1017900009E017E010E009E0FFE741F60000C4F2BD
:1017A00001000190FFE7019802B080BD41F20040C6
:1017B000C4F201000190F6E741F20000C4F201001A
:1017C0000190F0E740F60040C4F201000190EAE722
:1017D00080B56F46FFF751FEFFE780BD704780B5CB
:1017E0006F4684B00192ADF80800ADF80A10BDF85C
:1017F000080010B1FFE706E0FEDEBDF80A0027F89A
:10180000020C04B080BD01986946086044F224606F
:10181000C0F6000044F25063C0F600032B2103AA77
:1018200001F0CFFBFEDE80B56F4684B000910290E0
:1018300003910178C80710B1FFE70BE0FEDE0098C6
:1018400044F26F61C0F60001082202F01DF907F8AA
:10185000090C0AE0009844F26061C0F600010F2212
:1018600002F012F907F8090CFFE717F8090C04B0A9
:1018700080BD81B00090183001B0704781B00090F9
:101880000C3001B07047F0B503AF4DF8048DFCB0DB
:101890000A91189200F060FEFFE7FFE70A9841F214
:1018A0000001C4F20201199101F0BBF80990FFE7B1
:1018B0000998C00730B9FFE70A98007AC0070028E6
:1018C00056D18EE041F20000C4F202000890679009
:1018D0006D906E9001F022FB6890649064996A911B
:1018E000699169996391669066986C906B906B981A
:1018F000659063A8619065A862906198629900F014
:101900000EF90146089809686F907091719001F086
:101910000FFBFFE741F20000C4F202002190249087
:10192000259001F0FBFA2090209823902290229895
:101930000C90FFE70CA8769077900C98C0F340408D
:1019400007F81D0C07F81E0C17F81E0C8DF82F0059
:10195000FFE70DF12F00739074909DF82F0080F039
:1019600001000790FFE70798C0070028D2D1A3E73E
:101970000A98417A8DF837100DF137010E910F90CA
:101980000E9A05920F99049141F20400C4F20200EC
:1019900006904390449245914B904C9001F0BEFAD2
:1019A00004990246059846924092409B489347937B
:1019B000479B3F934292429A4A924992499A419256
:1019C0003FAA3D9241AA3E923D9A3E9B00F0D2F83A
:1019D0000146069809684D904E914F9001F0A8FA83
:1019E00043E0DDF828E00EF1080C0EF10A030EF1D9
:1019F0000B020EF10C010EF10D00CDF848E0CDF810
:101A00004CC0149315921691179041F20400C4F241
:101A10000200039032903890399001F07FFA01462D
:101A2000339112AB26A8024693E8705182E87051B8
:101A30002F912F9A35923492349A2E923191319976
:101A400037913691369930912EA92C9130A92D914C
:101A50002C992D9A00F00DF90146039809683A90E7
:101A60003B913C9001F064FA55E041F20000C4F271
:101A70000200029056905C905D9001F04FFA5790F2
:101A8000539053995991589158995291559055980E
:101A90005B905A905A98549052A8509054A85190E4
:101AA0005098519900F0BAF80146029809685E9082
:101AB0005F91609001F03CFAFFE741F20000C4F250
:101AC00002001B901E901F9001F028FA1A901A989D
:101AD0001D901C901C981190FFE711A879907A90A6
:101AE0001198C0F3406007F8110C07F8120C17F8B2
:101AF000120C8DF84300FFE70DF1430072907590D2
:101B00009DF8430080F001000190FFE70198C007B5
:101B10000028D2D165E77CB05DF8048BF0BD80B5BC
:101B20006F4690B0059006910D910F910E910E9811
:101B30000390FFE7039808900990012007F8150C1F
:101B400009990B91096821F48031019101F0E1F9C3
:101B50000146019801F0010209990C9140EA024006
:101B6000086009980290FFE702980790FFE7029843
:101B700010B080BD80B56F469AB007900891099269
:101B80000A9314931693159315980690FFE70699F8
:101B900007980078109107F8210C109912910968A4
:101BA00021F470110491FFF70BFD0146049801F038
:101BB0000F021099139140EA824008601098059036
:101BC000FFE7059817901990189018980390FFE771
:101BD000089800F026FF0290FFE7029803990C9105
:101BE00000F0010007F8310C0C990E91096821F4FE
:101BF0008031009101F08DF90146009801F0010259
:101C00000C990F9140EA024008600C980190FFE7A0
:101C100001980B90FFE701981AB080BD80B56F4620
:101C200090B0059006910D910F910E910E98039032
:101C3000FFE7039808900990012007F8150C09990F
:101C40000B91096821F08071019101F062F9014660
:101C5000019801F0010209990C9140EA02600860C4
:101C600009980290FFE702980790FFE7029810B0EA
:101C700080BD80B56F46BCB0109211901491159242
:101C800039923B923A923A981290FFE71299119842
:101C900040690078179107F88D0CFFF783FC1299C3
:101CA000199107F8850C19991B91096821F4404195
:101CB0000F91FFF785FC01460F9801F00302199977
:101CC0001C9140EA82300860FFE710983690389007
:101CD000379037980E90FFE70E99119800690078B9
:101CE0008DF84C009DF84C00299107F8450C299976
:101CF0002B91096821F460510C91FFF761FC0146BA
:101D00000C9801F0070229992C9140EAC220086042
:101D100029980D90FFE70D983390359034903498C2
:101D20000B90FFE70B991198C068007807F8A30C97
:101D300017F8A30C259107F8550C259927910968E8
:101D400021F4E0610991FFF73BFC0146099801F09D
:101D500007022599289140EA0220086025980A90F8
:101D6000FFE70A9830903290319031980890FFE761
:101D7000089911988068007807F8A20C17F8A20C4F
:101D80001D9107F8750C1D991F91096821F0F0014C
:101D90000691FFF715FC0146069801F00F021D9908
:101DA000209140EA021008601D980790FFE707980D
:101DB0002D902F902E902E980590FFE71198406857
:101DC00000F01DFE0490FFE70498C00730B9FFE75C
:101DD0001198006800F025FE039019E0022007F832
:101DE000A10CFFE7059917F8A10C219107F8650CE4
:101DF0002199239109680191FFF7E2FB02460198BE
:101E00002199249162F301000860219802900BE06F
:101E10000398C00720B9FFE7002007F8A10CE1E70D
:101E2000012007F8A10CDDE702981690FFE7029861
:101E30003CB080BD80B56F4688B0049007900830F4
:101E4000FFF7F3FB0590FFE7049800F028F80390F4
:101E5000FFE70398C0B2012803D1FFE701200690F5
:101E600002E002200690FFE705980699A0FB01100A
:101E7000029128B9FFE70298FFF7DCFB01900BE025
:101E800044F2E060C0F6000044F20472C0F60002C2
:101E9000212101F07FF8FEDE019808B080BD81B0FD
:101EA0000090407D01B0704780B56F4682B00190D0
:101EB000FFF7C0FF0090FFE7009802B080BDF0B5CB
:101EC00003AF4DF804BDB6B01B9101461B981C91A1
:101ED000016840681D911E901D98012804D1FFE7FC
:101EE0001E982B901F9005E040F60010C0F23D00B8
:101EF0001F90FFE71B98006A012808D1FFE71B9895
:101F0000406A19902C901F981A9068B106E0012041
:101F10002090FFE72098012812D018E019981A990C
:101F2000B0FBF1F02090F5E744F23070C0F600000D
:101F300044F21472C0F60002192101F02BF8FEDE03
:101F400000208DF88C001D98012860D063E0209857
:101F500018B9FFE7209880B112E020981028F9D82E
:101F6000FFE720982590FFE79DF89400811EC8B2F6
:101F70000A461892884213D105E001202590F3E724
:101F800010202590F0E718988DF8990001208DF821
:101F900098001F982599A0FB01101791B8B90BE084
:101FA00044F26070C0F6000044F24C72C0F60002C9
:101FB000212100F0EFFFFEDE17989DF898209DF894
:101FC00099108DF884208DF8851022900BE044F252
:101FD000E060C0F6000044F28472C0F600022121E5
:101FE00000F0D8FFFEDE1B989DF884209DF8851038
:101FF000134614930B4615938DF8B8208DF8B9103D
:10200000229916912F918068012815D01AE01E9808
:102010002D90249005E041F20020C0F27A00249037
:10202000FFE79DF88C109DF88D008DF884108DF8D9
:10203000850024982290D6E71B98C06813903090B2
:10204000B8B10DE0072007F84D0CFFE717F84D0C6D
:1020500007F8470C17F8470C0B2800F2808071E056
:1020600016981399B0FBF1F001461291002810D296
:102070000BE044F23070C0F6000044F29472C0F6F7
:102080000002192100F086FFFEDE1298022808D017
:102090000BE012980128F8D8FFE7072007F84D0C4D
:1020A000D4E7082007F84D0CD0E71298022804D88E
:1020B000FFE7129805280CD807E012980528F8D8F1
:1020C000FFE7092007F84D0CC0E712980B280CD841
:1020D00007E012980B28F8D8FFE70A2007F84D0C04
:1020E000B4E7129827280CD807E012982728F8D8C8
:1020F000FFE70B2007F84D0CA8E712985F280CD8D3
:1021000007E012985F28F8D8FFE70C2007F84D0C7D
:102110009CE71298BF280CD807E01298BF28F8D87F
:10212000FFE70D2007F84D0C90E70F2007F84D0C46
:102130008CE71298C0090228F7D8FFE70E2007F8AD
:102140004D0C83E717F84D0C07F8450C17F8450CB4
:10215000C11FC8B20A461192884253D148E017F80D
:102160004D0C07F8460C17F8460C811FC8B20A46FA
:10217000109288420AD1FFE7109800F01F02012157
:1021800091400F9110F0E00F0FD10BE044F260701E
:10219000C0F6000044F2A472C0F60002212100F053
:1021A000F9FEFEDE0F9890B10BE044F2D070C0F65D
:1021B000000044F2B472C0F60002232100F0EAFEEF
:1021C000FEDE16980F99B0FBF1F027900BE044F279
:1021D0003070C0F6000044F2F472C0F6000219211B
:1021E00000F0D8FEFEDE1B980069012837D03BE0E6
:1021F000119800F01F02012191400E9110F0E00FA4
:102200000FD10BE044F26070C0F6000044F6040207
:10221000C0F60002212100F0BDFEFEDE0E9890B156
:102220000BE044F2D070C0F6000044F61402C0F691
:102230000002232100F0AEFEFEDE16980E99B0FBE0
:10224000F1F02790CFE744F23070C0F6000044F67A
:102250002402C0F60002192100F09CFEFEDE1B984D
:1022600040693190299010E0279845F20011C0F2A2
:102270002521884206D3FFE745F20010C0F2252051
:10228000299002E027982990FFE727992998084488
:1022900002460D92884206D3FFE70D98411E0C912D
:1022A000012810D30BE044F65000C0F6000044F6BD
:1022B0003402C0F600021C2100F06CFEFEDE2998FC
:1022C0000B90C8B10BE044F26070C0F6000044F619
:1022D0006C02C0F60002212100F05CFEFEDE0C98CC
:1022E0000B99B0FBF1F001460A91022814D3FFE7E5
:1022F0000A98022814D00BE044F23070C0F60000B7
:1023000044F66C02C0F60002192100F043FEFEDE26
:102310000A9802280CD807E003208DF8A8000FE0E7
:1023200004208DF8A8000BE00A98052811D80CE0CD
:102330000A980528F8D8FFE705208DF8A800FFE7E0
:102340001B98806901280CD013E007208DF8A800A5
:10235000F6E70A980B28F8D8FFE706208DF8A800C2
:10236000EEE71B98C0690890329027990991D0B187
:1023700010E0032007F83F0CFFE717F83F0C07F8C1
:102380003E0C17F83E0CC11EC8B20A46079288429E
:102390004BD140E009980899B0FBF1F00146069155
:1023A000002810D20BE044F23070C0F6000044F672
:1023B0007C02C0F60002192100F0ECFDFEDE06985A
:1023C000022808D00BE006980128F8D8FFE7032080
:1023D00007F83F0CD1E7042007F83F0CCDE706983B
:1023E000022804D8FFE7069805280CD807E00698CD
:1023F0000528F8D8FFE7052007F83F0CBDE70720C0
:1024000007F83F0CB9E706980B28F8D8FFE7062035
:1024100007F83F0CB1E7079800F01F020121914037
:10242000059110F0E00F12D10BE044F26070C0F69D
:10243000000044F68C02C0F60002212100F0AAFD43
:10244000FEDE0598339027990491C0B10BE044F269
:10245000D070C0F6000044F69C02C0F600022321B2
:1024600000F098FDFEDE1B980499059AB1FBF2F18D
:102470000A4603923491806A01280CD011E044F29C
:102480003070C0F6000044F6AC02C0F6000219211C
:1024900000F080FDFEDE1B98C06A0290359058B3B4
:1024A00021E0032007F83D0CFFE71C99DDF854E01C
:1024B000149C1D9E1E9D17F84DCC9DF8A83017F852
:1024C0003F2C17F83D0C0E604D6004F001040C72B7
:1024D00081F809E081F80AC0CB720A73487336B0FC
:1024E0005DF804BBF0BD03980299B0FBF1F0014622
:1024F0000191002810D20BE044F23070C0F60000C9
:1025000044F6BC02C0F60002192100F043FDFEDED5
:10251000019802280CD807E001980228F8D8FFE7B4
:10252000002007F83D0CC0E7019804280CD807E00C
:1025300001980428F8D8FFE7012007F83D0CB4E71C
:10254000032007F83D0CB0E701980728F8D8FFE70B
:10255000022007F83D0CA8E7B0B502AFB0B01E915D
:102560001F902691087AC00750B1FFE71E98417A64
:102570000A461D9207F8251C0068012819D01DE0A5
:102580001E980068012805D1FFE71E984068279033
:10259000209005E041F20020C0F27A002090FFE791
:1025A0001E98807A07F83A0C17F83A0C0B2845D891
:1025B00035E01E9840682990219005E040F6001013
:1025C000C0F23D002190FFE71D9821991B91C0B2F8
:1025D00002301C90002038B9FFE71B981C99A0FB23
:1025E00001101A9178B90BE044F65000C0F60000D3
:1025F00044F6CC02C0F600021C2100F0CBFCFEDE4B
:102600001A982090CCE744F2E060C0F6000044F64F
:10261000DC02C0F60002212100F0BCFCFEDE1E98A8
:1026200020991891807A8DF890009DF89000C11F34
:10263000C8B20A46199288425DD152E01E9820998C
:102640001691807A07F8390C17F8390C811FC8B237
:102650000A46179288420AD1FFE7179800F01F0236
:1026600001219140159110F0E00F0FD10BE044F2E1
:102670006070C0F6000044F6EC02C0F600022121B2
:1026800000F088FCFEDE159890B10BE044F2D070AB
:10269000C0F6000044F6FC02C0F60002232100F060
:1026A00079FCFEDE16981599B0FBF1F022900BE054
:1026B00044F23070C0F6000044F60C12C0F600027E
:1026C000192100F067FCFEDE1E98C07A07F8370C6F
:1026D00017F8370CC11EC8B20A461492884241D17D
:1026E00036E0199800F01F0201219140139110F07B
:1026F000E00F0FD10BE044F26070C0F6000044F62A
:102700001C12C0F60002212100F044FCFEDE1398EA
:1027100090B10BE044F2D070C0F6000044F62C12E9
:10272000C0F60002232100F035FCFEDE1898139954
:10273000B0FBF1F02290C7E744F23070C0F6000021
:1027400044F63C12C0F60002192100F023FCFEDE24
:10275000149800F0070201219140129110F0F80F37
:1027600016D10BE044F26070C0F6000044F64C1243
:10277000C0F60002212100F00DFCFEDE129807F8E1
:102780001D0C22991091C0B20146119100B30BE0CB
:1027900044F2D070C0F6000044F65C12C0F60002AD
:1027A000232100F0F7FBFEDE1E981099119AB1FB71
:1027B000F2F10A460E922B91007B07F8360C17F8BF
:1027C000360CC11EC8B20A460F92884216D10BE0E1
:1027D00044F23070C0F6000044F66C12C0F60002FD
:1027E000192100F0D7FBFEDE0F9800F0070201214F
:1027F00091400D9110F0F80F16D10BE044F260708B
:10280000C0F6000044F67C12C0F60002212100F060
:10281000C1FBFEDE0D9807F8150C22990B91C0B292
:1028200001460C91F0B10BE044F2D070C0F600000C
:1028300044F68C12C0F60002232100F0ABFBFEDE52
:102840001E980B990C9AB1FBF2F10A4609922D9150
:10285000407B07F8350C17F8350C01300A90002042
:1028600080B90BE044F23070C0F6000044F69C12D0
:10287000C0F60002192100F08DFBFEDE0A98400030
:1028800008900BE044F65000C0F6000044F6AC128D
:10289000C0F600021C2100F07DFBFEDE089807F860
:1028A0000D0CC0B20146079178B1FFE7099807996E
:1028B000B0FBF1F0014606912F9020984AF20121D9
:1028C000C0F24A41884210D30BE044F23070C0F6A7
:1028D000000044F6BC12C0F60002192100F05AFBB9
:1028E000FEDE002007F8310C0BE022994AF20122AB
:1028F000C0F24A420020914238BF012007F8310C53
:10290000FFE717F8310CC00720B9FFE7002007F8F0
:10291000320C0BE00E9945F20112C0F22522002084
:10292000914238BF012007F8320CFFE717F8320C4C
:10293000C00720B9FFE7002007F8330C0BE0099926
:102940004AF20122C0F24A420020914238BF0120DF
:1029500007F8330CFFE717F8330CC00720B9FFE77F
:1029600000208DF894000BE0069949F68172C0F2C0
:10297000D5020020914238BF01208DF89400FFE776
:102980009DF89400C00728B1FFE72298FEF7FBFDF1
:1029900005900BE044F6CC10C0F6000044F6582237
:1029A000C0F600028B2100F0F5FAFEDE0E98FEF76D
:1029B000EAFD0490FFE70998FEF7E5FD0390FFE7C5
:1029C0002098FEF7E0FD0290FFE70698FEF7DBFD9A
:1029D0000190FFE701981F99029A0D9BDDF848C00E
:1029E000DDF80CE0049C059D0D604C60C1F808E02A
:1029F00081F814C04B75CA60086130B0B0BD82B0B8
:102A000001900078C00720B1FFE701208DF8030096
:102A100003E000208DF80300FFE79DF8030002B0FB
:102A2000704782B001900068012804D1FFE70120BF
:102A30008DF8030003E000208DF80300FFE79DF808
:102A4000030002B0704783B0029001900020009014
:102A50000098019903B0704784B000900390007A09
:102A6000C00730B9FFE700980430029000200190C1
:102A700005E000980430029001200190FFE70198E2
:102A8000029904B0704780B56F469CB003900491E2
:102A90001190FFF7D8FF07910690FFE70698029084
:102AA00030B1FFE70298012811D0FFE71EE0FEDEFB
:102AB0000798089008A814900498099009A8159000
:102AC0000898099900F0FDF907F8590C18E00798E3
:102AD0000A900AA8129004980B900BA813900A98D9
:102AE0000B9900F0FCF907F8590C08E0012007F8F1
:102AF000590CFFE717F8590CC00730B901E0F9E7A6
:102B0000F8E7002007F85A0C36E00398FFF7A4FF17
:102B10000E910D90FFE70D98019030B1FFE70198FD
:102B2000012810D0FFE71CE0FEDE0E98199004A9E2
:102B30001A910F900FA81B9004980F9900F0C1F9FB
:102B400007F83D0C17E00E98169004A91791109005
:102B500010A818900498109900F0C1F907F83D0CDE
:102B600008E0012007F83D0CFFE717F83D0C07F8D7
:102B70005A0C01E0F9E7F8E717F85A0C1CB080BDD1
:102B800080B56F4684B002900391FFF77CFF0190FF
:102B9000FFE7019800F0010004B080BD80B56F46EA
:102BA00084B001900390FEF766FCFFE7FEF764FC3B
:102BB000FFE701980290029804B080BD81B00090B8
:102BC000006801B0704780B56F4682B0009007F88A
:102BD000011C002200F01BF8FFE702B080BD80B5A9
:102BE0006F4682B0009007F8011C012200F00FF838
:102BF000FFE702B080BD80B56F4682B0009007F855
:102C0000011C012200F0B0F8FFE702B080BD80B5E2
:102C10006F4690B0134608930B4609930C9007F843
:102C20000A1C07F8092C0B9044F69420C0F600000B
:102C30000BA9FFF7A5FF0A90FFE70A98C00728B184
:102C4000FFE70998C0B21F2819D80BE044F6A0206E
:102C5000C0F6000044F64432C0F60002492100F0FC
:102C600099F9FEDE0998C0B2014606910E900B98C4
:102C7000A0F180410791B0F1804F12D30BE044F6F0
:102C80005430C0F6000044F67032C0F600021A213B
:102C900000F080F9FEDE07984101C00E0591A0B951
:102CA0000BE044F69030C0F6000044F68032C0F6E7
:102CB0000002212100F06EF9FEDE059901F1844049
:102CC00002460492884212D30BE044F67020C0F60C
:102CD000000044F68032C0F60002212100F05AF9CB
:102CE000FEDE06988100800F0391A0B90BE044F648
:102CF000D030C0F6000044F6B432C0F600021C2109
:102D000000F048F9FEDE0499039808440246029256
:102D1000884216D30BE044F67020C0F6000044F65B
:102D2000EC32C0F60002212100F034F9FEDE0898F2
:102D300002990F91009100F0010000F0EAF8019073
:102D40000BE044F6D030C0F6000044F6B432C0F6D2
:102D500000021C2100F01EF9FEDE0199009800F02F
:102D6000E7F8FFE710B080BD80B56F4690B013461E
:102D700008930B4609930C9007F80A1C07F8092CD6
:102D80000B9044F69420C0F600000BA9FFF7F8FE64
:102D90000A90FFE70A98C00728B1FFE70998C0B278
:102DA0001F2819D80BE044F6A020C0F6000044F616
:102DB0004432C0F60002492100F0ECF8FEDE09982A
:102DC000C0B2014606910E900B98A0F18041079188
:102DD000B0F1804F12D30BE044F65430C0F600003F
:102DE00044F67032C0F600021A2100F0D3F8FEDE7D
:102DF00007984101C00E0591A0B90BE044F6903050
:102E0000C0F6000044F68032C0F60002212100F036
:102E1000C1F8FEDE059901F1844002460492884221
:102E200012D30BE044F67020C0F6000044F6803266
:102E3000C0F60002212100F0ADF8FEDE0698810008
:102E4000800F0391A0B90BE044F6D030C0F600002B
:102E500044F6B432C0F600021C2100F09BF8FEDEFE
:102E600004990398084402460292884216D30BE064
:102E700044F67020C0F6000044F6EC32C0F60002C2
:102E8000212100F087F8FEDE089802990F91009149
:102E900000F0010000F03DF801900BE044F6D03066
:102EA000C0F6000044F6B432C0F600021C2100F067
:102EB00071F8FEDE0199009800F03AF8FFE710B0D3
:102EC00080BD83B00091014600980191029009688D
:102ED00002680020914298BF012003B0704783B080
:102EE0000091014600980191029009680268002053
:102EF000914238BF012003B0704781B08DF80300C4
:102F0000C0B201B0704781B0ADF8020080B201B02C
:102F1000704781B08DF8030001B0704783B0019015
:102F20000068029002980090FFE7009803B0704795
:102F300082B0009001910160FFE702B0704772B665
:102F4000704762B6704730BF7047FFE7FEE77047D3
:102F50000068FEE770474FF29B4048F6F471C6F2F6
:102F60002C40C1F6D531704780B56F4686B0CDE9AB
:102F7000030144F62440C0F600000122029044F60A
:102F8000FC30C0F600008DF81420019001A8FEF777
:102F9000E6F9FEDE80B56F4688B0944644F6FC3212
:102FA000C0F600020023CDE9060168460492012222
:102FB0006146019206AA059302930092FFF7D4FF9F
:102FC000FEDE80B56F468EB08DE80F000AA90220A4
:102FD00008910021CDE90501099044F63840C0F67A
:102FE0000000B968049044F24F00C0F600000D9054
:102FF00002A80C9044F25900C0F600000B906846FD
:103000000A9004A8FFF7B0FFFEDEF0B503AF2DE98C
:10301000000F8FB08A46012190460C91C8F1000143
:10302000049101680A224FF00009029141684FF0B3
:10303000000B806800250D92CDE90A82CDF824901E
:10304000CDE907A8CDE90598019103900FE050184C
:1030500010F8010C0A38B0FA80F04009039B187090
:103060000198C368029898470028A14677D1002D9F
:1030700070D1C3454CD8A8EB0B020AEB0B03082A0E
:103080001FD22AB30498002158445E5C0A2E2AD02D
:103090004618751C10D05D186C780A2C1DD0B41C15
:1030A0000AD0AC780A2C1DD0033605D0EE780A2E53
:1030B00029D004314618E8D100201146012815D046
:1030C00025E00A20194600F0E5FC01280ED01EE09C
:1030D00000210020012809D019E001310120012838
:1030E00004D014E002310120012810D10BEB0100C3
:1030F00010F1010BBDD0C345BBD81AF800000A215E
:103100008842B6D11EE0033101200128EED0C3462B
:10311000C1451FD001254C4646460398007848B16A
:10312000019844F62041C0F600010422C3680298C9
:103130009847A0B90AEB0901B6EB09027FF487AF03
:1031400000208BE700255C465E4603980078002847
:10315000E6D1EFE700200FB0BDE8000FF0BD012081
:103160000FB0BDE8000FF0BDF0B503AF2DE9000BC7
:103170008EB00446007A48B1666801202072701C47
:10318000606020460EB0BDE8000BF0BDD4E90056EB
:10319000914688462868410719D444F6664044F6AB
:1031A0006241C0F60000C0F600010222002E08BFF6
:1031B000014608BF0122D5E90603DB6898470028CD
:1031C000DBD1D9F80C20404629469047D6E76EB9A6
:1031D000D5E906010222CB6844F66441C0F600013D
:1031E000984710B101200026C8E72868059044F6EA
:1031F0004840C0F6000001210C9001A80B902B1D47
:10320000E8690290A869019095F8200007F83D1C34
:10321000A7F13D0103918DF834000FCB069068694A
:103220000A9007A80EC005A94046D9F80C2090477F
:103230000028A2D1DDE90B010222CB6844F66041EF
:10324000C0F60001984799E780B56F4682B000222A
:103250008029019201D201220BE002220B4662F387
:103260009F13B1F5006F0BD28DF80530C02343EAF0
:1032700091118DF8041001A9FFF7C7FE02B080BDBF
:10328000B1F5803F11D28DF80630E02343EA1133C7
:10329000890962F39F118DF804308DF8051003221F
:1032A00001A9FFF7B2FE02B080BD8DF807308B098F
:1032B00062F39F138DF806300B0B890C62F39F139A
:1032C0001E2262F3DF018DF805308DF80410042210
:1032D00001A9FFF79AFE02B080BDF0B503AF4DF82B
:1032E00004BD88B0019002AA91E8785044F63051AC
:1032F0001046C0F6000180E8785001A800F069F897
:1033000008B05DF804BBF0BD0068FFF77EBE80B575
:103310006F4682B0006800228029019201D201220A
:103320000BE002220B4662F39F13B1F5006F0BD244
:103330008DF80530C02343EA91118DF8041001A9DE
:10334000FFF763FE02B080BDB1F5803F11D28DF86A
:103350000630E02343EA1133890962F39F118DF8A7
:1033600004308DF80510032201A9FFF74EFE02B0CC
:1033700080BD8DF807308B0962F39F138DF80630FE
:103380000B0B890C62F39F131E2262F3DF018DF891
:1033900005308DF80410042201A9FFF736FE02B0B3
:1033A00080BDF0B503AF4DF804BD88B0006802AA37
:1033B000019091E87850104644F63051C0F6000173
:1033C00080E8785001A800F004F808B05DF804BB6C
:1033D000F0BDF0B503AF2DE9000F8BB0934603228B
:1033E000DBF808608DF82820202203920022002EAE
:1033F0000292CDE908010692049269D0DBF80C0034
:10340000002800F08B80DBF800904FEA401A01386A
:10341000002420F078404FF000080130019009EBC3
:103420000800426842B1DDE9080359F80810DB687A
:103430009847002840F08C8006EB8800D0E9011501
:10344000D0E905320391017F8DF82810DBF81010C8
:10345000029573B1012B08D101EBC20242F65175FE
:10346000C0F600055368AB4201D0002302E01268A9
:1034700012680123CDE90432C2683019006972B1C3
:10348000012A08D101EBC00042F65173C0F60003D7
:1034900042689A4201D0002202E0006800680122DE
:1034A000CDE90620325951F8320001EBC2014A68D9
:1034B00002A9904700284BD1203408F10808A24502
:1034C000ADD1DDF80490DBF80400814533D344E04E
:1034D000DBF8140048B3DBF81010C60001380DF11A
:1034E00008080C1DDBF8001020F060400D1D00F1F5
:1034F00001092A6832B1DDE90801CB6855F8041CDE
:10350000984728BB54F8040C414622689047F8B904
:103510000834083E05F10805EBD101E04FF0000941
:10352000DBF80400814506D317E04FF00009DBF813
:103530000400814511D2DBF80000494650F83110F3
:1035400000EBC9004268DDE90803DB68984720B159
:1035500001200BB0BDE8000FF0BD00200BB0BDE8AE
:10356000000FF0BDF0B503AF2DE9000F87B0D7F81D
:103570000C909B4694460646E9B1346814F001006D
:1035800000EB090A4FF02B0008BF4FF4881006909B
:103590006007D7F8088017D5BBF1100F45D2BBF1F3
:1035A000000F66D0ABF101000BF00301032862D2DB
:1035B000002062467DE0346809F1010A2D20069062
:1035C0006007D7F80880E7D44FF0000CB0680028F7
:1035D00000F08B80CDF814B0D6F80CB0D34515D9D7
:1035E0002007CDF8108027D496F82000ABEB0A0115
:1035F000E346032808BF0120820700F09B800128D2
:1036000040F09A804FF0000A084699E0059863461A
:10361000D6E9064500902946069A204600F0E0F8D3
:1036200000286ED04FF001081EE0604659466546FE
:1036300000F0FAFAAC4653E03020746870604FF046
:10364000010896F820006346CDF80C90029005988A
:10365000D6E9069586F8208029460090069A4846C5
:1036600000F0BEF8002856D0404607B0BDE8000F75
:10367000F0BD002034E02BF003030020624612F975
:10368000045B15F1410FC8BF013012F9035C15F15D
:10369000410FC8BF013012F9025C15F1410FC8BFDC
:1036A000013012F9015C15F1410FC8BF0130043B34
:1036B000E5D1A9B192F9003013F1410FC8BF013033
:1036C00001290DD092F9013013F1410FC8BF01302B
:1036D000022905D092F9021011F1410FC8BF013043
:1036E0008244B06800287FF475AFD6E9064563468A
:1036F000CDF800B02946069A204600F071F800285F
:103700004FD1EB68204641464A4607B0BDE8000F5E
:10371000BDE8F04018470694ABEB0A00DDF81080D6
:10372000441C013C37D02A69484630219047002884
:10373000F7D036E08A4603E0480801314FEA510AE3
:103740007568441CD6E90686013C06D032694046BD
:10375000294690470028F7D023E0B5F5881F20D0F0
:103760000598314600904046069A5B4600F038F8CE
:10377000B8B9F368404604994A46984788B9002486
:10378000A24521D03269404629469047013400289D
:10379000F6D0601E19E0EB684846039A4146984708
:1037A00030B14FF00108404607B0BDE8000FF0BD52
:1037B00002984FF0000886F8200006987060404696
:1037C00007B0BDE8000FF0BD50464FF0000850456F
:1037D00038BF4FF00108404607B0BDE8000FF0BD0C
:1037E000F0B503AF4DF8048DD7F808801C460D46A0
:1037F0000646B2F5881F08D02B6930461146984717
:1038000018B101205DF8048BF0BD44B1EB6830467F
:10381000214642465DF8048BBDE8F0401847002081
:103820005DF8048BF0BDF0B503AF2DE9000F81B05A
:103830008846D0F808C001698146BCF1010F18BF65
:1038400001290AD1012977D1D9F8140008EB020E19
:103850004FF0000B4146461C0CE0D9E90601D2E0CE
:1038600040EA8115A11CABEB0400B5F5881F00EB05
:10387000010B61D0013E0C4628D074455CD0214636
:1038800011F9010BB0F1FF3FC5B2ECDC607805F037
:103890001F01DF2D00F03F00E2D9A378F02D03F0E7
:1038A0003F0343EA80100DD3E37801F0070103F0F2
:1038B0003F0343EA801040EA8145B5F5881F3BD0BD
:1038C000211DD0E740EA0135E11CCCE7744533D037
:1038D00094F90000B0F1FF3F04DCC1B2E02928BF39
:1038E000F02915D2BBF1000F09D0934506D218F983
:1038F0000B0010F1400F02DA002101E0FCD141463B
:1039000000290CBF93468846BCF1000F18D175E022
:10391000A37801F00701607803F03F03E67800F038
:103920003F009B0143EA003006F03F03184440EAA1
:103930008140B0F5881FD5D19346BCF1000F5DD012
:10394000D9F80C40BBF1100F0BD2BBF1000F0DD01A
:10395000ABF101000BF00301032809D2002042461D
:1039600024E04046594600F05FF936E0002034E09C
:103970002BF003030020424612F9046B16F1410FAD
:10398000C8BF013012F9036C16F1410FC8BF0130F6
:1039900012F9026C16F1410FC8BF013012F9016C27
:1039A00016F1410FC8BF0130043BE5D1A9B192F92E
:1039B000003013F1410FC8BF013001290DD092F939
:1039C000013013F1410FC8BF0130022905D092F92F
:1039D000021011F1410FC8BF013084420ED999F88D
:1039E0002020201A4646D11E18BF11468A0715D03E
:1039F000012910D100210091014610E0D9F81C10D6
:103A00005A46D9F81800CB68414601B0BDE8000F0E
:103A1000BDE8F04018474108013040080090D9F84F
:103A2000044001F1010AD9E90685BAF1010A06D07C
:103A30002A694046214690470028F6D008E0B4F5B0
:103A4000881F05D0EB68404631465A46984720B15A
:103A5000012001B0BDE8000FF0BDDDF800900026A8
:103A6000B14508D02A6940462146904701360028D2
:103A7000F6D0711E00E049460020494538BF0120BC
:103A800001B0BDE8000FF0BDD0E90630D0F80CC0A1
:103A900018466047F0B503AF2DE9000B5FFA80FCD4
:103AA000C81C20F00300884225D0401A904228BF4D
:103AB000104600B3C0F1000E0023CC5C644565D015
:103AC0000EEB0304651C11D0CD186E7866456BD0E3
:103AD000A61C0BD0AE7866456CD0033406D0EC78CB
:103AE00064456DD004331EEB0304E6D1A2F1080354
:103AF000984203D91FE0A2F1080300204FF00136DD
:103B00000CFB06F50E586E40A6F1013424EA0606B9
:103B100016F0803F01BF0E1876686E40A6F10134A2
:103B200004BF24EA060616F0803F02D1083098420E
:103B3000E8D990424AD8824205D10020134619465E
:103B4000BDE8000BF0BDA2EB000E0B18A0EB0208C5
:103B5000AEF1010900215C5C64451FD08945ECD0C1
:103B60005E18747864450FD008EB0104A51CE4D0FE
:103B7000B57865450FD00334DFD0F47864450CD0B8
:103B800004318E45E7D1D8E701310B1801201946E1
:103B9000BDE8000BF0BD023100E003310B1801203D
:103BA0001946BDE8000BF0BD013301201946BDE800
:103BB000000BF0BD023301201946BDE8000BF0BD3B
:103BC000033301201946BDE8000BF0BD44F64C5309
:103BD0001146C0F600031A4600F001F8FEDE80B57B
:103BE0006F4600F001F8FEDE80B56F468CB0CDE97F
:103BF000000108A90220069100210790CDE90301E8
:103C000044F69050C0F6000001A9029043F64170BE
:103C1000C0F60000CDE9090111460B9068460890F6
:103C200002A8FFF7A1F9FEDEF0B503AF2DE9000F02
:103C30000246033020F00300831A8B4298BF042B06
:103C40000BD931B1481E01F00303032810D2002024
:103C50002BE00020BDE8000FF0BDA1EB030EBEF18C
:103C6000040FEED30EF0030C904238D1002074E024
:103C700021F00301002012F9046B16F1410FC8BFB7
:103C8000013012F9036C16F1410FC8BF013012F96F
:103C9000026C16F1410FC8BF013012F9016C16F128
:103CA000410FC8BF01300439E5D1ABB192F9001022
:103CB00011F1410FC8BF0130012B0DD092F9011055
:103CC00011F1410FC8BF0130022B05D092F902104B
:103CD00011F1410FC8BF0130BDE8000FF0BDD14365
:103CE000084403F00301032802D2002014461DE01B
:103CF00023F003050020144614F9046B16F1410F5C
:103D0000C8BF013014F9036C16F1410FC8BF013070
:103D100014F9026C16F1410FC8BF013014F9016C9F
:103D200016F1410FC8BF0130043DE5D1A9B194F9A6
:103D3000005015F1410FC8BF013001290DD094F991
:103D4000015015F1410FC8BF0130022905D094F987
:103D5000021011F1410FC8BF013013444FEA9E0811
:103D60000021BCF1000F1AD02EF003021A4492F980
:103D7000006016F1410FC8BF0121BCF1010F0ED048
:103D800092F9016016F1410FC8BF0131BCF1020F79
:103D900005D092F9022012F1410FC8BF0131084449
:103DA0004FF0FF1C0FE00CEA1B222BF0FF242244F3
:103DB000A8EB09080EEB890319F0030102EB02429C
:103DC00000EB12403ED1B8F1000F3FF485AFB8F1DF
:103DD000C00FC14628BF4FF0C00919F0FC029E4633
:103DE0004FF0000B03EB820ADDD07346002B1FBFA0
:103DF000D3E90065D3E90212F443E4091FBF44EAA2
:103E0000961424F0FE345C44EE431FBFF60946EAE4
:103E1000951525F0FE352C441FBFCD43ED0945EA2D
:103E2000911121F0FE311FBF2144D443E40944EA3B
:103E300092121FBF22F0FE3202EB010B10335345EA
:103E4000D4D1B0E7BEF1000F22D0DAF8002001296A
:103E50006FEA02034FEAD31343EA921222F0FE33D1
:103E600017D0DAF8042002296FEA02064FEAD616C4
:103E700046EA921222F0FE3213440AD0DAF8081011
:103E8000CA43D20942EA911121F0FE310B4400E00D
:103E90000023FF2123F0FF22C0F2070101EA1321D2
:103EA000114401EB014100EB1140BDE8000FF0BDF2
:103EB000B0B502AF84B00C460090D1E906010F22E4
:103EC000CB6844F6A051C0F6000198478DF80C006D
:103ED000002044F6B0528DF80D00029001A869460A
:103EE000C0F600020194FFF73FF902989DF80C40DC
:103EF00000B30CB101241DE0019D012810D19DF8F3
:103F00000D0068B1287840070AD4D5E906010122DE
:103F1000CB6844F66741C0F600010124984748B9D0
:103F2000D5E906010122CB6844F6FC31C0F6000158
:103F300098470446002C18BF0124204604B0B0BDA9
:103F4000F0B503AF2DE9000F8DB0046844F6684862
:103F500042F210700E468442C0F6000841D341F28E
:103F600059794EF2FF0E0021CDF2B71941F27B4A8A
:103F70004FF0640BC0F2F55E0296A7F14302744560
:103F800002EB0105A4FB0926A1F104014FEA563218
:103F900002FB104614461FFA86FC4FEA9C0303FB03
:103FA0000AF34FEA534338F81300A5F8230003FB44
:103FB0001B6080B238F81000A5F8250042F210709E
:103FC000DBD8029E01F127031446632C0CD821464E
:103FD0000A291BD338F81110981EA7F14302115279
:103FE00019E02723632CF2D9A0B241F27B4180086B
:103FF000023B4843A7F14302410C642001FB1040FF
:1040000080B238F81000D0520A29E3D2581EA7F126
:10401000430230311154C0F12701A7F1430210448B
:1040200044F6FC32CDE90001C0F600023046012121
:104030000023FFF797FA0DB0BDE8000FF0BD08466A
:1040400044F64851C0F600010222FFF7ECBBD0E96C
:104050000020C368104618470B46D0E900121846E6
:10406000FFF7E1BB70460421084203D1EFF308805B
:1040700000F004B8EFF3098000F000B881B00090C0
:04408000FFE7FEE771
:10409000617373657274696F6E206661696C6564C3
:1040A0003A20636C6B2E72617728292025204652B6
:1040B0004551203D3D20302F686F6D652F61726E38
:1040C0006F2F2E636172676F2F72656769737472E9
:1040D000792F7372632F6769746875622E636F6DD1
:1040E0002D3165636336323939646239656338323C
:1040F000332F73746D3332663178782D68616C2D8F
:10410000302E31302E302F7372632F74696D6572CB
:104110002E727300B74000085C000000AA02000085
:1041200009000000B74000085C000000AC0200007D
:104130002E00000000000000000000000000000051
:10414000617474656D707420746F2073756274721D
:104150006163742077697468206F766572666C6F2E
:1041600077000000B74000085C000000AC020000CF
:10417000370000002F686F6D652F61726E6F2F2EF4
:10418000636172676F2F72656769737472792F73D9
:1041900072632F6769746875622E636F6D2D316568
:1041A00063633632393964623965633832332F6676
:1041B000756769742D302E332E362F7372632F641A
:1041C00075726174696F6E2E72730000744100081D
:1041D0005600000055020000010000000000000031
:1041E000617474656D707420746F206D756C746982
:1041F000706C792077697468206F766572666C6F71
:104200007763616C6C65642060526573756C743A99
:104210003A756E77726170282960206F6E20616E2A
:104220002060457272602076616C7565F30E00083F
:104230000100000001000000271800082F686F6DC2
:10424000652F61726E6F2F2E636172676F2F7265BB
:104250006769737472792F7372632F6769746875F5
:10426000622E636F6D2D3165636336323939646256
:104270003965633832332F73746D33326631787831
:104280002D68616C2D302E31302E302F7372632FDC
:104290006770696F2E7273003C4200085B0000007B
:1042A000130400003A0000000000000000000000BD
:1042B000617474656D707420746F2061646420771C
:1042C000697468206F766572666C6F773C4200088F
:1042D0005B00000013040000350000000000000037
:1042E000617474656D707420746F2073686966748E
:1042F000206C6566742077697468206F76657266D5
:104300006C6F77003C4200085B0000002802000050
:10431000410000003C4200085B0000002802000051
:104320003C0000007372632F6D61696E2E72730022
:10433000244300080B000000310000001F000000B3
:104340002F686F6D652F61726E6F2F2E63617267BC
:104350006F2F72656769737472792F7372632F6739
:1043600069746875622E636F6D2D316563633632D3
:10437000393964623965633832332F73746D33327F
:10438000663178782D68616C2D302E31302E302FCB
:104390007372632F74696D65722F636F756E7465C8
:1043A000722E72734043000864000000AA000000EF
:1043B00022000000000000000000000000000000DB
:1043C000617474656D707420746F2073756274729B
:1043D0006163742077697468206F766572666C6FAC
:1043E000770000004043000864000000AA000000BD
:1043F000090000007468657265206973206E6F2083
:1044000073756368207468696E672061732061202A
:1044100072656C6178656420636F6D70696C65723C
:104420002066656E63650000F443000832000000FA
:104430002F72757374632F3639663963333364377B
:104440003163383731666331366163343435323144
:104450003132383163366537613334303934332F94
:104460006C6962726172792F636F72652F73726308
:104470002F73796E632F61746F6D69632E72730091
:10448000304400084F000000590D000018000000E3
:10449000696E76616C69642061726773904400088C
:1044A0000C0000002F72757374632F363966396300
:1044B000333364373163383731666331366163349F
:1044C0003435323131323831633665376133343027
:1044D0003934332F6C6962726172792F636F726540
:1044E0002F7372632F666D742F6D6F642E7273005D
:1044F000A44400084B0000008C0100000D000000E7
:104500002F686F6D652F61726E6F2F2E63617267FA
:104510006F2F72656769737472792F7372632F6777
:1045200069746875622E636F6D2D31656363363211
:10453000393964623965633832332F667567697457
:104540002D302E332E362F7372632F726174652EC9
:104550007273000000450008520000000D020000C8
:10456000010000000000000000000000000000004A
:10457000617474656D707420746F206D756C7469EE
:10458000706C792077697468206F766572666C6FDD
:1045900077696E7465726E616C206572726F723AC3
:1045A00020656E746572656420756E7265616368FE
:1045B00061626C6520636F64652F686F6D652F6144
:1045C000726E6F2F2E636172676F2F7265676973EA
:1045D0007472792F7372632F6769746875622E63C2
:1045E0006F6D2D31656363363239396462396563C5
:1045F0003832332F73746D3332663178782D6861B9
:104600006C2D302E31302E302F7372632F6770690E
:104610006F2E7273B94500085B000000B304000000
:104620001200000063616C6C6564206052657375F4
:104630006C743A3A756E77726170282960206F6EDB
:1046400020616E2060457272602076616C75650035
:104650009D1500080000000001000000B13E0008A8
:1046600057726F6E674175746F52656C6F61644409
:10467000697361626C65642F686F6D652F61726E1E
:104680006F2F2E636172676F2F7265676973747223
:10469000792F7372632F6769746875622E636F6D0B
:1046A0002D31656363363239396462396563383276
:1046B000332F73746D3332663178782D68616C2DC9
:1046C000302E31302E302F7372632F7263632E724F
:1046D0007300000000000000000000000000000067
:1046E000617474656D707420746F206D756C74697D
:1046F000706C792077697468206F766572666C6F6C
:1047000077000000774600085A00000072010000A0
:1047100019000000774600085A0000002B02000034
:104720000D0000000000000000000000000000007C
:10473000617474656D707420746F20646976696447
:1047400065206279207A65726F0000007746000864
:104750005A000000410200001300000000000000A9
:10476000617474656D707420746F207375627472F7
:104770006163742077697468206F766572666C6F08
:1047800077000000774600085A0000004102000050
:1047900026000000774600085A000000450200008D
:1047A00013000000774600085A0000005502000080
:1047B0001C000000774600085A0000005502000067
:1047C00016000000000000000000000000000000D3
:1047D000617474656D707420746F20736869667499
:1047E000206C6566742077697468206F76657266E0
:1047F0006C6F7700774600085A00000055020000F1
:104800000D000000774600085A0000005702000023
:104810001C000000774600085A0000005702000004
:1048200016000000774600085A00000057020000FA
:104830000D000000774600085A00000061020000E9
:104840002100000000000000000000000000000047
:10485000617474656D707420746F20616464207776
:10486000697468206F766572666C6F7777460008AA
:104870005A00000061020000200000007746000896
:104880005A0000006A02000013000000774600088A
:104890005A000000750200001A0000007746000868
:1048A0005A0000007502000015000000774600085D
:1048B0005A0000007602000015000000774600084C
:1048C0005A00000080020000130000007746000834
:1048D0005A0000009F0200001900000077460008FF
:1048E0005A0000009F0200000D00000077460008FB
:1048F0005A000000A70200001C00000077460008D4
:104900005A000000A70200001600000077460008C9
:104910005A000000A70200000D00000077460008C2
:104920005A000000A90200001C00000077460008A1
:104930005A000000A9020000160000007746000897
:104940005A000000A90200000D0000007746000890
:104950005A000000AC0200001A0000007746000870
:104960005A000000AC020000150000007746000865
:104970005A000000AD020000150000007746000854
:104980005A000000AF0200001A000000774600083D
:104990005A000000AF020000150000007746000832
:1049A0005A000000B0020000150000007746000821
:1049B0005A000000B2020000140000007746000810
:1049C0005A000000B3020000160000006173736516
:1049D0007274696F6E206661696C65643A207379E0
:1049E00073636C6B203C3D2037325F3030305F307A
:1049F00030302026262068636C6B203C3D20373207
:104A00005F3030305F3030302026262070636C6B92
:104A100031203C3D2033365F3030305F3030302045
:104A200026265C6E202020202020202070636C6BC6
:104A300032203C3D2037325F3030305F3030302024
:104A4000262620616463636C6B203C3D2031345F1B
:104A50003030305F30303000774600085A000000B8
:104A6000BD0200000900000000000000000000007E
:104A7000617474656D707420746F206D756C7469E9
:104A8000706C792077697468206F766572666C6FD8
:104A90007700000000000040FFFF0F400000000012
:104AA000617373657274696F6E206661696C6564A9
:104AB0003A2028504552495F414444524553535F80
:104AC00053544152542E2E3D504552495F41444467
:104AD000524553535F454E44292E636F6E7461698E
:104AE0006E73282661646472292F686F6D652F616B
:104AF000726E6F2F2E636172676F2F7265676973B5
:104B00007472792F7372632F6769746875622E638C
:104B10006F6D2D316563633632393964623965638F
:104B20003832332F73746D3332663178782D686183
:104B30006C2D302E31302E302F7372632F62622E27
:104B400072730000E94A0008590000002D000000BF
:104B500005000000617373657274696F6E20666191
:104B6000696C65643A20626974203C20333200002D
:104B7000E94A0008590000002E000000050000006E
:104B8000E94A000859000000310000002900000037
:104B9000617474656D707420746F207375627472C3
:104BA0006163742077697468206F766572666C6FD4
:104BB00077000000E94A00085900000031000000B9
:104BC00013000000000000000000000000000000D2
:104BD000617474656D707420746F206164642077F3
:104BE000697468206F766572666C6F77E94A0008B1
:104BF00059000000310000004D00000029000000B5
:104C00006C6962726172792F636F72652F73726360
:104C10002F736C6963652F6D656D6368722E727397
:104C200020202020552F0008000000000100000077
:104C3000572F00083A200000FC4B0008000000003D
:104C4000344C000802000000552F00080C00000042
:104C5000040000000B30000849320008DB32000875
:104C60002C0A2C20280A282C3030303130323033B6
:104C7000303430353036303730383039313031310A
:104C800031323133313431353136313731383139F0
:104C900032303231323232333234323532363237E8
:104CA00032383239333033313332333333343335CE
:104CB00033363337333833393430343134323433B4
:104CC000343434353436343734383439353035319A
:104CD0003532353335343535353635373538353980
:104CE0003630363136323633363436353636363778
:104CF000363836393730373137323733373437355E
:104D00003736373737383739383038313832383343
:104D10003834383538363837383838393930393129
:104D2000393239333934393539363937393839390F
:104D3000552F00080400000004000000093300089B
:104D40000F330008A333000828290000004C000896
:104D500020000000680000002700000072616E67FC
:104D60006520737461727420696E64657820206FA9
:104D70007574206F662072616E676520666F7220A1
:104D8000736C696365206F66206C656E677468205C
:104D90005C4D0008120000006E4D0008220000006B
:104DA00054727946726F6D496E744572726F7200FB
:104DB000552F000804000000040000003F400008D8
:0400000508000131BD
:00000001FF
