:020000040800F2
:10000000005000203101000837810008D197000816
:1000100037810008378100083781000800000000A0
:100020000000000000000000000000003781000810
:1000300037810008000000003781000835170008EC
:1000400037810008378100083781000837810008B0
:1000500037810008378100083781000837810008A0
:100060003781000837810008378100083781000890
:100070003781000837810008378100083781000880
:100080003781000837810008378100080000000030
:1000900000000000000000000000000037810008A0
:1000A0003781000837810008378100083781000850
:1000B0001B170008378100083781000837810008C6
:1000C0003781000837810008378100083781000830
:1000D0003781000837810008378100083781000820
:1000E0003781000837810008378100083781000810
:1000F0003781000837810008000000000000000080
:1001000037810008000000003781000837810008AF
:1001100037810008378100083781000837810008DF
:1001200037810008378100083781000837810008CF
:1001300008F003F8084809490022814201D004C0B0
:10014000FBE707480749084A814202D008CA08C0AD
:10015000FAE703F0E5FD00DE20000020880400201F
:10016000000000202000002010B400088BB0049094
:10017000059106900791089009900A9102900391C9
:100180000299039800910190009801990BB0704773
:1001900084B0009001910078029009780391401A90
:1001A000B0FA80F0400904B0704780B56F4682B065
:1001B00007F02DFF0190C00720B9FFE7002007F8E6
:1001C000050C03E0012007F8050CFFE717F8050C04
:1001D00002B080BD80B56F4682B007F8010C49F2CD
:1001E000F071C0F60001781EFFF7D2FF02B080BDAB
:1001F00084B0009001910078029009780391401A30
:10020000B0FA80F0400904B0704784B000900191CA
:100210000078029009780391401AB0FA80F0400902
:1002200004B0704780B56F4684B00190029105F02C
:100230009CFB04B080BD8AB00090019102920391B2
:100240000492059106900791089008440990099836
:100250000AB070478AB00090019102920391049213
:1002600005910690079108900844099009980AB0F2
:1002700070478AB000900191029203910492059117
:1002800006900791089000EB400001EBC000099038
:1002900009980AB070478AB00090019102920391C8
:1002A00004920591069007910890084409900998D6
:1002B0000AB070478AB000900191029203910492B3
:1002C00005910690079108900844099009980AB092
:1002D00070478AB0009001910292039104920591B7
:1002E000069007910890099109980AB070478AB062
:1002F000009001910292039104920591069007915A
:10030000089000EB400001EBC000099009980AB08A
:10031000704740F28541C2F2000101200870704729
:1003200080B56F468CB013460193049007F81B1CF0
:1003300007F81A2C07F8211C17F8210C07F8190CDC
:10034000011F0291042818D3FFE7029807F80D0C4B
:10035000C2B24EF61850CEF200000C2100F049F95E
:1003600001990690079007F80E1C099007F8051CE4
:100370000B9007F039FE0CB080BD49F66000C0F666
:10038000000049F65002C0F60002212107F01DFFCF
:10039000FEDE80B56F4688B00090019107904EF266
:1003A0001400CEF200000290039104900591069093
:1003B00007F021FE08B080BD80B56F4686B0019081
:1003C00005904EF21000CEF20000029003900490CF
:1003D00007F003FEC0F3004006B080BD80B56F4655
:1003E00088B0019007904EF21800CEF20000029003
:1003F0000021039104900591069007F0FCFD08B0E0
:1004000080BD80B56F468AB0019009904EF2100011
:10041000CEF20000009003900490059007F0DDFDFF
:100420000290029807F0D3FD0146009806900791CC
:10043000089007F0E0FD0AB080BD80B56F468AB035
:10044000019009904EF21000CEF20000009003904F
:100450000490059007F0C1FD0290029807F0B1FDED
:100460000146009806900791089007F0C4FD0AB075
:1004700080BD80B56F468AB0019009904EF21000A1
:10048000CEF20000009003900490059007F0A5FDC7
:100490000290029807F0D7FA01460098069007915B
:1004A000089007F0A8FD0AB080BD80B56F4696B0F1
:1004B000039007F8451C059017F8450CC007C0B914
:1004C000FFE7039814904EF21000CEF20000029065
:1004D00007900C900D9007F080FD0690069807F0AD
:1004E000B8FA0146029811901291139007F083FD1B
:1004F00017E0039815904EF21000CEF20000019024
:1005000009900A900B9007F068FD0890089807F092
:10051000A6FA014601980E900F91109007F06BFD1E
:10052000FFE716B080BD80B56F468AB00190099094
:100530004EF21000CEF2000000900390049005905F
:1005400007F04BFD0290029807F08FFA01460098E1
:1005500006900791089007F04EFD0AB080BD80B567
:100560006F4684B0019007F8051C039004F0AAFFC1
:1005700004B080BD80B56F4684B00090019107F84B
:10058000052C039005F046F804B080BD80B56F4699
:1005900084B000920A4601460098019102920390AD
:1005A000FFF797FE04B080BD80B56F4682B0019022
:1005B00000F002F802B080BD80B56F4684B00190B3
:1005C0000290082103918168FFF7D0FD04B080BD3F
:1005D00080B56F4684B0019001F0F9FF01990020C9
:1005E0000390029088600298039A4A60086004B001
:1005F00080BD80B56F4684B000920A4601460098DF
:10060000019102920390FFF716FE04B080BD80B501
:100610006F4684B001900291039200F01FF8C0B2BF
:1006200004B080BD80B56F4682B00090019043F663
:100630000C00C4F2000000F0C7FD02B080BD80B520
:100640006F4684B0019007F8051C039043F60C0038
:10065000C4F2000007F0C8FC04B080BD80B56F464E
:10066000C2B001920A460199029202460298039290
:100670000E920F90109104F031F805900691FFE76B
:1006800005A804F0D5F90790079850BBFFE7039839
:10069000149043F60800C4F200002390269027909F
:1006A00007F09BFC229022982590249024980A9091
:1006B0000AA839903A909DF82800C0F3400007F846
:1006C000190C07F81A0C17F81A0C07F8D90CA7F12F
:1006D000D9002E90359017F8D90CC007002855D1B5
:1006E000D5E7079800901190FFE70398159043F61F
:1006F0000800C4F2000029902C902D9007F06DFCAA
:10070000289028982B902A902A98089008A83C9026
:100710003D909DF82000C0F3400007F80D0C07F84D
:100720000E0C17F80E0C07F8E20CA7F1E2002F9060
:10073000349017F8E20CC0070028D6D0FFE70398E2
:1007400000990978FFF77BFF08A83F9040909DF83B
:100750002000C0F3401007F8010C07F8020C17F84E
:10076000020C07F8E10CA7F1E1003090339017F884
:10077000E10CC00700283FF483AFFFE7012007F832
:10078000F50CFFE717F8F50C42B080BD0398139005
:1007900043F60800C4F200001D902090219007F05D
:1007A0001CFC1C901C981F901E901E980C900CA86E
:1007B000369037909DF83000C00907F8250C07F8EF
:1007C000260C17F8260C07F8D10CA7F1D1003190B0
:1007D000329017F8D10CC0070028D7D1FFE7039853
:1007E000FFF720FF0398129043F60800C4F20000C0
:1007F00017901A901B9007F0F0FB1690169819901E
:100800001890032007F8F50CBCE780B56F46AAB036
:10081000059306928DF824008DF825100F9241F271
:100820000000C4F2020002901090129006F00EF840
:100830000E21039107F035F90298119006F00BF89C
:10084000039900F074FD029806F005F8039900F092
:1008500079FD08A8149043F60400C4F20000049047
:1008600018900020179017981A90199019981690C0
:1008700016A81590159800F0A1F80146049809688B
:100880001B901C911D9007F0B6FB059803F061F9D1
:10089000069905F047FC0146079160B9FFE749F664
:1008A0008100C0F6000049F60412C0F600022821BB
:1008B00007F08BFCFEDE079820B9FFE707980228B7
:1008C00038D833E007980228F8D8FFE7002007F867
:1008D0007D0CFFE708A8139009A9481C0B910C9008
:1008E000A7F17D000D9043F60000C4F200000190D6
:1008F00024900B980C990D9A20921F911E90002025
:1009000023902398269025902598229022A8219024
:1009100021991EA800F06BF80146019809682790FC
:100920002891299007F067FB2AB080BD0798052819
:100930000CD807E007980528F8D8FFE7012007F84A
:100940007D0CC7E707980B280CD807E007980B2801
:10095000F8D8FFE7022007F87D0CBBE707981728B7
:100960000CD807E007981728F8D8FFE7032007F806
:100970007D0CAFE707982F280CD807E007982F28A1
:10098000F8D8FFE7042007F87D0CA3E707985F2855
:100990000CD807E007985F28F8D8FFE7052007F88C
:1009A0007D0C97E7072007F87D0C93E70798BF2891
:1009B000F8D8FFE7062007F87D0C8BE78BB0019095
:1009C00008900A90099009980390049000218DF8EE
:1009D000161004980690006820F004008DF8171097
:1009E000049907910860049802900BB0704780B595
:1009F0006F46DEB0049007914C914E914D914D9908
:100A00000191406849F61411C0F600010291FFF708
:100A1000EFFB019A0299844604980D928DF83AC032
:100A20000D9A0F92126822F001028DF83BC00D9BC7
:100A3000109362441A600D9A4F9251925092509ABC
:100A400003920068FFF7E1FB0399034604980991BC
:100A50008DF82A3009990B91096821F002018DF86F
:100A60002B30099A0C9241EA430111600999529185
:100A70005491539153991B911C91012205928DF829
:100A800076201C991E9109688DF877201C9A1F9278
:100A900041F0040111601C993D913F913E913E99B6
:100AA00080680078399107F88D0C39993B91096875
:100AB00021F03801069105F017FA059902460698CB
:100AC00002F00703399A3C9240EAC300106039985B
:100AD0005B905D905C905C9825902690002207F8D2
:100AE000DA2C26982890006820F0800007F8D92C8E
:100AF000269B29931860269849904B904A904A98D3
:100B0000119012908DF84E101298149000688DF884
:100B10004F10129B159340F4007018601298469085
:100B2000489047904798169017908DF86210179844
:100B3000199000688DF86310179B1A9340F4807029
:100B40001860179840904290419041982A902B90BD
:100B500007F8C62C2B982D90006820F4006007F849
:100B6000C52C2B9B2E9318602B9858905A90599017
:100B700059982F90309007F8B22C30983290006836
:100B800020F4004007F8B12C309B33931860309864
:100B900055905790569056983490359007F89E2C63
:100BA00035983790006820F4806007F89D2C359ABE
:100BB0003892106035984390459044904498209026
:100BC000219007F8EE1C21982390006807F8ED1C8F
:100BD0002199249140F040000860219808905EB06F
:100BE00080BDF0B503AF2DE900078AB09E468DF8B1
:100BF00020008DF8211009926B469C469EE87007F4
:100C00008CE87007FFF701FE0AB0BDE80007F0BDF1
:100C100080B56F46CCB009910B901B9105F07DFA21
:100C2000014609980A460A921C9102F08AFF0F9029
:100C30000FA805F054FB01460B980C9100680D902D
:100C400048B1FFE70C980D99B0FBF1F00E900E98AB
:100C5000102864D30BE049F69010C0F6000049F666
:100C60007412C0F60002192107F0AFFAFEDE0A98EE
:100C700000F1080104910EA8169016982091219079
:100C800000211F911F992391229122991E911EA943
:100C90001D911D9900F042F90146049809682490BD
:100CA0002591269007F0A7F90A980B990C30079028
:100CB0008A1D053117921891179A06921899059175
:100CC0002D902E922F913590369007F086F9059948
:100CD0000246069830922A922A9B32933193319B96
:100CE00029932C922C9A34923392339A2B9229AADC
:100CF00027922BAA2892279A289B00F068F8014691
:100D00000798096837903891399007F074F90B9873
:100D1000007908900899DFE801F01B1F2327694636
:100D20000020086049F6C011C0F6000149F6C8135A
:100D3000C0F6000310A80390012203F0A0FB039863
:100D400049F6C811C0F6000107F029FAFEDEFEDE02
:100D5000002007F8C90C0BE0012007F8C90C07E0D8
:100D6000022007F8C90C03E0032007F8C90CFFE7CD
:100D70000A9810300290A7F1C9011A911A990191AD
:100D8000409041914790489007F027F9014601981B
:100D900042913D913D9A44924392439A3C923F91B5
:100DA0003F994691459145993E913CA93A913EA97A
:100DB0003B913A993B9A00F08DF8014602980968F8
:100DC00049904A914B9007F016F94CB080BD80B520
:100DD0006F46A2B00393059006910892099315936C
:100DE000179316931698049005980078C00720B9B9
:100DF000FFE7002007F86B0C03E0012007F86B0CFD
:100E0000FFE70398049917F86B3C0D9107F84E3CE7
:100E10000D990F91096821F4805107F84D3C0D9A06
:100E20001F9241EA0331116018901A901990199895
:100E3000029006980078022804D1FFE7012007F805
:100E40006A0C03E0002007F86A0CFFE7029917F824
:100E50006A0C109107F8410C03F006FB0299034657
:100E60000398129107F83A3C12991491096821F4F9
:100E7000007107F8393C129A1E9241EA4321116031
:100E80001B901D901C901C9801900698007820B92A
:100E9000FFE7012007F8690C03E0002007F8690C60
:100EA000FFE70398019917F8692C0A91012121EABB
:100EB000020307F85A3C0A990C91096821F48061F1
:100EC00007F8593C0A9A209241EA83211160219047
:100ED00022B080BD80B56F468CB001900291039224
:100EE000079209920892089901980078049107F8EE
:100EF000190C04990691096821F44051009104F0FD
:100F0000F3FF0146009801F0030204990A9140EAB8
:100F10000230086004980B900CB080BD88B000913E
:100F2000014600980191029001990968039004918B
:100F3000059006910160079008B0704780B56F4634
:100F400082B0009007F8011CC9B200F002F802B0AC
:100F500080BD80B56F469EB0ADF81010079005F0CB
:100F6000DCF80146039108900A900D900E9007F06E
:100F700034F8099009980C900B900B98059005A8EF
:100F80001B901C909DF81400C00907F8010C07F88D
:100F9000020C17F8020C07F8650CA7F16500199010
:100FA0001A9017F8650CC00720B9FFE7012007F871
:100FB000660C20E00398011D019104A80690069894
:100FC0001291139000210291119111991591149190
:100FD0001499109110A90F910F9900F010F8014683
:100FE0000198096816901791189007F004F8029874
:100FF00007F8660CFFE717F8660C1EB080BD80B5D9
:101000006F468CB00290039107910991089108995D
:1010100002980088049127F81A0C0499069109682F
:10102000019104F059FF0246019804990A9162F374
:101030000800086004980B900CB080BD80B56F4626
:10104000A6B00592039102900F90109241F2000019
:10105000C4F2020000901190139005F001FC0E21E3
:10106000019106F013FD0098129005F0FEFB019926
:1010700006F022FD009805F0F8FB019906F0FBFC54
:10108000029802F0B0FC0399086849680C910B9033
:1010900009A804900BA900F08AF804980599FFF7B5
:1010A000B7FD07A8149043F60C00C4F201000690A7
:1010B0001B902190229006F090FF1C901890189998
:1010C0001E911D911D9917911A901A9820901F90AA
:1010D0001F98199017A8159019A816901598169989
:1010E00000F00AF80146069809682390249125909B
:1010F00006F081FF26B080BD9DB0009101460098AA
:1011000002910390169018901790179904910591E9
:1011100001228DF81A200599079109688DF81B2086
:10112000059B1B9341F40051196013901590149086
:101130001499089109918DF82A2009990B91096851
:101140008DF82B20099B1A9341F00801196010902B
:101150001290119011990C910D918DF83A200D99E2
:101160000F9109688DF83B200D9A199241F0040106
:1011700011601C901DB0704781B001B070478AB0FB
:101180000190029106910891079107980390002120
:101190008DF8121003980590006820F004008DF877
:1011A000131003990991086003980AB0704782B040
:1011B0000A46014610685268019200900098019A10
:1011C0004A60086002B0704782B0009000788DF8E5
:1011D00007009DF8070002B0704791B08C460146A9
:1011E000CDF830C0CDF834C068460E900F90102076
:1011F0001090DCF80000DCF80420DCF80830DCF8A3
:101200000CC0CDF80CC00293019200900098019A96
:10121000029BDDF80CC0CDF81CC00693059204902B
:101220000498059A069BDDF81CC0CDF82CC00A93E3
:10123000099208900898099A0A9BDDF82CC0C1F819
:101240000CC08B604A60086011B0704783B000909A
:10125000019001684068401A0290029803B07047FC
:1012600080B56F4686B00090684601F08FF818B9D7
:10127000FFE7002001900BE0009A039210680490B1
:10128000411C059105991160029001200190FFE732
:101290000198029906B080BD81B08DF800009DF8DC
:1012A00000008DF802008DF803008DF801009DF814
:1012B000010001B0704780B56F4684B0019107F816
:1012C000060C17F8060C022802D1FFE704B080BD17
:1012D000019817F8061C07F8051C6946086049F6CE
:1012E000D810C0F6000049F60423C0F600032B21F5
:1012F0007A1F06F0A1FFFEDE82B08DF801009DF896
:101300000100022804D1FFE702208DF802000AE064
:101310009DF801008DF807008DF803009DF803008B
:101320008DF80200FFE79DF8020002B0704780B51B
:101330006F4682B0009007F8011C012200F00DF802
:1013400002B080BD80B56F4682B0009007F8011CE6
:10135000002200F002F802B080BD80B56F468EB06A
:10136000134606930B460793099007F80E1C07F8DF
:101370000D2C089049F61420C0F6000008A906F0CC
:1013800046FB28B1FFE70798C0B21F2819D80BE029
:1013900049F62020C0F6000049F6C422C0F600023B
:1013A000492106F012FFFEDE0798C0B20146049103
:1013B0000B90089800F140410591B0F1804F12D395
:1013C0000BE049F6D420C0F6000049F6F022C0F642
:1013D00000021A2106F0F9FEFEDE05984101C00E5A
:1013E0000391A0B90BE049F61030C0F6000049F6B1
:1013F0000032C0F60002212106F0E7FEFEDE03996E
:1014000001F1844002460292884212D30BE049F671
:101410004030C0F6000049F60032C0F6000221213B
:1014200006F0D3FEFEDE04988100800F0191A0B982
:101430000BE049F68030C0F6000049F66432C0F691
:1014400000021C2106F0C1FEFEDE0299019808444C
:1014500002460092884217D30BE049F64030C0F6AE
:10146000000049F69C32C0F60002212106F0ADFED4
:10147000FEDE009806990C9001F0010107F8011CAE
:1014800006F0B9FD0EB080BD49F68030C0F6000010
:1014900049F66432C0F600021C2106F096FEFEDE1C
:1014A00080B56F4684B00290039100F073F807F89E
:1014B000090C17F8090C022807D0FFE717F8090CE8
:1014C0000130C0B2022804D3FFE7002007F80A0C5D
:1014D00003E0012007F80A0CFFE717F80A0C04B034
:1014E00080BD80B56F4686B0009101900591049053
:1014F00005F03FF905F03EF900990198039102903B
:101500000298039906B080BD92B09C46CDF80CC0FD
:101510009446CDF810C08C46CDF814C08446CDF862
:1015200018C0099108900B930A9259405040084303
:1015300098B1FFE70598039A0699049B0E910F90C6
:1015400011921093C91A90410A46019202460292E2
:101550000D900C91002811D407E000208DF81F0099
:10156000FFE79DF81F0012B0704702980199B1F192
:10157000FF316FF00041884108D303E0FF208DF870
:101580001F00EEE700208DF81F00EAE701208DF82C
:101590001F00E6E780B56F4684B00B460146029116
:1015A0000393086849681A685B68FFF7ADFF07F89E
:1015B000090C17F8090C04B080BD80B56F4688B0DF
:1015C0000092019002910692012007F8090C0198FF
:1015D00020B9FFE700208DF80C000FE00098029979
:1015E0000791002207F8092C0491049900F012F9E0
:1015F0008DF80D0001208DF80C00FFE717F8090C9D
:10160000C00730B9FFE79DF80C009DF80D1008B039
:1016100080BDF8E780B56F4688B0009201900291D6
:101620000692012007F8090C019818B9FFE700207D
:1016300003900BE0009802990791002207F8092C0B
:101640000491049902F05BFC0390FFE717F8090C82
:10165000C00718B9FFE7039808B080BDFBE780B565
:101660006F468CB00390012007F8090C039820B94D
:10167000FFE700200590049014E003980B900021F0
:10168000019107F8091C0890089802F0F9FC02463D
:10169000019802920A46029907920691059001204C
:1016A0000490FFE717F8090CC00730B9FFE704986A
:1016B0000599069A079B0CB080BDF8E784B00090AE
:1016C0000290006818B9FFE70020019004E000983C
:1016D000083003900190FFE7019804B0704780B58F
:1016E0006F4684B0019002912A2007F8010CFFE7B1
:1016F000422007F8020C0198B91E0122FEF787FF6D
:1017000002982A21FFF71AFCF2E780B56F4682B0F3
:10171000019002F094F902B080BD80B56F4682B0AE
:10172000012007F8010C02F00DFF002002F08CF9F7
:1017300002B080BD80B56F4684B0FFE700F032FC98
:101740008DF801108DF800009DF80000C00790B1E1
:10175000FFE79DF8010007F80D0CA7F10D000190BF
:10176000019800F064FC1C2027F8060C37F8060CE2
:1017700000F000FFE2E700F03FFC04B080BD80B560
:101780006F468CB00246029203921023049302F13A
:10179000100005900690116902F11400079050693D
:1017A000009101900098019900F0CAFD08900991FC
:1017B0000A900B910CB080BD80B56F4690B0009040
:1017C00001A800F05CFE009910200F900022059205
:1017D00006900198029A039BDDF810C0C1F80CC076
:1017E0008B604A600860059A06980A61486110B0EB
:1017F00080BD80B56F4684B0019003901030FFF734
:101800002FFD019A0292029AFFF7D7FE00F0010025
:1018100004B080BD80B56F468EB00191014601983D
:101820000291049002990591102206920790FEF70A
:1018300011FD089009900A900B90A7F129010C91D5
:10184000007807F8290C17F8290C07F8020C07F89C
:10185000010C0EB080BD83B08DF8030001918DF8AE
:1018600009008DF80A1008448DF80B009DF80B0054
:1018700003B0704780B56F4684B0009007F8091C2C
:1018800040F22000C2F200000290039000F06DFAD6
:1018900004B080BD80B56F4682B000F002F802B09F
:1018A00080BDF0B503AF2DE9000BADF5627D02F010
:1018B0006AF901F046F804F043FB3DA8029004F0F9
:1018C00042FB029967A80390B1E83C50A0E83C5065
:1018D00091E83C5080E83C50182000F0E0FCD290A9
:1018E000D2A804F0FCFC0399D49001201290D3906C
:1018F000D39AD498679268905BA80490B1E83C5062
:10190000A0E83C5091E83C5080E83C500C2000F0AE
:10191000C6FCCF90CFA804F0E2FC049902461298CE
:10192000D192D090D09AD198639264904FAA1046E9
:10193000B1E87850A0E8785091E8785080E8785085
:101940003CA80590CE90BEA90846B2E87850A0E821
:10195000785092E8785080E87850BAA805F036FAC6
:10196000059ABA98BB99BC9BDDF8F4C2CDF834C394
:10197000CC93CB91CA9049A80E90CAA904F07AFFE3
:1019800041F60030C0F2B70000F0DCFB0A460692D8
:1019900002460792B791B69004F0AEFA8DF8CF01E7
:1019A00004F0FEFA04F03BFB04F078FB00201190F9
:1019B0008DF8DD019DF8DD1175A8089001F0ACFDF2
:1019C000089812998DF8DE119DF8DE1101F054FD92
:1019D00077A801F0B2FF12988DF8DF019DF8DF11B2
:1019E00076A801F0F9FC089801F0EAFC089801F0EB
:1019F000CFFC129800F053FCDDF838C01299024673
:101A000078AB18469CE8704380E870430846FFF7BF
:101A1000E8F81199129A40F24800C2F200000990C9
:101A2000D79002F0E4F909981199D690B990DA911B
:101A3000DA9ADB92D992D99AD892D89A7F9249F6BB
:101A4000AC33C0F60003DC930922DD92DE93DF9213
:101A5000DE9ADF9BE092E1937F92809180917F9963
:101A6000809A40F27803C2F20003D593EE464FF419
:101A7000806CCEF800C018300A9003F088F80998FE
:101A8000119A129903F04CF80A9803F0D0FF819054
:101A900081987E907E9804F0D2F90E9802F049F871
:101AA000129800F05BFA014682A80B9002F05BFBF3
:101AB000C0B249F6C031C0F60001FFF7FCFB0B983D
:101AC00002F0CEFC129900F0A8FD74A801F06CFCA5
:101AD00085A80C9006F05FFA4FF4614006F06BFAAF
:101AE0000C99024683A80D9006F048FA0D990E9ABB
:101AF0000DF2CF10FFF7A2FAFFF73EFB87A80F9079
:101B0000FEF766FD0F98FEF74FFD49F6D032C0F69E
:101B10000002FEF787FB10900A4610998AA802F08F
:101B200050FE8A988B998C9A9292919190908DA860
:101B300090A900F00DFF119912988DF866128DF89A
:101B400067128DF868128DF869128DF86A128DF897
:101B50006B128DF862028DF86302BDF86A02ADF86F
:101B60006002DDF86602979093A897A900F017FC31
:101B700093989499959A969BA493A392A291A190DD
:101B80009BA81390A1A9FFF717FE1399A5A891E8A8
:101B90003C5080E83C50FFE7A5A8FFF72AFE8DF8EF
:101BA000AD128DF8AC029DF8AC02C007E0B1FFE7C2
:101BB0009DF8AD0207F8F10CA7F1F10002F060FE0C
:101BC000B290B39169460120086049F6E431C0F64D
:101BD0000001ACA801900222B2AB02F050FC0199C6
:101BE000002004F05DF8D7E7A5A800F0D8FC06991E
:101BF0000798B591B490B498B5993B913A9087A85D
:101C000000F0C5FC3A983B991591149040F2884039
:101C1000C2F20000369037901E901F9040F288402C
:101C2000C2F20000389039902490259040F288400C
:101C3000C2F20000349035902190229014A800F058
:101C40000FFB40F23801C2F2000132913391149837
:101C5000159A199218900020179001201690169B43
:101C6000DDF85CC01898199A2B91CDF8B4C02C936C
:101C70002F922E903191CDF89CC0269329922890D6
:101C80002698279A289BDDF8A4C0C1F80CC08B6069
:101C90004A60086000F048FA0DF5627DBDE8000B6F
:101CA000F0BD81B08DF801008DF802008DF80300C1
:101CB0008DF800009DF8000001B0704782B0ADF8CB
:101CC0000200ADF80400ADF80600ADF80000BDF864
:101CD000000002B0704780B56F468CB0039008904A
:101CE000002107F8131C17F8131CFEF738FC0146F7
:101CF000039805910A46049209910430022107F8DD
:101D0000121C17F8121CFEF72AFC0146059888429F
:101D100021D0FFE70398049A0830022100F002FB6B
:101D20000B9002F0FEFB01460498019107F8051C98
:101D300000F0BBF8014603980122029207F8112C2B
:101D400017F8112CFEF716FC019902988DF819105E
:101D50008DF8180003E000208DF81800FFE79DF8CB
:101D600018009DF819100CB080BD80B56F4682B088
:101D7000009007F8011C00F041F802B080BD80B56A
:101D80006F468EB001910090059007F81D1C04303D
:101D90000390002107F8261C17F8261CFEF7DFFB2E
:101DA00002460098029207920830022100F0BAFA27
:101DB0000199024602980D9207F8131C07F8121CAD
:101DC0008DF824109DF8241007F8151C17F8151C21
:101DD0000A9207F8091C0C9207F8111C17F8111C3D
:101DE000117000F062F801460398012207F8252CD3
:101DF00017F8252CFEF7BEFB0EB080BD80B56F46F0
:101E00008EB001910090059007F81D1C04300390DE
:101E1000002107F8261C17F8261CFEF7A0FB024637
:101E20000098029207920830022100F06DFA0199A1
:101E3000024602980D9207F8131C07F8121C8DF841
:101E400024109DF8241007F8151C17F8151C0A9289
:101E500007F8091C0C9207F8111C17F8111C1170D7
:101E600000F03FF801460398012207F8252C17F8E7
:101E7000252CFEF77FFB0EB080BD85B0049002904C
:101E8000039002980090039801900098019905B082
:101E9000704785B0049002900390029800900398D8
:101EA00001900098019905B0704780B56F4682B0E7
:101EB00001460191481C02460092884205D3FFE783
:101EC000009800F0010002B080BD49F66040C0F605
:101ED000000049F64C42C0F600021C2106F075F9DC
:101EE000FEDE80B56F4682B001460191481C024675
:101EF0000092884205D3FFE7009800F0010002B08D
:101F000080BD49F66040C0F6000049F64C42C0F67C
:101F100000021C2106F059F9FEDE80B56F4682B042
:101F200001900068FFF7D7FE00F0010002B080BD0D
:101F300080B56F4682B0009007F8011C0068FFF77B
:101F40001EFF02B080BD80B56F4682B0009007F8DA
:101F5000011C0068FFF752FF02B080BD80B56F46DC
:101F600082B0019000F002F802B080BD80B56F46EB
:101F700082B001904FF47A71A0FB0110009128B952
:101F8000FFE7009805F04CFD02B080BD49F6F04037
:101F9000C0F6000049F6D442C0F60002212106F046
:101FA00014F9FEDE80B56F4688B0FEF7FEF80190AA
:101FB00007F8050C00F0BDF806F02FF805A804900E
:101FC000049802F01DFB02460198134602930B464B
:101FD000039302F001028DF81C208DF81D10FEF70E
:101FE000F9F830B9FFE70399029800F0010008B052
:101FF00080BD00F099F8F6E780B56F4686B0FEF731
:10200000D4F8019007F8010C00F093F806F005F8F9
:1020100003A80290029802F036FB0198FEF7DAF866
:1020200010B9FFE706B080BD00F07EF8FAE780B592
:102030006F4688B001900690FEF7B7F8029007F857
:10204000010C00F076F805F0E8FF019804A903916F
:10205000039902F0FEFA0298FEF7BCF810B9FFE708
:1020600008B080BD00F060F8FAE780B56F4682B036
:10207000019000F031F800F0010002B080BD80B5A1
:102080006F4686B08DF804008DF80510FFE701A8B3
:10209000FFF7EBFF8DF80D108DF80C009DF80C008C
:1020A000C00760B1FFE79DF80D0007F8010C07F8C5
:1020B000090C17F8091C02A800F0DEF8E7E706B0E3
:1020C00080BD80B56F4684B08DF804008DF8051092
:1020D000FFF7D5FF04B080BD80B56F4686B0019094
:1020E0000390411C00F045FC20B9FFE700208DF86B
:1020F000080013E001980590007801210091FFF796
:10210000AAFB0146019807F8051C00F017FA0146E2
:1021100000988DF809108DF80800FFE79DF8080079
:102120009DF8091006B080BD80B56F4605F06BFFC5
:1021300080BD80B56F4605F064FF80BD81B0009022
:1021400001B0704780B56F468CB001460A9101F529
:10215000FA7002460492884211D3FFE7049844F6CD
:10216000D351C1F26201A0FB01014FF0FF3000EB3F
:10217000911003900020B0EB911F13D00BE049F6B3
:102180008050C0F6000049F67052C0F600021C21D3
:1021900006F01BF8FEDE03990B910020B0EB116FE7
:1021A0000FD10BE049F6A050C0F6000049F670527E
:1021B000C0F60002212106F008F8FEDE039820B3E5
:1021C0000BE049F6C150C0F6000049F6E852C0F6EF
:1021D0000002272105F0F9FFFEDE05A80190FEF7B9
:1021E0002CF901980021029107F8091C17F8091C25
:1021F000FEF75BF901980399FEF7CBF80298079078
:102200000690069807990CB080BD49F6F850C0F6C4
:10221000000049F61462C0F600021C2105F0D5FF4B
:10222000FEDE80B56F4686B000900190FEF7C4F8E0
:1022300038B9FFE7009908684968FFF752F906B016
:1022400080BD009908684A680392029000230593B4
:1022500001230493013042F100024A600860E9E77B
:1022600080B56F4682B000900190FEF7B7F80098F5
:10227000FEF7C7F802B080BD80B56F4684B002900B
:1022800007F8011C07F8091C17F8091CFFF7F2FAF8
:1022900004B080BD81B00090006801B0704780B587
:1022A0006F4682B0019000F002F802B080BD80B5A8
:1022B0006F4682B0019044F24021C0F20F01A0FBB2
:1022C0000110009128B9FFE7009804F035F802B03A
:1022D00080BD49F69060C0F6000049F67862C0F60D
:1022E0000002212105F071FFFEDE81B08DF80200B1
:1022F0008DF803008DF801009DF801008DF80000B5
:102300009DF8000001B0704780B56F4684B0009220
:102310000A4601460098019102920390FDF7BBFF27
:1023200004B080BD80B56F4684B000920A46014675
:102330000098019102920390FDF7BCFF04B080BDAC
:1023400097B00090019106920793089209930A9220
:1023500068460B9000990C910D920E9111440F91CB
:102360000F9910911190009A0198801A129012986A
:102370001390149115911690049105900499059865
:10238000029103900298039917B0704780B56F4689
:1023900082B001900068FEF759FF02B080BD80B5A1
:1023A0006F468AB00191014602910020C8608860A2
:1023B00048600860B52008706220487006200090D0
:1023C00088700120C8700820FFF778FC0199029AF4
:1023D000ADF81800BDF81800ADF80C009DF80C0021
:1023E00010719DF80D0050718879FFF75AFC019922
:1023F000029A07F80E0C17F80E0C07F81A0C17F8CB
:102400001A0C9071C879FFF74CFC009A01990346A9
:10241000029807F80D3C17F80D3C07F8193C17F81F
:10242000193CC371079108920A7802724A78427285
:102430008A788272CA78C2720A79027349794173C2
:10244000022104910E2105910499059A49F614730D
:10245000C0F6000302F0C1F902F04BF902460298FF
:1024600007F8022C07F8011C8273C1730AB080BD03
:1024700086B0019004906846059006B0704780B51C
:102480006F469AB0039104901791002020B9FFE79E
:10249000002000284BD117E069460020086049F66B
:1024A0005471C0F6000149F65C73C0F6000305A83C
:1024B0000290012201F0E3FF029849F6A871C0F6EC
:1024C000000105F06CFEFEDE0499DDF80CC0CDF8CD
:1024D00060C00BA81990DCF80000DCF80420DCF8E0
:1024E0000830DCF80CC0CDF838C00D930C920B907E
:1024F0000B980C9A0D9BDDF838C0CDF848C01193AD
:1025000010920F900F98109A119BDDF848C0CDF8EB
:1025100058C01593149213901398149A159BDDF8D4
:1025200058C0C1F80CC08B604A60086004E0039991
:102530000498FEF752FEFFE71AB080BD87B002464E
:1025400001928DF80B1003920DF1030004901078A6
:102550008DF803009DF803008DF815008DF8160026
:102560008DF8170006928DF802109DF80210117078
:1025700007B0704780B56F4682B027F8020C01F0B3
:102580003FFB02B080BD81B0009001B0704780B5C4
:102590006F4682B0019000F00AF802B080BD80B5AD
:1025A0006F4682B0019000F00AF802B080BD80B59D
:1025B0006F4682B00190FDF7FFFF02B080BD80B58D
:1025C0006F4682B00190FFF7DAF802B080BD704725
:1025D00080B56F468AB00390069041F20000C4F2C5
:1025E000020001900790099004F03AF90B21029142
:1025F00005F04CFA0198089004F037F9029905F0BB
:102600005BFA019804F031F9029905F034FA039964
:1026100004A800F040F80AB080BD80B56F469CB0B9
:102620000390049105910790012107F84D1C099032
:1026300005A806900699019142F60C40C4F20100EB
:102640000290109011911790189005F0C6FC014669
:10265000019812910D910D9A14921392139A0C9263
:102660000F910F991691159115990E910CA90A9138
:102670000EA90B910A990B9A00F024F901460298D1
:10268000096819901A911B9005F0B5FC1CB080BD2B
:1026900082B002B0704780B56F4696B00291014695
:1026A000029803910591069001F065FA049004A840
:1026B00003F015FE47F6D501C2F2E96148434FEA3F
:1026C000F00048F63711C0F24101884212D8FFE706
:1026D00004A803F004FE44F6D351C1F26201A0FB4A
:1026E0000102900907904FF0FF3101EB9211019127
:1026F000E0B30BE049F6B870C0F600004AF23C02C5
:10270000C0F60002272105F060FDFEDE019801F011
:102710007CF94AF28402C0F6000204F051F8014646
:10272000039827F8361C0A900B90A7F13600099001
:10273000099842F62841C4F2010100910F911090CE
:1027400000210E910E991291119111990D910DA9DF
:102750000C910C9900F016F8014600980968139046
:102760001491159005F047FC16B080BD4AF2600048
:10277000C0F600004AF24C02C0F60002212105F02A
:1027800024FDFEDE80B56F468CB002900391099166
:102790000B910A910A9902980088059127F8160C66
:1027A000059907910968019103F096FB024601988B
:1027B0000599089162F30F000860059804900CB029
:1027C00080BD8CB00190029109910B910A910A98F9
:1027D0000490059001218DF81A1005980790006863
:1027E0008DF81B100599089140F0010008600598CC
:1027F00003900CB070478CB00190029109910B913D
:102800000A910A980490059000218DF81A100598F5
:102810000790006820F004008DF81B1005990891BE
:102820000860059803900CB070478BB00190089039
:102830000A90099009980390049001218DF81610D0
:102840000498069000688DF817100499079140F0DD
:1028500001000860049802900BB070478CB00190A2
:10286000029109910B910A910A9804900590012117
:102870008DF81A100598079000688DF81B100599BF
:10288000089140F004000860059803900CB0704770
:102890008CB00190029109910B910A910A980490D1
:1028A000059000218DF81A1005980790006820F017
:1028B00001008DF81B100599089108600598039098
:1028C0000CB0704780B56F468CB0019202900391B6
:1028D000049205910691086800900298FFF7DAFCCF
:1028E00000990246019811430790089109900A91B6
:1028F00001600B900CB080BD80B56F4688B0009130
:10290000019002910198FFF7C5FC01460098C94368
:1029100089B204900591069007910160039008B078
:1029200080BD88B000910146009801910290019904
:10293000096804900591069007910160039008B022
:10294000704740F28441C2F20001012008707047D4
:1029500083B00B46014618685A689B68029301923F
:1029600000900098019A029B8B604A60086003B057
:10297000704783B000910146009801910290097858
:1029800002780020914238BF012003B0704780B523
:102990006F46B8B0059106900B900C9103F09EFE27
:1029A000014607910D90022007F8BD0C17F8BD0CE9
:1029B000022808D0FFE717F8BD0C07F8A50CC007E0
:1029C000002854D13AE00599069A0B20099009A8ED
:1029D0000A900A98029010921191129003F07EFED4
:1029E00002991390043004900F910F9903912C9049
:1029F0002D913390349005F0F0FA014603982E9112
:102A00002991299A30922F922F9A28922B912B99C3
:102A10003291319131992A9128A926912AA9279199
:102A20002699279A00F071FF0146049809683590AD
:102A30003691379005F0DFFA38B080BD0798103036
:102A40000190209000201F901F98229021902198A3
:102A50001E901EA81D901D9800F05AFC014601987A
:102A6000096823902491259005F0C5FAABE70798F3
:102A7000103000901790002016901698199018901A
:102A80001898159015A81490149800F0D2FB0146E0
:102A9000009809681A901B911C9005F0ACFA92E717
:102AA00080B56F46B8B0059106900B900C9103F07D
:102AB000DBFD014607910D90022007F8BD0C17F8C9
:102AC000BD0C022808D0FFE717F8BD0C07F8A50CCD
:102AD000C007002854D13AE00599069A0B200990C6
:102AE00009A80A900A98029010921191129003F08E
:102AF000BBFD02991390043004900F910F9903913C
:102B00002C902D913390349005F067FA014603988C
:102B10002E912991299A30922F922F9A28922B91B7
:102B20002B993291319131992A9128A926912AA97C
:102B300027912699279A00F088FE01460498096893
:102B400035903691379005F056FA38B080BD079829
:102B500010300190209000201F901F98229021900B
:102B600021981E901EA81D901D9800F045FA014660
:102B70000198096823902491259005F03CFAABE771
:102B80000798103000901790002016901698199012
:102B900018901898159015A81490149800F096FBAA
:102BA0000146009809681A901B911C9005F023FAC1
:102BB00092E780B56F46B8B0059106900B900C91E6
:102BC00003F052FD014607910D90022007F8BD0C5D
:102BD00017F8BD0C022808D0FFE717F8BD0C07F85E
:102BE000A50CC007002854D13AE00599069A0B209D
:102BF000099009A80A900A980290109211911290D7
:102C000003F032FD02991390043004900F910F9954
:102C100003912C902D913390349005F0DEF901460C
:102C200003982E912991299A30922F922F9A2892C7
:102C30002B912B993291319131992A9128A9269182
:102C40002AA927912699279A00F047FE0146049861
:102C5000096835903691379005F0CDF938B080BDD0
:102C60000798103001901790002016901698199030
:102C700018901898159015A81490149800F00AFA56
:102C80000146019809681A901B911C9005F0B3F950
:102C9000ABE7079810300090209000201F901F98FD
:102CA0002290219021981E901EA81D901D9800F042
:102CB000E5F901460098096823902491259005F0D4
:102CC0009AF992E780B56F46B8B0059106900B90DF
:102CD0000C9103F08FFC014607910D90022007F83C
:102CE000BD0C17F8BD0C022808D0FFE717F8BD0C83
:102CF00007F8A50CC007002854D13AE00599069AB8
:102D00000320099009A80A900A9802901092119144
:102D1000129003F06FFC02991390043004900F910D
:102D20000F9903912C902D913390349005F055F923
:102D3000014603982E912991299A30922F922F9A29
:102D400028922B912B993291319131992A9128A96E
:102D500026912AA927912699279A00F05EFD01461F
:102D60000498096835903691379005F044F938B0E9
:102D700080BD079810300190209000201F901F9870
:102D80002290219021981E901EA81D901D9800F061
:102D9000C2F901460198096823902491259005F015
:102DA0002AF9ABE707981030009017900020169092
:102DB0001698199018901898159015A814901498B2
:102DC00000F050F90146009809681A901B911C9078
:102DD00005F011F992E780B56F46B8B005910690FD
:102DE0000B900C9103F040FC014607910D900220DE
:102DF00007F8BD0C17F8BD0C022808D0FFE717F83C
:102E0000BD0C07F8A50CC007002854D13AE005997D
:102E1000069A0320099009A80A900A980290109235
:102E20001191129003F020FC029913900430049049
:102E30000F910F9903912C902D913390349005F0C0
:102E4000CCF8014603982E912991299A30922F921D
:102E50002F9A28922B912B993291319131992A9165
:102E600028A926912AA927912699279A00F01DFDC5
:102E700001460498096835903691379005F0BBF803
:102E800038B080BD079810300190209000201F902E
:102E90001F982290219021981E901EA81D901D9889
:102EA00000F06FF90146019809682390249125905C
:102EB00005F0A1F8ABE707981030009017900020BC
:102EC00016901698199018901898159015A81490A7
:102ED000149800F0A2F90146009809681A901B9115
:102EE0001C9005F088F892E780B56F46B8B0059160
:102EF00006900B900C9103F0B7FB014607910D90E3
:102F0000022007F8BD0C17F8BD0C022808D0FFE717
:102F100017F8BD0C07F8A50CC007002853D139E0FD
:102F20000599069A0320099009A80A900A98029028
:102F300010921191129003F097FB02990490139054
:102F40000F910F9903912C902D913390349005F0AF
:102F500044F8014603982E912991299A30922F9294
:102F60002F9A28922B912B993291319131992A9154
:102F700028A926912AA927912699279A00F07DFC55
:102F800001460498096835903691379005F033F87A
:102F900038B080BD079810300190209000201F901D
:102FA0001F982290219021981E901EA81D901D9878
:102FB00000F056F901460198096823902491259064
:102FC00005F019F8ACE70798103000901790002032
:102FD00016901698199018901898159015A8149096
:102FE000149800F032F90146009809681A901B9174
:102FF0001C9005F000F893E780B56F468AB0019009
:1030000004901F200290002050B9FFE7029800F0C2
:103010001F0201219140009110F0E00F16D10BE04A
:103020004AF20010C0F600004AF2F002C0F60002B8
:103030001C2105F0CAF8FEDE019800990590069162
:1030400007900891016009900AB080BD4AF23010E3
:10305000C0F600004AF21C12C0F60002232105F05F
:10306000B4F8FEDE87B0019002904FF40051039156
:10307000049005910160069007B0704787B00190F9
:1030800002904FF400510391049005910160069065
:1030900007B0704780B56F468AB0019004901D203C
:1030A0000290002050B9FFE7029800F01F020121B2
:1030B0009140009110F0E00F16D10BE04AF20010A1
:1030C000C0F600004AF2F002C0F600021C2105F032
:1030D0007CF8FEDE01980099059006910790089112
:1030E000016009900AB080BD4AF23010C0F60000BD
:1030F0004AF21C12C0F60002232105F066F8FEDE3B
:1031000082B00090019121F470000099096840EAB2
:10311000015002B0704780B56F468AB001900490AC
:103120001D200290002050B9FFE7029800F01F0216
:1031300001219140009110F0E00F16D10BE04AF20E
:103140000010C0F600004AF2F002C0F600021C2196
:1031500005F03BF8FEDE0198009905900691079076
:103160000891016009900AB080BD4AF23010C0F6A3
:1031700000004AF21C12C0F60002232105F025F8D7
:10318000FEDE80B56F468AB0019004901820029050
:10319000002050B9FFE7029800F01F020121914082
:1031A000009110F0E00F16D10BE04AF20010C0F6CB
:1031B00000004AF2F002C0F600021C2105F005F8FA
:1031C000FEDE019800990590069107900891016034
:1031D00009900AB080BD4AF23010C0F600004AF2F1
:1031E0001C12C0F60002232104F0EFFFFEDE82B0C5
:1031F0000090019121F470000099096840EA0150A3
:1032000002B0704782B00090019121F0F000009967
:10321000096840EA011002B0704787B0019002903F
:103220004FF480710391049005910160069007B0FE
:10323000704787B0019002904FF4007103910490A1
:1032400005910160069007B0704787B00190029029
:1032500080210391049005910160069007B07047AA
:1032600080B56F468AB0019004901720029000202C
:1032700050B9FFE7029800F01F0201219140009130
:1032800010F0E00F16D10BE04AF20010C0F600007B
:103290004AF2F002C0F600021C2104F096FFFEDEA6
:1032A0000198009905900691079008910160099096
:1032B0000AB080BD4AF23010C0F600004AF21C127B
:1032C000C0F60002232104F080FFFEDE87B00190EB
:1032D00002904FF400410391049005910160069023
:1032E00007B0704782B00090019121F070400099C2
:1032F000096840EA017002B0704782B00090019105
:1033000021F070400099096840EA017002B07047EE
:1033100080B56F468AB00190049019200290002079
:1033200050B9FFE7029800F01F020121914000917F
:1033300010F0E00F16D10BE04AF20010C0F60000CA
:103340004AF2F002C0F600021C2104F03EFFFEDE4D
:1033500001980099059006910790089101600990E5
:103360000AB080BD4AF23010C0F600004AF21C12CA
:10337000C0F60002232104F028FFFEDE82B0009098
:10338000019121F00F0000990968084302B07047CD
:1033900080B56F4682B0014601916846FFF780FB19
:1033A00000F01FF902B080BD80B56F4682B00146C3
:1033B00001916846FFF7EBFA00F021F902B080BDF9
:1033C00080B56F4682B0014601916846FFF7F1FB78
:1033D00000F00EF902B080BD80B56F469CB003903E
:1033E000059007F8561C07F8551C04A8079017F815
:1033F000550CC007E0B9FFE704A8099003F0FAF8FC
:10340000103002900D9000200C900C980F900E90B0
:103410000E980B900BA80A900A9800F0DBF9014671
:103420000298096810901191129004F0E4FD1BE0DD
:1034300004A8089003F0DEF81030019016900020E8
:1034400015901598189017901798149014A8139029
:10345000139800F07DF901460198096819901A91B6
:103460001B9004F0C8FDFFE7039904A8FFF72AFCAE
:1034700000F0A9F81CB080BD80B56F469CB00390E9
:10348000059007F8561C07F8551C04A8079017F874
:10349000550CC007E0B9FFE704A8099003F0E4F871
:1034A000103002900D9000200C900C980F900E9010
:1034B0000E980B900BA80A900A9800F097F9014615
:1034C0000298096810901191129004F094FD1BE08D
:1034D00004A8089003F0C8F810300190169000205E
:1034E00015901598189017901798149014A8139089
:1034F000139800F0C1F801460198096819901A91D3
:103500001B9004F078FDFFE7039904A8FFF7ECFC9B
:1035100000F052F81CB080BD80B56F469CB003909F
:10352000059007F8561C07F8551C04A8079017F8D3
:10353000550CC007E0B9FFE704A8099003F094F820
:103540001030029016900020159015981890179042
:103550001798149014A81390139800F052F901468C
:103560000298096819901A911B9004F044FD1BE021
:1035700004A8089003F078F8103001900D90002016
:103580000C900C980F900E900E980B900BA80A9030
:103590000A9800F03BF801460198096810901191D3
:1035A000129004F028FDFFE7039904A8FFF713FC2D
:1035B00000F010F81CB080BD80B56F4682B000F0FE
:1035C0001AFA02B080BD80B56F4682B000F013FADF
:1035D00002B080BD80B56F4682B000F00CFA02B038
:1035E00080BD80B56F4682B000F00AFA02B080BD9F
:1035F00080B56F4682B000F003FA02B080BD80B59E
:103600006F4682B000F0FCF902B080BD80B56F4615
:103610008AB00190049018200290002050B9FFE772
:10362000029800F01F0201219140009110F0E00F7C
:1036300016D10BE04AF20010C0F600004AF2541214
:10364000C0F600021C2104F0C0FDFEDE01980099C6
:103650000590069107900891016009900AB080BD1D
:103660004AF23010C0F600004AF26412C0F60002BE
:10367000232104F0AAFDFEDE80B56F468AB00190DA
:10368000049017200290002050B9FFE7029800F044
:103690001F0201219140009110F0E00F16D10BE0C4
:1036A0004AF20010C0F600004AF25412C0F60002BE
:1036B0001C2104F08AFDFEDE019800990590069118
:1036C00007900891016009900AB080BD4AF230105D
:1036D000C0F600004AF26412C0F60002232104F092
:1036E00074FDFEDE80B56F468AB00190049018200C
:1036F0000290002050B9FFE7029800F01F0201215C
:103700009140009110F0E00F16D10BE04AF200104A
:10371000C0F600004AF25412C0F600021C2104F068
:1037200054FDFEDE019800990590069107900891DE
:10373000016009900AB080BD4AF23010C0F6000066
:103740004AF26412C0F60002232104F03EFDFEDEC0
:1037500080B56F468AB0019004901D200290002031
:1037600050B9FFE7029800F01F020121914000913B
:1037700010F0E00F16D10BE04AF20010C0F6000086
:103780004AF25412C0F600021C2104F01EFDFEDEB7
:1037900001980099059006910790089101600990A1
:1037A0000AB080BD4AF23010C0F600004AF264123E
:1037B000C0F60002232104F008FDFEDE87B0019070
:1037C00002904FF48071039104900591016006907E
:1037D00007B0704787B0019002904FF400510391F9
:1037E000049005910160069007B0704787B0019082
:1037F000029080210391049005910160069007B02A
:10380000704787B0019002904FF48071039104904B
:1038100005910160069007B0704780B56F468CB087
:10382000009202900391049205910691096801911A
:103830000199FFF7DCFC0146009807900891099078
:103840000A9101600B900CB080BD80B56F468CB0C2
:1038500000920290039104920591069109680191EA
:103860000199FFF74AFD01460098079008910990D9
:103870000A9101600B900CB080BD80B56F468CB092
:1038800000920290039104920591069109680191BA
:103890000199FFF727FD01460098079008910990CC
:1038A0000A9101600B900CB080BD80B56F468CB062
:1038B000009202900391049205910691096801918A
:1038C0000199FFF75BFD0146009807900891099068
:1038D0000A9101600B900CB080BD80B56F468CB032
:1038E000009202900391049205910691096801915A
:1038F0000199FFF705FC014600980790089109908F
:103900000A9101600B900CB080BD80B56F468CB001
:103910000092029003910492059106910968019129
:103920000199FFF76FFC01460098079008910990F4
:103930000A9101600B900CB080BD80B56F46A2B0BB
:1039400002900390059002F08FFE0C300B900E90C9
:103950000F9004F042FB0A900A980D900C900C987E
:10396000049004A8089009909DF81100C007E0B1E8
:10397000FFE70298069002F077FE103001901C904D
:1039800000201B901B981E901D901D981A901AA83D
:1039900019901998FFF7A6FE0146019809681F9033
:1039A0002091219004F027FB1BE00298079002F081
:1039B0005BFE10300090139000201290129815902A
:1039C00014901498119011A810901098FFF7F6FE1B
:1039D00001460098096816901791189004F00BFBA7
:1039E000FFE722B080BD80B56F4682B0019000F045
:1039F0004EFB02B080BD80B56F4600F06EFE80BD0C
:103A000080B56F4600F069FE80BD83B0014600912D
:103A100002910020B0EB114F07D1FFE70098ADF8FD
:103A200006000020ADF8040003E00120ADF804001A
:103A3000FFE7BDF80400BDF8061003B0704780B57D
:103A40006F4604F0E2FA80BD80B56F4682B007F899
:103A5000010CC0B204F0DEFA02B080BD80B56F4642
:103A600088B00A4604920246059207F8020C07F84D
:103A7000011C01F0070201209040069011F0F80FA0
:103A800009D1FFE706980599421AC9B2C0B203925C
:103A9000884214D30BE04AF2E010C0F600004AF26C
:103AA000D012C0F60002232104F08FFBFEDE049842
:103AB000C0F10801C0B20291082816D80BE04AF202
:103AC0002020C0F600004AF20422C0F600022121A4
:103AD00004F07BFBFEDE0298039900F007029140A0
:103AE000019110F0F80F0FD10BE04AF22020C0F640
:103AF00000004AF24422C0F60002212104F065FBD6
:103B0000FEDE019808B080BD4AF2E010C0F6000069
:103B10004AF20422C0F60002232104F056FBFEDE26
:103B200081B0ADF80200ADF80000BDF8000001B0B2
:103B3000704780B56F4682B0019000F012F802B075
:103B400080BD80B56F4682B0019003F032F902B0BB
:103B500080BD80B56F4682B0019003F025F902B0B8
:103B600080BD80B56F4682B00190FEF731FDFEF753
:103B70008FFD02B080BD80B56F4682B0019003F02A
:103B80001DF902B080BD81B001B0704780B56F46AD
:103B90008EB001910146019813460293049127F8D3
:103BA000220C07F81F2C27F8020CADF83400BDF8E2
:103BB000340027F81E0C0C9127F8160C01460391CF
:103BC00000091E2812D8FFE7029903984EF200421E
:103BD000CEF200021044079007F8171C099007F86E
:103BE0000D1C0B9004F000FA0EB080BD03984AF251
:103BF000B422C0F600024FF4F87104F0FDFAFEDEC4
:103C000080B56F468CB0ADF8100027F8020CADF807
:103C10002C00BDF82C000146029127F81E0C40092B
:103C200027F8120C014603910F2811D8FFE70298DC
:103C3000039A4EF20021CEF2000101EB82010091C5
:103C400000F01F010120884001900020A0B908E089
:103C500003984AF2C422C0F60002102104F0CCFA04
:103C6000FEDE0199009805900691089009910A904E
:103C700004F0C1F90CB080BD4AF2F020C0F600009B
:103C80004AF2D422C0F60002232104F09EFAFEDE9E
:103C900080B56F468CB0ADF8100027F8020CADF877
:103CA0002C00BDF82C000146029127F81E0C40099B
:103CB00027F8120C014603910F2811D8FFE702984C
:103CC000039A4EF20011CEF2000101EB8201009145
:103CD00000F01F010120884001900020A0B908E0F9
:103CE00003984AF21432C0F60002102104F084FA5C
:103CF000FEDE0199009805900691089009910A90BE
:103D000004F079F90CB080BD4AF2F020C0F6000052
:103D10004AF22432C0F60002232104F056FAFEDEF5
:103D200080B56F4694B0FEF704FA002004908DF839
:103D30001400012000908DF815009DF814009DF8E6
:103D40001510FEF7BEF9FCF7E4FAFFF71CFF009828
:103D50001C21019127F8361C04210291FFF77EFEF9
:103D6000024637F8361C06A80390FFF70FFF0198AC
:103D7000ADF81C00BDF81C00FFF78AFF02990F2068
:103D800007F8310C1020FFF769FE0246039817F878
:103D9000311CFCF7C5FA08A8FCF76BFBFDF77AFDB0
:103DA000049807F82D0CFEF7A0FA07F82E0C17F868
:103DB0002E0C07F82F0CA7F12F000B9040F2884132
:103DC000C2F20001109111910E9140F28840C2F2AE
:103DD0000000129013900F900C910D900C990D987B
:103DE00009910A9009980A99FDF779FCFEDE80B5E1
:103DF0006F4684B000920A460099019007F8052C9E
:103E0000039101EB41010901D2B205F0A0FB04B01E
:103E100080BD80B56F4684B000920A460146009886
:103E2000019102920390FCF724FA04B080BD80B5A2
:103E30006F4684B000920A460146009801910292B2
:103E40000390FCF754FA04B080BD80B56F4694B07F
:103E500004910146049805910690028B039227F87D
:103E60002A2C079208921290139201210291FFF7D7
:103E7000D0FF0299039A034604981B8A0383438B5D
:103E800001930B900C92FFF7D2FF01990246039821
:103E900011820A90FFF744FE0299039A03460498A0
:103EA00043830D900E9210901192FFF7B2FF0146DE
:103EB00005980F9100F035F814B080BD80B56F46BD
:103EC00086B001900198008B0146009127F8020C02
:103ED0004FF6FF71884206D0FFE7009880B2049049
:103EE0000120039002E000200390FFE7039804996B
:103EF00001AA0292029AFDF78DFB06B080BD80B543
:103F00006F4688B00A4601900292019800680390BB
:103F10000492069007920121FFF77BFF059008B0FD
:103F200080BD90B08C460146CDF834C0CDF838C085
:103F300068460F90DCF80000DCF80420DCF808305C
:103F4000DCF80CC0CDF80CC00293019200900098F0
:103F5000019A029BDDF80CC0CDF81CC006930592B7
:103F600004900498059A069BDDF81CC0CDF82CC07F
:103F70000A93099208900898099A0A9BDDF82CC0C8
:103F8000C1F80CC08B604A60086010B0704780B503
:103F90006F46A2B0019102901A901C91002207F87E
:103FA000212C012207F8212C2191FFF787FFFDF733
:103FB00056FB0793069205910490049801280FD1AF
:103FC000FFE701980699079A09920891FEF729F9E7
:103FD0000B910A9008A80AA9FDF762FA28BB14E021
:103FE000002020B9FFE700208DF80C0008E0002039
:103FF00007F8210C00F025FB0198FEF79FF8F2E787
:1040000017F8210CC007D0BB33E001980899099A32
:104010001D901F921E91FEF704F91391129008A8AB
:1040200012A9FDF73DFAA0B90FE002990CA8FFF71D
:104030000CFF9DF83C0007F8410C17F8410C8DF877
:104040000D0001208DF80C00DAE700208DF80C003F
:10405000D6E7029914A8FFF7F8FE9DF85C0007F870
:10406000220C17F8220C8DF80D0001208DF80C00A1
:10407000C6E79DF80C009DF80D1022B080BDF8E752
:1040800082B0014601910868496802B0704780B566
:104090006F469AB0039006900078C00720B9FFE7FA
:1040A000022007F8550C03E0002007F8550CFFE745
:1040B000039803F00EFC0290A7F1550105910599B4
:1040C00001910E900F911590169003F086FF014616
:1040D000019810910B910B9A12921192119A0A92D7
:1040E0000D910D991491139113990C910AA90891AE
:1040F0000CA909910899099A00F00AF8014602985A
:10410000096817901891199003F075FF1AB080BDD7
:1041100080B56F468EB00190049105920291039292
:1041200002980399FDF72BF809900B900A900A99D1
:1041300001980078069107F8190C0699089109680A
:1041400021F0E061009101F0CFFE0146009801F0FE
:10415000070206990C9140EA0260086006980D90EB
:104160000EB080BDFEDE80B56F46ADF5087D0790D0
:104170000A910C9000F074F911901D9042F60040E5
:10418000C4F2010004904A905090519003F025FF32
:104190004B90479047994D914C914C99469149903D
:1041A00049984F904E904E98489046A8449048A801
:1041B000459044984599FEF76BFB014604980968C1
:1041C00052905391549003F016FF079800F048F96D
:1041D0000121159117901C9015A81690169842F67B
:1041E0001041C4F2010105912A912B900021069102
:1041F000299129992D912C912C99289128A92791C1
:104200002799FEF779FB0146059809682E902F91B2
:10421000309003F0F0FE079800F022F906990E9016
:10422000229042F62440C4F201002390249025916C
:10423000269003F0E0FE079800F012F908900AA813
:1042400003F0FCFB411E099100284FD0FFE70998BD
:1042500008991391149020B9FFE700208DF84B00C6
:1042600008E009990020B1F5803F38BF01208DF8A2
:104270004B00FFE79DF84B00C00720B9FFE7012086
:104280008DF84A0026E00898099918911A901B9019
:1042900018A81990199842F62C41C4F20101039113
:1042A0003491359000213391339937913691369975
:1042B000329132A931913199FEF733FB01460398CF
:1042C0000968389039913A9003F095FE02208DF8F4
:1042D0004A00FFE79DF84A00FDF70EF8C0B28DF8DE
:1042E0002F009DF82F0002280CD0A6E04AF2B03033
:1042F000C0F600004AF29832C0F60002212103F015
:1043000064FFFEDE079800F0ABF80190109020905B
:1043100042F60040C4F2010002907D9083908490A8
:1043200003F05BFE7E907A907A9980917F917F99DD
:1043300079917C907C988290819081987B9079A8EB
:1043400077907BA8789077987899FEF787FA01465E
:104350000298096885908691879003F04CFE019839
:104360001F9042F61440C4F2010000903E900020DD
:104370003D903D9840903F903F983C903CA83B90AA
:104380003B98FEF752FA0146009809684190429125
:10439000439003F030FE019902981E916C90729048
:1043A000739003F01AFE6D90699069996F916E9108
:1043B0006E9968916B906B987190709070986A90FC
:1043C00068A866906AA8679066986799FEF713FADE
:1043D00001460298096874907591769003F00BFE7F
:1043E000079800F03DF8014602980F9121915B90EB
:1043F0006190629003F0F1FD5C90589058995E9145
:104400005D915D9957915A905A9860905F905F982E
:10441000599057A8559059A8569055985699FEF717
:10442000D0F901460298096863906491659003F0A1
:10443000E2FD02208DF82E000DE09DF82F008DF892
:1044400037004AF2D431C0F60001FCF725FFC0B2B4
:104450008DF82E00FFE79DF82E000DF5087D80BD3C
:1044600081B0009001B0704781B08DF801008DF8E7
:1044700003008DF802009DF8020001B0704780B57E
:104480006F4694B00293039204910590B868069029
:10449000109111921293139082420AD3FFE703996D
:1044A0000698421C0020914288BF012007F8310C79
:1044B00003E0012007F8310CFFE717F8310CC007C3
:1044C000B8B9FFE706980599029A039BDDF810C07A
:1044D0004FF0000ECDF838E0C1F808C0CB60DDF831
:1044E00038C00F9BC1F800C04B600A61486114B02E
:1044F00080BD6946002008604AF2F031C0F6000134
:104500004AF2F833C0F6000308A801900122FFF731
:10451000B6FF01984AF24441C0F6000103F03FFEA5
:10452000FEDE85B0019002900DF103010391007849
:104530008DF803009DF803008DF812008DF813002C
:1045400005B0704780B56F469AB0FFE740F22C0087
:10455000C2F200000F901090FDF79BFC04910390B5
:1045600003A80430FDF7D9FC8DF809108DF8080078
:104570009DF80800C007002840D0FFE79DF80920FB
:10458000009207F8412C40F28840C2F200000D90E2
:104590000E9007F8352C01210191FBF7F7FF0B90E6
:1045A000FDF766FF40F22000C2F200001190129069
:1045B000FDF763FC0A4600990692059005A8FDF7F1
:1045C000C2FC019807F8190CFDF78FFE07F81A0CCA
:1045D00017F81A0C07F8490CA7F149000A90159032
:1045E00040F28840C2F2000018901990179016907F
:1045F000169814901498FDF788F8A7E71AB080BDB4
:1046000080B56F4688B0029040F23800C2F20000D8
:1046100004900590FDF752F80090009870B1FFE704
:104620000099039140F20000C2F20000069007904A
:10463000FFF7ADFC00F0010008B080BDFFF792FD70
:10464000FEDE80B56F4682B06846FBF76CFF02B0B5
:1046500080BD80B56F4688B00190059140F22C0076
:10466000C2F2000006900790FDF713FC0391029040
:104670000198007807F80D0C17F80D1C02A8FDF73B
:1046800057FC08B080BD80B56F468CB0039040F2F7
:104690003800C2F2000005900690FDF70FF8019077
:1046A0000198C0B1FFE70198009004900790FBF7D4
:1046B00083FE78B1FFE7009908684A68099208907C
:1046C00000230B9301230A93013042F100024A6058
:1046D0000860FFE7FFE70CB080BD704780B56F460C
:1046E00084B0009001910290039100F06EF904B043
:1046F00080BD80B56F468CB005900691002207F80A
:104700002A2C07F8292CFFF7E9FF02900391FFE715
:1047100002A800F08DF90490049870B9FFE717F82B
:104720002A1C17F8290C8DF804108DF805009DF847
:1047300004009DF805100CB080BD0499079117F88E
:104740002A0C097807F8060C07F8051C0144C8B2C2
:10475000401A18BF01208DF82C108DF82D009DF8FF
:104760002C109DF82D0007F8021C07F8010C8DF89D
:1047700028108DF829009DF8280007F82A0C17F852
:10478000290C17F82A1C07F80E0C07F80D1C014419
:10479000C8B2401A18BF01208DF824108DF82500EA
:1047A0009DF824109DF8250007F80A1C07F8090C4D
:1047B0008DF820108DF821009DF8200007F8290CB5
:1047C000A6E783B00091014600980190029208602C
:1047D0004A600020886003B0704780B56F4686B09D
:1047E000029313460A460299039004920593EC46FD
:1047F000CCF80010102100F002F806B080BD80B5A2
:104800006F4688B0029303920B46029902460398C2
:10481000D7F808C00492059306900791EE46CEF8AB
:1048200000C000F002F808B080BD80B56F468AB0C5
:104830000193029203910490D7F808C0CDF814C0F8
:104840000690079108920993884205D8FFE70398DC
:10485000019988420ED805E0059A0399049804F05E
:1048600050FBFEDE019B029A0399049800F029F99F
:104870000AB080BD059A0199039804F01DFBFEDE85
:1048800087B001460291039149F2B330C0F60000AF
:104890000490059005980691069900910190009862
:1048A000019907B0704787B0029003910490059179
:1048B000401AB0FA80F040098DF81A009DF81A00ED
:1048C00001460091022804D1FFE702208DF807007D
:1048D0000AE000988DF81B00C0B20138B0FA80F0F1
:1048E00040098DF80700FFE79DF8070007B0704703
:1048F00080B56F4688B00390002105910599069117
:104900000291029901910199FFF7CDFFC0B207F81A
:104910001D0C17F81D0C022804D1FFE7002007F832
:104920001E0C06E017F81D0C07F8010C07F81E0C0A
:10493000FFE717F81E0C08B080BD88B00390049103
:10494000069007910091029002980190019808B09A
:1049500070478BB004900690002107910799089149
:1049600003910399029102990991401AB0FA80F0DB
:1049700040098DF829009DF8290001460091022880
:1049800004D1FFE702208DF807000AE000988DF8B7
:104990002A00C0B20138B0FA80F040098DF8070053
:1049A000FFE79DF80700022804D1FFE700208DF8FB
:1049B000060006E09DF807008DF82B008DF8060034
:1049C000FFE79DF806000BB0704780B56F4698B0C2
:1049D0000091019006900791089009910A90FFF7C5
:1049E000B8FF002048B9FFE701980099139014918F
:1049F00015901691084404900FE0019900980B91CE
:104A00000C900D910E910F901091119008441290FE
:104A10001298FFF792FF0490FFE701981790059016
:104A200004980599039102900298039918B080BDEB
:104A300080B56F4696B00190059040680690FFF7EC
:104A400057FF012038B9FFE70199486807900968C6
:104A500088420AD004E001980068FFF77AFFF3E784
:104A600001980890002030B917E000200290FFE77D
:104A7000029816B080BD01980168109111911291B1
:104A80001391481E14901498FFF757FF01460198A0
:104A9000016040681590039010E0019A50680990F9
:104AA0000A9051680B910C910D9101310E910E9964
:104AB0000F910491049951600390FFE703980290CD
:104AC000D6E796B000920A460099019202460198F4
:104AD00006920790089109930A910B930C910D92FD
:104AE0000E910F921144109110991191801A129009
:104AF00013911491159004910590049905980291D1
:104B000003900298039916B0704780B56F4682B043
:104B10000090019100F081FA80F0010002B080BDA8
:104B200080B56F4690B0019204900690079108926C
:104B3000103001F0B9F901990498143001F0B4F97A
:104B400004990E91102002900F904AF25440C0F642
:104B50000000052200F076FC0420039007F8290CE1
:104B600017F8290C00F01CFE029A039904980C9087
:104B70000D9209900A9104300B900B994AF259401A
:104B8000C0F600000C2200F05DFC10B080BD80B5C6
:104B90006F468AB004939446CDF808C00390BA6873
:104BA000019205900691CDF81CC00893099201F07E
:104BB0006FF901990398083001F076F9029903988A
:104BC00000F024F803980499043001F067F90AB062
:104BD00080BD80B56F4686B004901430042107F87C
:104BE000091C17F8091C00F056FC00F003000146F0
:104BF00001910590032803D3FFE70020029002E013
:104C000001980290FFE7029806B080BD80B56F461C
:104C100088B0009106900791143002900421019110
:104C200007F8111C17F8111C00F035FC009B019AC5
:104C30000146029821F003010493049B194407F8EC
:104C4000092C17F8092C00F031FC08B080BD80B5A4
:104C50006F4684B00191014601980291039000F0E3
:104C600009F8019A02998A60086000204860087378
:104C700004B080BD80B56F468EB004900B900C30B0
:104C80000421029107F8111C17F8111C00F003FC15
:104C90000299024604980592134603930C92103031
:104CA0008DF828109DF8281000F0F5FB04990246B5
:104CB0000598134606930D92896888420AD2FFE749
:104CC0000699049882680020914228BF012007F8C5
:104CD0000F0C03E0012007F80F0CFFE717F80F0C8B
:104CE000C00728B9FFE7069803990791089019E0D3
:104CF00004980C300421009107F80E1C17F80E2CB4
:104D00000021019100F0D2FB0498009A0199103023
:104D100007F80D2C17F80D2C00F0C8FB0198079030
:104D20000890FFE7079808990EB080BD80B56F46E0
:104D300086B00192009102900390049105928068E0
:104D4000FFF747FF009A019B0146029800F002F826
:104D500006B080BD80B56F4692B00590069107926F
:104D600008930B90FFE705980C304AF20151C0F60A
:104D7000000100F052F920B9FFE700208DF824006F
:104D800008E00798089900F06AFB80F001008DF8B0
:104D90002400FFE79DF82400C00710B9FFE712B018
:104DA00080BD059800F085F8089900F07FFA01466B
:104DB00004910C9048B9FFE706980390F8B1FFE71B
:104DC0000398012823D0FFE729E0049A0599079862
:104DD000089B109011930B68896849680D910E9398
:104DE00019440F910F9900F02DFB0599049809685B
:104DF000084402460292884228D31CE0FEDE059950
:104E0000022007F8230C17F8230C0873C7E705994D
:104E1000012007F8220C17F8220C0873D5E7059833
:104E2000016880680C30042207F8212C17F8212C27
:104E300000F03CFB97E704980599029A0A604968DC
:104E4000084402460192884215D30BE04AF2C04062
:104E5000C0F600004AF20452C0F600021C2103F022
:104E6000B4F9FEDE05990198486008688968896888
:104E700088421AD20BE04AF2C040C0F600004AF263
:104E80001452C0F600021C2103F09FF9FEDE049AC2
:104E9000079808990A920A9A4AF22453C0F6000326
:104EA00000F0C2FA079008915DE7059900200860BC
:104EB000EDE780B56F468AB0059008908068FFF7EF
:104EC000D9FE05980A46069209910068814203D8E6
:104ED000FFE7069858B333E0069805990968421A27
:104EE0000492884205D3FFE70498411E039178B1EC
:104EF0000BE04AF2E040C0F600004AF23452C0F63D
:104F00000002212103F061F9FEDE039807900BE017
:104F10004AF2E040C0F600004AF23452C0F6000205
:104F2000212103F052F9FEDE07980AB080BD0598F2
:104F3000016880688068421A029288421DD317E097
:104F40000598016880688068421A0192884203D3FC
:104F5000FFE701980790E7E74AF2E040C0F600005B
:104F60004AF24452C0F60002212103F02EF9FEDE7F
:104F70000298411E009178B10BE04AF2E040C0F681
:104F800000004AF25452C0F60002212103F01DF93C
:104F9000FEDE00980790C7E74AF2E040C0F6000046
:104FA0004AF25452C0F60002212103F00EF9FEDE4F
:104FB00080B56F4682B001900C304AF26451C0F661
:104FC0000001FFF7A2FD02B080BD80B56F4684B03E
:104FD00001900390007B022802D3FFE713E0FEDE7E
:104FE0000198016880680C30042207F8062C17F835
:104FF000062C00F05BFA0199022007F8050C17F85F
:10500000050C0873FFE704B080BD80B56F4682B021
:105010000190FFF7DAFF02B080BD84B000900191EB
:105020000078029009780391401AB0FA80F04009A4
:1050300004B0704780B56F46C0B0039204910790EA
:1050400020912192079800F0DCF803990246049819
:105050000892089A0592239024914AF2B852C0F619
:10506000000200F082FC059A09920A900B910998BF
:10507000013801460691032804D80699DFE801F0BB
:105080004A4E5256039908AB3193329349F22B4062
:10509000C0F6000033903490349A3593359B1893C2
:1050A000199207AB3693379349F2EB22C0F6000210
:1050B00038923992399A3A933A9B1A931B921E91DD
:1050C0001EA93B913C913D903E903E983F913F9967
:1050D0001C911D9018991998129113901A991B9868
:1050E000149115901C991D981691179068460322EB
:1050F00002604AF21461C0F600010CA8029012ABE3
:1051000000F0F4FD02984AF22C61C0F6000103F0B1
:1051100046F8FEDE0B9800286ED1B3E70B98012805
:1051200058D8AFE70B98022839D8ABE70B9804287A
:10513000A8D3FFE70A9A2592DDF828C00CF10100F8
:1051400026900A9B981C27900A99C81C28900798BB
:10515000800C4FF01E0E6EF3DF0010700798000BEE
:10516000022262F39F108CF801000798800962F315
:105170009F1098709DF81C0062F39F10C870FFE7A5
:10518000039A04992F91309208981F901F984AF221
:10519000C853C0F6000300F0ABFB40B080BD0A9AD4
:1051A00029920A9B581C2A900A99881C2B900798D0
:1051B000000B4FF00E0C6CF31F1010700798800955
:1051C000022262F39F1058709DF81C0062F39F103A
:1051D0008870D5E70A9A2C920A99481C2D90079856
:1051E0008009062363F35F1010709DF81C000222F3
:1051F00062F39F104870C3E70A992E9107980870D0
:10520000BEE783B000900290802805D3FFE70098A6
:10521000B0F5006F0BD305E001200190FFE7019886
:1052200003B070470098B0F5803F07D303E0022039
:105230000190FFE7F3E70420019002E003200190D2
:10524000FFE7F7E780B56F4684B000900191012039
:1052500007F8010C07F8020C684601A900F02FF8C6
:1052600007F8030C17F8031C481CC0B2022802D32D
:10527000FFE706E0FEDE002007F8010C0098029030
:1052800005E0002007F8020C01980290FFE717F8EC
:10529000020CC00728B9FFE717F8010CC00720B9B6
:1052A00000E0F9E7029804B080BDFBE780B56F46E7
:1052B00082B000900191FFF7C5FF02B080BD85B0BC
:1052C000009101900390049100680968884207D317
:1052D000FFE7009901980068096888420CD007E050
:1052E000FF208DF80B00FFE79DF80B0005B070471D
:1052F00001208DF80B0003E000208DF80B00FFE784
:10530000F2E780B56F4682B001900199684600F0DF
:105310007EFD02B080BD80B56F4684B002900391DF
:105320000299039A01A800F096FD04B080BD80B5F3
:105330006F4682B001900199684600F08BFC02B084
:1053400080BD80B56F4682B00090019000F02BFCCC
:10535000009800F002F802B080BD80B56F4682B0C0
:105360000190FFF752FE02B080BD81B0009001B005
:10537000704780B56F468AB00291019007900891FE
:1053800000F02FF8039007F8010C00F018F802F075
:1053900044FE0198029905AA0492049A00F06BFD5C
:1053A000039800F033F810B9FFE70AB080BD00F0B1
:1053B00001F8FAE780B56F4602F025FE80BD80B5A2
:1053C0006F4602F01EFE80BD84B00090019100780F
:1053D000029009780391401AB0FA80F0400904B0B5
:1053E000704780B56F4682B002F011FE0190C00791
:1053F00020B9FFE7002007F8050C03E0012007F8BB
:10540000050CFFE717F8050C02B080BD80B56F46AC
:1054100082B007F8010C4AF23C61C0F60001781E28
:10542000FFF7D2FF02B080BD80B56F4684B0009216
:105430000A460146009801910292039000F06DFA2D
:1054400004B080BD80B56F4684B0009101460098DD
:1054500001910290039204F0B9F904B080BD82B0CA
:1054600000900191B1FA81F0400902B0704783B019
:105470008DF802009DF80200C00720B9FFE7012067
:105480008DF8030003E000208DF80300FFE79DF88E
:10549000030003B0704780B56F4684B0019007F8F1
:1054A000051C039000F00EF804B080BD80B56F4677
:1054B00084B00090019107F8052C039000F0AAF841
:1054C00004B080BD80B56F4694B0039007F8391CD6
:1054D000139017F8390C04900499DFE801F00408E0
:1054E00020263E00FEDE0398006806903BE06946F9
:1054F000002008604AF20071C0F600014AF27863A9
:10550000C0F6000307A80290012200F0EFFB02980A
:105510004AF20871C0F6000102F041FEFEDE039877
:105520000068BFF35F8F06901DE0694600200860A9
:105530004AF27061C0F600014AF27863C0F60003D7
:105540000DA80190012200F0D1FB01984AF2C86138
:10555000C0F6000102F023FEFEDE03980068BFF3F0
:105560005F8F0690FFE7069814B080BD80B56F4648
:1055700094B0039007F8391C139017F8390C049075
:105580000499DFE801F0040820263E00FEDE0398BF
:10559000006806903BE06946002008604AF200710E
:1055A000C0F600014AF27863C0F6000307A8029033
:1055B000012200F09BFB02984AF20871C0F600013C
:1055C00002F0EDFDFEDE03980068BFF35F8F0690EA
:1055D0001DE06946002008604AF27061C0F60001D3
:1055E0004AF27863C0F600030DA80190012200F092
:1055F0007DFB01984AF2C861C0F6000102F0CFFDC0
:10560000FEDE03980068BFF35F8F0690FFE7069801
:1056100014B080BD80B56F4696B00491059007F830
:10562000392C1490159117F8390C06900699DFE87B
:1056300001F004080E263E00FEDE0498059908607D
:105640003DE004980599BFF35F8F086037E0694635
:10565000002008604AF29071C0F600014AF27863B7
:10566000C0F6000308A80390012200F03FFB039856
:105670004AF29871C0F6000102F091FDFEDE694623
:10568000002008604AF24C71C0F600014AF27863CB
:10569000C0F600030EA80290012200F027FB02983A
:1056A0004AF25471C0F6000102F079FDFEDE049862
:1056B0000599BFF35F8F0860BFF35F8FFFE716B0F8
:1056C00080BDD4D480B56F4696B00491059007F89C
:1056D000392C1490159117F8390C06900699DFE8CB
:1056E00001F004080E263E00FEDE049805990860CD
:1056F0003DE004980599BFF35F8F086037E0694685
:10570000002008604AF29071C0F600014AF2786306
:10571000C0F6000308A80390012200F0E7FA0398FE
:105720004AF29871C0F6000102F039FDFEDE6946CA
:10573000002008604AF24C71C0F600014AF278631A
:10574000C0F600030EA80290012200F0CFFA0298E2
:105750004AF25471C0F6000102F021FDFEDE049809
:105760000599BFF35F8F0860BFF35F8FFFE716B047
:1057700080BD80B56F4684B0019007F8051C03908A
:10578000FFF7F4FE04B080BD80B56F4684B0009092
:10579000019107F8052C0390FFF794FF04B080BD3A
:1057A00080B56F468AB007F8190C17F8190C0290EB
:1057B0000299DFE801F0041C1F222500FEDE694685
:1057C000002008604AF2D471C0F600014AF2786302
:1057D000C0F6000304A80190012200F087FA0198A6
:1057E0004AF2DC71C0F6000102F0D9FCFEDEBFF324
:1057F0005F8F08E0BFF35F8F05E0BFF35F8F02E0CC
:10580000BFF35F8FFFE70AB080BD96B000920A46F3
:105810000099019202460198069207900891099317
:105820000A910B930C910D920E910F9211441091CD
:1058300010991191801A129013911491159004915E
:10584000059004990598029103900298039916B067
:10585000704796B000920A4600990192024601985C
:1058600006920790089109930A910B930C910D925F
:105870000E910F921144109110991191801A12906B
:105880001391149115900491059004990598029133
:1058900003900298039916B0704780B56F468AB09E
:1058A0000193029203910490D7F808C0CDF814C078
:1058B0000690079108920993884205D8FFE703985C
:1058C000019988420ED805E0059A0399049803F0DF
:1058D00018FBFEDE019B029A03990498FFF7B9FFBB
:1058E0000AB080BD059A0199039803F0E5FAFEDE3F
:1058F00080B56F4686B09C4613460A4603900492D4
:10590000059300210191029001980299EE46CEF88C
:1059100000C0FFF7C2FF06B080BD80B56F4692B0F1
:105920000093019202910390089009910A9290428B
:1059300015D8FFE7019B029A03990B910C920D93E6
:105940000E920F9310921193069207930798049169
:10595000059004980599FFF758FF12B080BD009A92
:105960000199039803F083FAFEDE83B0019002915F
:1059700003B0704780B56F468CB001910146019825
:1059800002910591069007900021049104A90891C5
:1059900004220992FFF74EFB0246029803920A4640
:1059A00003990A910B9200F0E9F80CB080BDF0B5B4
:1059B00003AF4DF804BD88B0019002AA104691E8EB
:1059C000785080E878504AF2EC71C0F6000101A8E6
:1059D00002F039FE08B05DF804BBF0BD80B56F463B
:1059E00082B0009001910068FFF7C4FF02B080BD53
:1059F000F0B503AF4DF8048D88B00B4607900068F2
:105A000001A90A4693E8705182E87051FFF7CFFF71
:105A100008B05DF8048BF0BD80B56F4684B001908E
:105A200002910392006800F0A9F804B080BD82B032
:105A300001900090009802B0704781B0009000681B
:105A400001B0704780B56F4682B00190FFF7F5FF57
:105A5000FFF7BFF802B080BD83B002900090002035
:105A60008DF8040000989DF8041003B07047D0B57D
:105A700002AF98B00591014605980391D1B2069105
:105A800011460491169007F8092CFFF7D6FF01463E
:105A900007A8FFF7DCF8059906980979884220D114
:105AA000FFE70399049A0598079BDDF820C0DDF80D
:105AB00024E00A9C1594CDF850E0CDF84CC0129328
:105AC0000430129BDDF84CC0DDF850E0159CCC6032
:105AD000C1F808E0C1F804C00B600A75086118B08D
