:020000040800F2
:100000000020002031010008635D00088F9800087F
:10001000635D0008635D0008635D00080000000088
:10002000000000000000000000000000635D000808
:10003000635D000800000000635D0008E51F000824
:10004000635D0008635D0008635D0008635D000890
:10005000635D0008635D0008635D0008635D000880
:10006000635D0008635D0008635D0008635D000870
:10007000635D0008635D0008635D0008635D000860
:10008000635D0008635D0008635D00080000000018
:10009000000000000000000000000000635D000898
:1000A000635D0008635D0008635D0008635D000830
:1000B000631D0008C1170008635D0008635D000848
:1000C000635D0008635D0008635D0008635D000810
:1000D000635D000893140008635D0008A116000822
:1000E000635D0008635D0008635D0008635D0008F0
:1000F000635D0008635D0008000000000000000070
:10010000635D000800000000635D0008635D000897
:10011000635D0008635D0008635D0008635D0008BF
:10012000635D0008635D0008635D0008635D0008AF
:1001300005F018FE084809490022814201D004C098
:10014000FBE707480749084A814202D008CA08C0AD
:10015000FAE700F06DFD00DEC80000206401002019
:1001600000000020C800002000E60008F0B503AF42
:100170002DE9000F81B0B0F8C2A0814691E8780067
:100180000AEB4A0009EBC000024678C24C46024620
:1001900034F8C06F32F8101FA9F8C2104FF6FF7183
:1001A0008E42009202D14FF6FF7657E006EB4602F0
:1001B000D0E900B8554609EBC20059F83210406842
:1001C00081EA0B0380EA08021A4302D14FF0000AC9
:1001D00011E0B1EB0B0170EB08000AD46FF00042A4
:1001E000504060EA010ABAF1000F18BF4FF0010A4F
:1001F00001E04FF0FF0A05F0B6FDC0B28245AA4605
:100200002CD106EB460009EBC0044FF6FF7034F822
:10021000106F8642C7D006EB460159F8310009EB52
:10022000C101496880EA0B0281EA08031A4301D13F
:1002300000250EE0B0EB0B0071EB080108D46FF065
:100240000042514061EA0005002D18BF012500E081
:10025000FF2505F088FDC0B28542D2D00098068007
:10026000A4F800A001B0BDE8000FF0BDB0B502AF2A
:1002700086B041F200050446C4F20205284605F0A6
:1002800062FB029049F6B00002A9C0F6000005F03A
:10029000E2FA002800F0B1800298B0F1804FC0F07F
:1002A000928000F07841B1F1804F40F091804FF0A2
:1002B000844111EB4011B1EB401F7AD311F12C00B6
:1002C00077D201210160284605F03FFB039049F6F3
:1002D000B00003A9C0F6000005F0BDFA002800F048
:1002E0008C800398B0F1804F6DD300F07841B1F16C
:1002F000804F6DD14FF0844111EB4011B1EB401FA5
:1003000057D311F12C0054D201210160284605F089
:100310001CFB049049F6B00004A9C0F6000005F0EB
:100320009AFA002869D00498B0F1804F4BD300F0BE
:100330007841B1F1804F4BD14FF0844111EB401126
:10034000B1EB401F35D311F12C0032D200210160F6
:10035000204605F0C2FB44F6D351C1F26201A0FB76
:10036000011291094FF47A7201FB1202002A4ED158
:10037000B0F57A7F38D3481EB0F5803F3FBF42F6D4
:100380002841C4F20101086006B038BFB0BD49F68B
:100390008C2049F60033C0F6000005AA009049F60B
:1003A000D420C0F60000C0F600032B2105F0B6FDF6
:1003B000FEDE49F6A01049F68412C0F60000C0F631
:1003C00000021C210DE049F63010C0F6000003E0E9
:1003D00049F66010C0F6000049F61C12C0F6000293
:1003E000212105F003FDFEDE49F6301049F67C229E
:1003F000C0F60000C0F60002F2E749F6BC1049F66C
:100400000822C0F60000C0F600024921E9E749F6DB
:100410009C2049F6C422C0F60000C0F60002272145
:10042000DFE7704780B56F46D0F880207F2A06D876
:100430008154D0F88030013306D2C0F880300020DB
:100440007F2A88BF012080BD49F6803049F66C3292
:10045000C0F60000C0F600021C2105F0C7FCFEDE5D
:10046000F0B503AF2DE90007B0F8C09004464FF691
:10047000FF7081452FD009EB4900884604EBC00A84
:100480000846DAE9005600F039F885EA000386EA02
:100490000102281A42EA030266EB0101EAB16FF099
:1004A0000103181A6FF0004272EB010015D34046A9
:1004B00000F024F885EA000386EA0102281A42EADD
:1004C000030266EB010142B1B0F1FF306FF0004270
:1004D00071EB020001D208200DE0B4F8C200BAF8B6
:1004E0001010A4F8C010AAF810009AF80C109AF88E
:1004F0000D00A4F8C290BDE80007F0BDB0B502AF92
:100500004EF21001D0E90054CEF200010968C9038F
:1005100004D5013544F10004C0E9005405F020FC85
:1005200005F01EFC28462146B0BD80B56F4605F09B
:10053000E1F90168CA070DD18A070ED44A070ED423
:100540000A070FD489061AD4012008224FF48061CB
:1005500000230EE04FF4407106E0002104E04FF468
:10056000807101E04FF400710268002340680822A6
:10057000012021F0FF0119430143D14080BD4068B3
:100580000021C0F2FF11102201EA004300210020E7
:10059000EFE780B56F4605F0A8F90168CA070DD1ED
:1005A0008A070ED44A070ED40A070FD489061AD434
:1005B000012008224FF4806100230EE04FF44071C7
:1005C00006E0002104E04FF4807101E04FF4007177
:1005D0000268002340680822012021F0FF0119432E
:1005E0000143D14080BD40680021C0F2FF111022BC
:1005F00001EA004300210020EFE7F0B503AF4DF81A
:1006000004BD0846114604F0CFFE88420BD00446D4
:100610000D46267805F069F901680906FAD5013416
:100620004660AC42F5D15DF804BBF0BDF0B503AF58
:100630004DF8048D86B041F200040646C4F202046F
:10064000904620460D4605F07EF9009049F69C3014
:10065000C0F60000694605F0FEF8002800F0CD80E5
:100660000098B0F1804FC0F0AD8000F07841B1F15A
:10067000804F40F0AC804FF0844111EB4011B1EB62
:10068000401FC0F0958011F1380080F09180012169
:100690000160204605F059F9009049F69C30C0F6FB
:1006A0000000694605F0D7F8002800F0A680009801
:1006B000B0F1804FC0F0868000F07841B1F1804FFA
:1006C00040F085804FF0844111EB4011B1EB401FA9
:1006D0006ED311F138006BD201210160204605F084
:1006E00034F9009049F69C30C0F60000694605F0E8
:1006F000B2F8002800F081800098B0F1804F61D3FB
:1007000000F07841B1F1804F61D14FF0844111EB9D
:100710004011B1EB401F4BD311F1380048D20021FA
:1007200001603046347805F087F801684FF6FB72B7
:10073000CFF6FF02002C01EA020108BF01F10071AF
:100740000160D5E9006505F0D0F80446404605F0A3
:10075000C2F9002E47D0B0FBF6F0102857D315F49D
:100760007F01A06018BF0121C5F3072009030228FB
:1007700008BF01F50071002818BF01F58061E0682D
:1007800042F20C0220F4B0500844E0602169E8B263
:1007900021F4405141EA0030206143F60C00C4F2DC
:1007A000010001681143016006B05DF8048BF0BDE3
:1007B00049F6904049F67442C0F60000C0F60002C7
:1007C0001C210DE049F62040C0F6000003E049F688
:1007D0005040C0F6000049F608422121C0F6000250
:1007E00005F004FBFEDE49F6805049F66C52C0F677
:1007F0000000C0F600021921F2E749F6AC4049F6C4
:10080000F842C0F60000C0F600024921E8E70121E5
:100810000020019149F6B051C0F600010490039008
:1008200049F6C850009149F6B851C0F60000C0F62C
:1008300000010290684605F0C3FAFEDEF0B503AF92
:100840004DF8048D86B041F200040646C4F202045D
:10085000904620460D4605F072F8009049F69C300F
:10086000C0F60000694604F0F6FF002800F0CD80D5
:100870000098B0F1804FC0F0AD8000F07841B1F148
:10088000804F40F0AC804FF0844111EB4011B1EB50
:10089000401FC0F0958011F1480080F09180012147
:1008A0000160204605F04DF8009049F69C30C0F6F6
:1008B0000000694604F0CFFF002800F0A6800098F1
:1008C000B0F1804FC0F0868000F07841B1F1804FE8
:1008D00040F085804FF0844111EB4011B1EB401F97
:1008E0006ED311F148006BD201210160204605F062
:1008F00028F8009049F69C30C0F60000694604F0E4
:10090000AAFF002800F081800098B0F1804F61D3E9
:1009100000F07841B1F1804F61D14FF0844111EB8B
:100920004011B1EB401F4BD311F1480048D20021D8
:1009300001603046347804F07FFF01684FF6CF72D3
:10094000CFF6FF02002C01EA020108BF01F100719D
:100950000160D5E9006504F0CDFF0446404605F08E
:10096000B8F8002E47D0B0FBF6F0102857D315F496
:100970007F01A06018BF0121C5F3072009030228E9
:1009800008BF01F50071002818BF01F58061E0681B
:1009900042F20C0220F4B0500844E0602169E8B251
:1009A00021F4405141EA0030206144F60C00C4F2C9
:1009B000000001681143016006B05DF8048BF0BDD2
:1009C00049F6904049F67442C0F60000C0F60002B5
:1009D0001C210DE049F62040C0F6000003E049F676
:1009E0005040C0F6000049F608422121C0F600023E
:1009F00005F0FCF9FEDE49F6805049F66C52C0F66F
:100A00000000C0F600021921F2E749F6AC4049F6B1
:100A1000F842C0F60000C0F600024921E8E70121D3
:100A20000020019149F6B051C0F6000104900390F6
:100A300049F6C850009149F6B851C0F60000C0F61A
:100A400000010290684605F0BBF9FEDE80B56F46F6
:100A500040F2F8000023C2F2000041684218013160
:100A600013723FBFBFF35F8F01F00101416080BD92
:100A700049F6406049F62462C0F60000C0F6000264
:100A80001C2105F0B3F9FEDE80B56F4640F204107C
:100A90000023C2F2000041684218013113723FBFC7
:100AA000BFF35F8F01F00101416080BD49F64060F6
:100AB00049F62462C0F60000C0F600021C2105F0D1
:100AC00095F9FEDE80B56F4640F2D4000023C2F2F5
:100AD000000041684218013113723FBFBFF35F8FBE
:100AE00001F00101416080BD49F6406049F6246291
:100AF000C0F60000C0F600021C2105F077F9FEDE0A
:100B000080B56F4640F210100023C2F20000416829
:100B10004218013113723FBFBFF35F8F01F0010133
:100B2000416080BD49F6406049F62462C0F600008D
:100B3000C0F600021C2105F059F9FEDE80B56F46B3
:100B400040F21C100023C2F200004168421801313B
:100B500013723FBFBFF35F8F01F00101416080BDA1
:100B600049F6406049F62462C0F60000C0F6000273
:100B70001C2105F03BF9FEDE80B56F4640F2E00037
:100B80000023C2F2000041684218013113723FBFD6
:100B9000BFF35F8F01F00101416080BD49F6406005
:100BA00049F62462C0F60000C0F600021C2105F0E0
:100BB0001DF9FEDE80B56F4640F2EC000023C2F264
:100BC000000041684218013113723FBFBFF35F8FCD
:100BD00001F00101416080BD49F6406049F62462A0
:100BE000C0F60000C0F600021C2105F0FFF8FEDE92
:100BF00080B56F4640F2C8000023C2F20000416891
:100C00004218013113723FBFBFF35F8F01F0010142
:100C1000416080BD49F6406049F62462C0F600009C
:100C2000C0F600021C2105F0E1F8FEDE05F09DB8DB
:100C300080B56F46FFF7FAFFFFF7DAFFFFF742FFD5
:100C4000FFF79AFFFFF7B6FFFFF700FFFFF71CFF64
:100C5000FFF756FFFFF772FF40F261100121C2F269
:100C600000004EF2100201704EF21C40CEF2000065
:100C7000F021CEF200024FF000534170C2F8F03084
:100C8000D02303704FF08053C2F8F030202341721C
:100C9000C2F8F430C1728020C2F8F4004EF623503E
:100CA000CEF2000000210170106840F002001060D8
:100CB00001F0AFFA00F006F9FEDE80B56F4602687B
:100CC000D0F804E0BFF35F8F724509D012F1010C38
:100CD0000BD281180CF00103097ABFF35F8F036018
:100CE000B2EB0E0018BF012080BD49F6406049F606
:100CF0002462C0F60000C0F600021C2105F076F860
:100D0000FEDE80B56F46024601694069BFF35F8F22
:100D1000814201D1072080BD4B1C3FBF12F811005A
:100D200002EB41014978BFF35F8F3EBF03F0070339
:100D3000136180BD49F6406049F62462C0F60000A8
:100D4000C0F600021C2105F051F8FEDEF0B503AF3D
:100D50004DF804BD82B014460D46064604F0DAFD97
:100D60004FF0005101220161FF20A7F1110107F8A6
:100D7000110C304602F060F830462946224602F057
:100D80005BF804F0C7FD4FF40051016102B05DF85B
:100D900004BBF0BDB0B502AF0C4639212246054672
:100DA00000F046F8220A2846382100F041F8220CCB
:100DB0002846372100F03CF8220E28463621BDE8AF
:100DC000B04000F035B8B0B502AF84B00C4605466F
:100DD00004F0A0FD4FF00051A7F1120201610020C4
:100DE00007F8110C02A82946022307F8124C02F05A
:100DF00049F804F08FFD4FF40051016117F8110C10
:100E000004B0B0BDB0B502AF0C4633210546FFF7C4
:100E1000DAFF40EA1420332100F00102284600F0F6
:100E200007F8284634212246BDE8B04000F000B85B
:100E3000F0B503AF4DF804BD82B014460D4606462A
:100E400004F068FD4FF000510222016145F080007E
:100E5000A7F1120107F8120C304607F8114C01F007
:100E6000EBFF04F057FD4FF40051016102B05DF853
:100E700004BBF0BD084649F67C61C0F600010222C1
:100E800005F020BDB0B502AF054608460C4605F09A
:100E900056FE28B128462146BDE8B04006F066B9A6
:100EA000204605F050FE28B128462146BDE8B04056
:100EB00006F09CB928462146BDE8B04006F098BA35
:100EC0007047704780B56F4686B004F049FF04F064
:100ED00047FFC820002100F086F9002840F08280FA
:100EE00004F03EFF04F03CFF4FF4C870002100F016
:100EF0005EFA00287BD104F033FF04F031FF01F0EB
:100F000060F941F28832841841F1000904F028FFA9
:100F100004F026FF04F033FF064604F026FF04F039
:100F200038FF40F2EC00C2F20000FFF7C6FE0546B3
:100F3000F007884608BF04F01AFFE8075CD004F009
:100F40001EFF054604F011FF04F023FF40F24C1190
:100F50004FF6FF73C2F200010868421C0A6040F2BB
:100F60000001C2F20001B1F8C0209A4212D002EB97
:100F7000420201EBC20351F832205B68A11A82EAF7
:100F8000040269EB030183EA09031A4309D0B1F1B2
:100F9000FF3F06DC4EF604514FF08062CEF20001B6
:100FA0000A600321CDE9039040F200008DF815108E
:100FB00002A9C2F2000002948DF81480FFF7D6F85F
:100FC000E80708BF04F0D3FE04F0CAFE04F0C8FE30
:100FD00042F21070002100F078F990B9642004F01A
:100FE000C8FEFBE749F67470C0F600000DE049F654
:100FF0008470C0F6000008E049F69470C0F6000066
:1010000003E049F6A470C0F6000049F6AC63009016
:1010100049F67E6002AAC0F60000C0F600032B214C
:1010200004F07CFFFEDEF0B503AF2DE9000F8FB0BA
:10103000D0F880206E460D460146304604F0B6F9E1
:1010400040F2801203ACC2F200023146D2F8803086
:10105000204601F0DFFAD5F800B008AD0DF13408F4
:101060004FF003094FF0000A2846214601F05CFBCF
:10107000BDF82000042802D00528F5D11EE009980B
:101080000028F1D19BF80060DDE90A01032ECDE9CB
:101090000D010FD2D0208BF8009004F077FE40466F
:1010A00000F013F8AAEB0610C0B204F06FFE8BF844
:1010B0000060D9E7404600F008F8D5E703A802F041
:1010C0000DF80FB0BDE8000FF0BDF0B503AF2DE98E
:1010D000000B4468092C4FD3092C51D00A2C56D947
:1010E0000B2C5BD00568697A287AEA7A40EA0120FD
:1010F000A97A40EA014040EA026007F0A3FE4AF6FE
:1011000048784DF2F276C9F6BC28C3F67A664246B4
:10111000334607F0AAFB40F26819C2F20009C9E998
:101120000001686807F08EFE4246334607F09DFBDB
:10113000112CC9E9020138D33ED0122C43D9132C0B
:1011400048D0697C287CEA7C40EA0120A97C40EAFE
:10115000014040EA026007F075FE4AF6FC1246F2D2
:101160004D23CDF2F122C3F6507307F07EFBC9E99F
:101170000401BDE8000BF0BD49F65872082017E0E5
:1011800049F658720920C0F60002092128E049F604
:1011900058720A20C0F600020A2121E049F658726E
:1011A0000B20C0F600020B211AE049F658721020FD
:1011B000C0F60002214613E049F658721120C0F62D
:1011C000000211210CE049F658721220C0F600020C
:1011D000122105E049F658721320C0F600021321CF
:1011E00004F01BFEFEDEF0B503AF2DE9000B84B06A
:1011F0000C46054600F0E5FF10EB05094C4104F0F4
:10120000AFFD04F0ADFD04F0BAFD064604F0ADFDFF
:1012100004F0BFFD40F2C800C2F20000FFF74DFD30
:101220000546F007884608BF04F0A1FDE80701D194
:10123000012645E004F0A3FD054604F096FD04F008
:10124000A8FD40F24C114FF6FF73C2F2000108688E
:10125000421C0A6040F20001C2F20001B1F8C02055
:101260009A4212D002EB420201EBC20351F8322043
:101270005B68B9EB020182EA090264EB0301634097
:101280001A4309D0B1F1FF3F06DC4EF604514FF08E
:101290008062CEF200010A60CDE9014040F2000018
:1012A0000026C2F200006946CDF800908DF80D606E
:1012B0008DF80C80FEF75AFFE80708BF04F057FDD1
:1012C000304604B0BDE8000BF0BDF0B503AF2DE92A
:1012D000000B84B00C46054600F073FF10EB0509C7
:1012E0004C4104F03DFD04F03BFD04F048FD064692
:1012F00004F03BFD04F04DFD40F2F800C2F20000A6
:10130000FFF7DBFC0546F007884608BF04F02FFD19
:10131000E80701D1012046E004F031FD054604F064
:1013200024FD04F036FD40F24C114FF6FF73C2F27B
:1013300000010868421C0A6040F20001C2F200018C
:10134000B1F8C0209A4212D002EB420201EBC20374
:1013500051F832205B68B9EB020182EA090264EBC2
:10136000030163401A4309D0B1F1FF3F06DC4EF69A
:1013700004514FF08062CEF200010A600421CDE9F1
:10138000014040F200008DF80D10C2F200006946E5
:10139000CDF800908DF80C80FEF7E8FEE80708BF56
:1013A00004F0E5FC002004B0BDE8000BF0BDF0B592
:1013B00003AF2DE9000B84B00C46054600F001FF99
:1013C00010EB05094C4104F0CBFC04F0C9FC04F01F
:1013D000D6FC064604F0C9FC04F0DBFC40F2101019
:1013E000C2F20000FFF769FC0546F007884608BF17
:1013F00004F0BDFCE80701D1012046E004F0BFFC89
:10140000054604F0B2FC04F0C4FC40F24C114FF667
:10141000FF73C2F200010868421C0A6040F200013A
:10142000C2F20001B1F8C0209A4212D002EB42028F
:1014300001EBC20351F832205B68B9EB020182EA8A
:10144000090264EB030163401A4309D0B1F1FF3F85
:1014500006DC4EF604514FF08062CEF200010A60C5
:101460000621CDE9014040F200008DF80D10C2F2D6
:1014700000006946CDF800908DF80C80FEF776FEEE
:10148000E80708BF04F073FC002004B0BDE8000BBF
:10149000F0BDF0B503AF4DF8048D84B004F025FA2B
:1014A0000068800603D4052004F063FCF6E740F2F0
:1014B0008010C2F20000FFF76CF8C00740F08A808D
:1014C00040F2262840F22A26C2F200080C4698F87C
:1014D0000000C2F2000600B33588681C81B2814268
:1014E00040F0948040F280153080C2F20005214621
:1014F0002846FEF797FFC00740F0AE8030880728E7
:1015000017D1D5F88010052940F29280A98840F2C1
:101510002822C2F20002118010E040F22520C2F21F
:1015200000000178B52904BFE1B262295AD00470E5
:1015300050E040F22821C2F20001098889B201F18D
:10154000080291B291426AD1884243D300204FF6FB
:10155000F071308088F8000040F22820C2F20000CC
:10156000018004F00CFC064604F0FFFB04F011FCC3
:1015700040F20410C2F20000FFF79FFB0546F0079F
:101580000C4608BF04F0F3FBE80777D004F0F7FB44
:10159000054604F0EAFB04F0FCFB40F228100222AE
:1015A000C2F20000416900F8112000EB4102013154
:1015B000547045D2BFF35F8F01F007014161E80726
:1015C00008BF04F0D4FB4EF200204FF00051CEF2E1
:1015D00000000160002004B05DF8048BBDE8F0401D
:1015E00004F0D4BB40F280100021C2F200000125BB
:1015F000C0F88010B52188F80050FEF713FF98F866
:101600000000358000287FF468AFE3E749F66060AA
:1016100049F6B472C0F60000C0F6000218E049F6C0
:10162000606049F6E472C0F60000C0F600020FE008
:1016300049F6D4720520C0F6000204F0EEFBFEDE8F
:1016400049F6406049F62462C0F60000C0F6000288
:101650001C2104F0CBFBFEDE49F6C47049F6BC63E6
:10166000C0F6000007F8151C009049F67E60C0F631
:101670000000A7F11502C0F600030DE049F6F47072
:1016800049F6AC63C0F6000003AA009049F67E60FC
:10169000C0F60000C0F600032B2104F03FFCFEDE84
:1016A000F0B503AF2DE9000B86B040F22520C2F261
:1016B0000000FEF73AFFC00767D104F051FB04F0C9
:1016C0004FFB00F07EFD10F10A0441F1000904F027
:1016D00047FB04F045FB04F052FB064604F045FBD3
:1016E00004F057FB40F2D400C2F20000FFF7E5FA25
:1016F0000546F007884608BF04F039FBE8074CD0E0
:1017000004F03DFB054604F030FB04F042FB40F2E0
:101710004C114FF6FF73C2F200010868421C0A60C8
:1017200040F20001C2F20001B1F8C0209A4212D08A
:1017300002EB420201EBC20351F832205B68A11AAE
:1017400082EA040269EB030183EA09031A4309D020
:10175000B1F1FF3F06DC4EF604514FF08062CEF24D
:1017600000010A600121CDE9039040F200008DF8EC
:10177000151002A9C2F2000002948DF81480FEF741
:10178000F5FCE80708BF04F0F2FA002006B0BDE857
:10179000000BBDE8F04004F0F9BA4AF2040049F643
:1017A000AC63C0F6000002AA009049F67E60C0F665
:1017B0000000C0F600032B2104F0B0FBFEDED4D401
:1017C000F0B503AF2DE9000FBDB01AA901F1250056
:1017D000049001F11D000390881C059001F1150093
:1017E000029040F2281B40F2C80840F21C1940F257
:1017F000F80AC2F2000BC2F20008C2F20009C2F2FB
:10180000000A5846FFF77DFAC0B240F21013C2F248
:101810000003DFE810F008002E00E7011B014B0178
:101820008401CC016802D8F8040008EB0002013002
:10183000117280F05F82BFF35F8F00F00100C8F883
:10184000040004F062F8C0684FF08074C00558BF0F
:101850004FF4807404F059F8046104F081FA04F044
:101860007FFA4FF47A700021FFF7BDFC0028C8D042
:1018700056E240F2EC03C2F2000358681A18013035
:10188000117280F0378200F00100BFF35F8F586063
:101890001420ADF86C0046F2B520C0F206004FF0FF
:1018A000000A1A900120ADF882A003F014FC0299FE
:1018B0008DF86E000598C1F800A081F804A04FF4DF
:1018C0008071ADF87B102521C0F20011CDF87710A2
:1018D0000821C8F20001CDF873104FF05041CDF847
:1018E0006F10182103F035FE0DF1680B8DF8831091
:1018F0008DF8820007A9584640F280194CC80C4662
:10190000C2F200094CC490E86C0048466CC41C222A
:10191000FEF773FE03F0E9FF006803F0BEF904462A
:1019200003F0B9F980462420ADF86C0046F2B520EA
:10193000C2F20640ADF892A01A90012003F0AAF975
:10194000ADF86E00082003F0C7FB8DF8700020464C
:1019500003F0C3FB00218DF871000020C4F259018F
:101960000022002303F09BF948F60001CDF8720035
:101970000020C4F2C3010022002303F032FA002445
:10198000010E8DF87910010C8DF87600000AC4F272
:1019900020148DF878108DF8770020460021ADF8DE
:1019A0007AA003F0B8FAADF87C002046002103F0DD
:1019B000B2FA8DF87E00000A8DF87F000020C4F294
:1019C000C8200021CDF880A003F016FB03998DF804
:1019D00084005FFA88F040F2C808C1F800A0C2F2A3
:1019E0000008C1F803A003F079FB04998DF88C007E
:1019F0000598C1F800A081F804A040F2F80A282157
:101A0000C2F2000A03F0A5FD8DF89310DC468DF8B4
:101A100092000EA9BCE87C0040F2281B8E46C2F260
:101A2000000BAEE87C009CE87D008EE87D00484617
:101A300040F21C192C22C2F20009FEF7DEFD03F071
:101A400054FFC16841F02001C160DAE6D9F8040012
:101A500009EB00020130117280F04C8100F00100AE
:101A6000BFF35F8FC9F8040040F28010C2F200009B
:101A7000D0F8800000283FF4C4AE40F2801140F25C
:101A80008015C2F200010C18C2F2000503F032FF0B
:101A900000680006FAD515F8016B03F02BFF01680A
:101AA000090648BF4660A542F0D1AAE6DAF804006C
:101AB0000AEB00020130117280F01C8100F001007D
:101AC000BFF35F8FCAF8040046F2B520C0F20120D0
:101AD00004211A9000201B90059803F03AFD8DF820
:101AE0006F100EA98DF86E0008221A980E901B98A0
:101AF0000F9040F28010C2F20000FEF77EFD03F06E
:101B0000F4FE006804F02CF904F02AF940F6B8302D
:101B10000021FFF7DAFB00283FF473AE05E15868B7
:101B20001A180130117280F0E580BFF35F8F00F06A
:101B30000100586003F0FFFE40F208250146C2F2A2
:101B40000005284603F04DFE044603F0F6FE01466C
:101B5000284603F046FE054640F22420C2F200006B
:101B6000007820B103F0CCFE4FF480510161A8B29F
:101B7000A1B28142C0F0CA80601B80B2642809D241
:101B800040F224210120C2F20001087003F0BDFEE2
:101B90008021016104F0E4F804F0E2F84FF4FA6007
:101BA0000021FFF704FC00283FF42BAEC2E040F216
:101BB000D403C2F2000358681A180130117280F081
:101BC0009980BFF35F8F00F00100586003F09DFE25
:101BD000C0684FF40004000658BF802403F095FE4F
:101BE00004610EE640F20413C2F2000358681A18AA
:101BF000013011727ED200F00100BFF35F8F586098
:101C0000012007F8F50CA7F1F500079000203A90A5
:101C10001AA807A9FFF707FA04F0A2F804F0A0F841
:101C200000F0CFFA10F1C80941F1000404F098F86F
:101C300004F096F804F0A3F8064604F096F804F0D1
:101C4000A8F840F2E000C2F20000FFF736F80546BF
:101C5000F007884608BF04F08AF8E8076FD004F060
:101C60008EF8054604F081F804F093F840F24C1227
:101C700040F20000C2F20002C2F200001668711CBD
:101C80001160B0F8C0104FF6FF72914212D001EB14
:101C9000410100EBC10250F831305268B9EB030149
:101CA00083EA090364EB020162401A4309D0B1F1EF
:101CB000FF3F06DC4EF604514FF08062CEF2000189
:101CC0000A600221CDF838908DF845100EA98DF8E4
:101CD0004480CDE90F46FEF749FAE8077FF481AD6D
:101CE00004F045F87DE5002004F050F83DB0BDE873
:101CF000000FF0BD49F6406049F62462C0F60000CE
:101D0000C0F600021C2104F071F8FEDE49F6D06036
:101D10004AF24C02C0F60000C0F600022121F2E7B0
:101D20004AF21400C0F600000DE04AF22C00C0F6A2
:101D3000000008E04AF25C00C0F6000003E04AF24E
:101D40003C00C0F6000049F6AC63009049F67E60A6
:101D50003CAAC0F60000C0F600032B2104F0DEF818
:101D6000FEDEF0B503AF2DE9000FB1B004F00AF8C4
:101D7000009040F24010C2F20000FEF79EFFC00744
:101D800000F01D8140F2E00B40F2681840F2042997
:101D900040F204250DF1040A11AC21AEC2F2000B91
:101DA000C2F20008C2F20009C2F20005DBF804002A
:101DB0000BEB00020130117280F0088100F001008D
:101DC000BFF35F8FCBF8040050464021302206F06D
:101DD0004EFD20464021302206F049FD304640218C
:101DE000302206F044FDD8E900015246402301F0BC
:101DF000D3FAD8E902012246402301F0CDFAD8E90E
:101E000004013246402301F0C7FA99F80000002887
:101E100040F0B480284607218022FFF709F82846C1
:101E20000421FEF7D0FF8007F9D528467521FEF77B
:101E3000CAFF40F0200228467521FEF7F9FF284628
:101E40007521FEF7C0FF00F0E00228467521FEF77D
:101E5000EFFF40F206207621C2F2000090F800A0C9
:101E600040F20520C2F2000002782846FEF7E0FFAB
:101E7000284677215246FEF7DBFF28466D21FEF704
:101E8000A2FF00F0F80228466D21FEF7D1FF284698
:101E90007121FEF798FF40F0030228467121FEF7FA
:101EA000C7FF284672210522FEF7C2FF284670218F
:101EB000FEF789FF40F0200228467021FEF7B8FFA8
:101EC00028466E210B22FEF7B3FF28466F216D22B4
:101ED000FEF7AEFF28463021FEF775FF40F00802FE
:101EE00028463021FEF7A4FF28467121FEF76BFF3C
:101EF0000246022060F3051228467121FEF798FF82
:101F000028462021FEF77EFF00212846CEF2D86128
:101F1000FEF740FF28463321FEF755FF0246012613
:101F200066F3420228463321FEF782FF284633211A
:101F3000FEF749FF00F08F0228463321FEF778FFB5
:101F400028463E211822FEF773FF28463321FEF76C
:101F50003AFF00F0F70228463321FEF769FF2846D2
:101F60000721FEF730FF40F04B0228460721FEF71D
:101F70005FFF89F800600DF1040A21AE4AF22401E6
:101F80002846C0F600010822FEF7E0FE2846072199
:101F9000FEF719FF000709D428460721FEF713FFB3
:101FA00040F0080228460721FEF742FF40F24010A9
:101FB000C2F20000FEF781FEC0077FF4F7AE009882
:101FC00003F0E4FE31B0BDE8000FF0BD49F640601B
:101FD00049F62462C0F60000C0F600021C2103F09E
:101FE00005FFFEDEF0B503AF2DE9000F81B040F232
:101FF000501040F2000840F2281BC2F2000000F12D
:102000000809C2F20008C2F2000B4FF0010A03F007
:10201000B6FE044603F0A9FE03F0BBFE4046494667
:10202000FEF71EFA0546E0070E4608BF03F09FFEC6
:10203000E8B2082800F08D80E8B2DFE800F0040F75
:102040001A37434E596403F09AFE054603F08DFE9D
:1020500003F09FFEDBF8140000215EE003F08FFE2A
:10206000054603F082FE03F094FEDBF8140006211F
:1020700053E003F084FE054603F077FE03F089FE8B
:1020800040F24012C2F200025068111801300E7284
:1020900080F08B8000F00100BFF35F8F5060E80795
:1020A0004FF01C0408BF03F062FE49E003F067FE36
:1020B000054603F05AFE03F06CFEDBF814000BF843
:1020C00010A02CE003F05BFE054603F04EFE03F08B
:1020D00060FEDBF8140004211FE003F050FE05460B
:1020E00003F043FE03F055FEDBF81400022114E078
:1020F00003F045FE054603F038FE03F04AFEDBF828
:102100001400052109E003F03AFE054603F02DFE18
:1021100003F03FFEDBF8140003210BF810100BEB6B
:10212000400101304E7040D200F00700BFF35F8FD6
:10213000CBF81400E8074FF01D0401D103F017FE9F
:102140004EF210010AFA04F0CEF20001C1F8F001DB
:102150005DE703F014FE054603F007FE03F019FEE9
:1021600040F25010C2F20000D0E90001084318BF4D
:1021700048460DD04EF21001CEF200010968C903A5
:1021800006D5D0E90012013142F10002C0E9001287
:10219000E80706D101B0BDE8000FBDE8F04003F04C
:1021A000E6BD01B0BDE8000FF0BD49F6406049F65C
:1021B0002462C0F60000C0F600021C2103F016FEE7
:1021C000FEDEF0B503AF4DF804BD03F0D8FD0446C4
:1021D00003F0CBFD03F0DDFD40F25010C2F2000031
:1021E000D0E90012114305D00830FEF787F9054603
:1021F0000E4605E003F0B4FD03F0B2FD0025002615
:10220000E00708BF03F0B3FD284631465DF804BB84
:10221000F0BDF0B503AF2DE9000FEBB040F2601058
:102220004EF21004C2F2000001210170CEF200044F
:102230004FF08050C4F8F00103F02CFB684603F027
:102240002AFB206820F001002060206840F0040094
:10225000206045F6BF506060DDE9029ADDE906B412
:10226000DDE90A5603F07CFD03F07AFD03F078FD0A
:1022700003F076FD03F074FD03F072FD43F200609D
:10228000CDE93256CDE92EB465AE0DF1A00BC0F20A
:102290006E100121319030914FF00108CDE92C10E2
:1022A000CDE9281030465946CDE92A9A03F02CFC96
:1022B0000DF5B87A65AA3146504603F048FB03F0A5
:1022C000DDFA07F83D0C03F0EFFA03F0F8FA03F03B
:1022D00001FBA7F13D0003F0B3FA03F011FB4FF44B
:1022E0000041016103F00CFB03F00AFB4168072584
:1022F00065F31F71416003F008FB03F006FB016802
:10230000042262F31B61016003F0F9FA03F0FDFAA5
:102310004FF48006066103F0F8FA03F0F6FA01685C
:1023200065F31B61016003F0F0FA066103F0EDFA5A
:102330004FF48071016103F0E8FA03F0E6FA4168B6
:102340000322032462F30301416003F0DEFA4FF439
:102350000001016103F0D9FA03F0D7FA016864F3D0
:102360001F71016003F0D1FAC0684FF08075C0059D
:1023700058BF4FF4807503F0C8FA056103F0CAFA3C
:102380004FF40051016103F0C5FA03F0C3FA41684C
:1023900064F31751416003F0B8FA03F0B6FA4168EC
:1023A0004FF00B0969F31751416003F0AEFA03F0E7
:1023B000ACFA416869F31F71416003F0D1FC03F08E
:1023C000CFFC5146DC4691E87D0001218CE87D0080
:1023D00044F24022C0F20F0201205B4600F08DFD66
:1023E0005046FDF743FF03F0BBFC03F0B9FC42F697
:1023F00000404FF0000BC4F20100016821F0010120
:1024000001604FF6FE71016140F2E731C0F824B07F
:10241000C162016841F004010160C0F814800168E4
:1024200021F004010160016841F001010160C1680F
:1024300041F00101C16003F063FA03F061FA416801
:102440000DF1A00869F307114160404603F06CFAF2
:102450004FF4165003F027FA65AE02464146304667
:1024600003F05DFAA7F13D04314652462046FEF7DF
:10247000DDF803F03AFAC16821F08001C16003F091
:1024800034FAC16821F02001C160CDF860B103F0D9
:102490003CFA03F03AFA416869F30B210DF5CA7969
:1024A0004160484603F040FA4FF4165003F0FBF940
:1024B00063AD02464946284603F031FA20462946D4
:1024C0005246FEF7BBF903F01BFA03F019FA016854
:1024D00021F47001016003F013FA03F011FA0168AE
:1024E00021F0706101609AE87E0048467EC0404657
:1024F000494603F03FF803F003FA03F001FA0168DC
:1025000021F0F001016003F0FBF94FF0805101610F
:1025100003F0F6F903F0F4F94168032208F1280505
:1025200062F3134141602846182106F01DFD6C46F8
:1025300029462046A02206F083FCB8E80E0040F2AF
:102540000820C2F20000A6460EC040F2681CC2F28B
:10255000000C98E84E004EC0214691E87D000EF137
:1025600018018CE87D0040F28010C2F20000842245
:1025700006F0CBFF40F20520E921C2F20000017015
:1025800040F20420C2F20000A72180F800B040F21F
:102590000620C2F20000017040F20720C2F20000E3
:1025A0000221017040F22420C2F200004FF6F071C7
:1025B00080F800B040F22520C2F2000080F800B0A0
:1025C00040F22620C2F2000080F800B040F228203D
:1025D000C2F20000018040F22A204EF21001C2F245
:1025E0000000CEF20001A0F800B0C1F808B0086801
:1025F00040F00100086040F250100121C2F20000DA
:10260000C0E9001BC0E902BB03F0B1FB6BB0BDE841
:10261000000FF0BDF0B503AF2DE9000B86B001ADA2
:10262000804601A800264EC02846059600F01CF8FA
:102630004AF2C8090446C0F60009B4420CD0284644
:1026400031464A4600F0B4FB00780136B528F4D193
:10265000711E01A800F030F895E84F0088E84F009F
:1026600006B0BDE8000BF0BDD0B502AF044600686F
:1026700002F0E9FEE168884208D3401AA1684018D8
:1026800010D22169884224BF401AD0BD4AF2F0001E
:102690004AF2AC12C0F60000C0F60002212103F09D
:1026A000A5FBFEDE4AF230104AF2AC12C0F6000082
:1026B000C0F600021C21F2E7B0B502AF0446006884
:1026C0000D4602F0C0FEE16888421AD3401AA842C3
:1026D00028BF284609181ED2281AE16038BF0020FA
:1026E000216940183CBF2061B0BD4AF230104AF267
:1026F0000C32C0F60000C0F600021C2103F076FB8D
:10270000FEDE4AF2F0004AF2EC22C0F60000C0F60B
:1027100000022121F2E74AF230104AF2FC22C0F610
:102720000000C0F60002E8E7F0B503AF2DE9000FA6
:1027300097B0079008460D46FFF796FF002858D03F
:102740004AF20C464AF2DC3A4AF2EC384AF2FC39D8
:10275000C0F60006C0F6000AC0F60008C0F6000980
:102760002846FFF781FF834600242846A3453AD038
:102770002146324600F01CFB00780134B528F4D124
:10278000611E2846FFF798FF2846FFF76DFF0228D5
:102790002FD3284601215246012400F009FB00787E
:1027A000622816D12846FFF75FFF062821D3284666
:1027B0000421424600F0FCFA0478284605214A46E6
:1027C00000F0F6FA007844EA002BBBF59B6F17D9AE
:1027D000022428462146FFF76FFF2846FFF744FFF3
:1027E0000028BDD105E0FFF73FFF01462846FFF76F
:1027F00063FF07990520088017B0BDE8000FF0BD02
:102800002C68204602F01FFED5F80C804045C0F031
:10281000BD81A0EB0800062828BF062018EB000A9F
:1028200080F0BD812E46C0F1060056F8101F0491BD
:1028300011EB000980F0BC81204602F004FE5045F7
:10284000C0F09B81A968A0EB0A000391401880F0BA
:10285000B881484506940296C0F08F810BF10201C1
:10286000A0EB0900884205911DD22846FFF7FCFE27
:10287000069E0446304602F0E8FD8442B9D9284657
:10288000FFF7F2FE0446304602F0DFFD8442C0F05E
:10289000B481AED028460221FFF70EFF07990598B4
:1028A00048600320A7E7069802F0CDFD5045C0F030
:1028B0009281059AA0EB0A019142104638BF084662
:1028C000B2EB000938BF4FF00009914213D290B12A
:1028D000069E304602F0B9FD0446304602F0B3FDD4
:1028E0005045C0F09381A0EB0A008442C0F097816C
:1028F000201A8145B9D802F001FE069E8DF820000D
:102900008DF82110304602F09EFDB0EB080AC0F0B1
:102910006B810BF10609BAF1030F05D24AF26C0381
:102920000022C0F600031AE018F10200019080F0C6
:102930007F81304619EB080402F085FD4C45C0F05C
:102940008081A04238BF044601994AF24C33C0F658
:1029500000033046224602F02CFD03460A460024BE
:10296000D1451AD90221CAF10200514528BF0446B7
:10297000049E301980F06E81A9EB0A018C1980F059
:10298000728103998442C0F0D4818C4200F2D981D3
:102990006E68241A06EB000803E04AF26C08C0F6E1
:1029A000000808AE1946304602F0ABFD30464146FD
:1029B000224602F0A6FD9DF820009DF8211002F0AD
:1029C000D8FD4AF28C3206468846C0F600022846F8
:1029D000494600F0EDF94AF29C320BF1070190F8FC
:1029E0000090C0F60002284600F0E2F90478F6B242
:1029F0004E4504BF5FFA88F0A0420DD02846022160
:102A0000FFF75AFE079949EA042048800020088011
:102A100046EA08208880EFE64AF2AC322846C0F643
:102A20000002022100F0C4F94AF2BC32007806909C
:102A3000C0F600022846032100F0BAF9007806210A
:102A400004902846FFF738FED5F800A0504602F063
:102A5000FAFCEC68A042C0F00F81059A001B90427E
:102A6000114638BF0146561A38BF0026D5F80880EF
:102A7000D5F810B00996D845C0F00781A8EB0B092E
:102A80004E4500F2648151B1904217D2504602F097
:102A9000DCFC059A904229D207994A6001E71BEBBA
:102AA000020080F0078102994045086000F27281BF
:102AB000A0EB0B01686800EB0B030CE0121980F02F
:102AC00002814AF20C23EA60C0F600035046214618
:102AD00002F06FFC03460229C0F0E080881E0090DF
:102AE000DDE90610049A02F0FBFA85E6504602F092
:102AF000ACFC0390504602F0A6FC03998142C0F062
:102B0000EB80081A86421BD268684A4600EB0B012C
:102B1000504602F09CFC8145C0F0E780A9EB000024
:102B200010EB0B0080F0F3800299086005982218E2
:102B300080F0F6804AF28C23EA60C0F60003C5E715
:102B40005046214602F0CAFC1BEB060480F0D680FA
:102B5000444500F227816868A4EB0B0200EB0B01EF
:102B6000504602F074FC4AF24C23059AC5E903244E
:102B7000C0F6000350460021AAE74AF2F0004AF2EC
:102B80005C12C0F60000C0F600028FE04AF2F000CE
:102B90004AF2D802C0F60000C0F6000286E04AF20F
:102BA00030104AF21412C0F60000C0F6000210E025
:102BB0004AF230104AF24C12C0F60000C0F6000291
:102BC00007E04AF230104AF25C12C0F60000C0F68C
:102BD00000021C216BE04AF2F0004AF26C12C0F6CF
:102BE0000000C0F6000261E04AF2F0004AF21C3236
:102BF000C0F60000C0F6000258E04AF2F0004AF2C7
:102C00009C12C0F60000C0F600024FE04AF2F0004D
:102C10004AF27C12C0F60000C0F6000246E04AF21A
:102C2000F0004AF28C12C0F60000C0F600023DE04F
:102C30004AF230104AF22C32C0F60000C0F6000210
:102C4000C7E74AF230104AF23C32C0F60000C0F644
:102C50000002BEE74AF230104AF25C32C0F60000D1
:102C6000C0F60002B5E74AF230104AF26C32C0F604
:102C70000000C0F60002ACE74AF2F0004AF2BC12D3
:102C8000C0F60000C0F6000210E04AF2F0004AF27E
:102C9000CC12C0F60000C0F6000207E04AF2F000D5
:102CA0004AF2CC32C0F60000C0F60002212103F047
:102CB0009DF8FEDE4AF230104AF2DC12C0F6000047
:102CC000C0F6000285E74AF230104AF2FC12C0F664
:102CD0000000C0F600027CE74AF2F0004AF21C2233
:102CE000C0F60000C0F60002E0E74AF2F0004AF247
:102CF0005C22C0F60000C0F60002D7E74AF23010AE
:102D00004AF22C22C0F60000C0F6000261E74AF247
:102D100030104AF26C22C0F60000C0F6000258E7FC
:102D20004AF230104AF27C22C0F60000C0F60002DF
:102D30004FE74AF27C322146C0F6000203F047FF1B
:102D4000FEDE4AF27C322046C0F6000227E04AF25C
:102D5000C42100200E900320C0F600010B900A91C0
:102D60000D9010A802990C9047F26940C0F600003F
:102D7000CDF85880CDE9130116A91590CDE91101C0
:102D800009A84AF2DC2110900AA8C0F6000103F05D
:102D900017F8FEDE4AF2EC12C0F60002414603F0DC
:102DA000F6FEFEDE4AF23C222046C0F60002F5E7BF
:102DB000F0B503AF2DE90007D0F80CA090461AEB50
:102DC000010433D2066805468946304602F03BFBD3
:102DD000844208D2304621464246BDE80007BDE89D
:102DE000F04002F023BB286910EB09041ED23046E4
:102DF00002F029FB504524BFA0EB0A00B4EB000011
:102E000008D24AF2F0002121C0F60000424602F04A
:102E1000EDFFFEDEA96888423FBF69680844BDE84F
:102E20000007F0BD424602F0F8FFFEDE4AF2301025
:102E30001C21C0F60000E9E780B56F460846114640
:102E400002F0B2FA43F6080CC4F2000C88420BD030
:102E5000DCF800309A07FBD510F8012B8CF8042021
:102E60009A06F3D5012080BDDCF800008007FBD571
:102E7000DCF800000006FBD49CF80400DCF800003D
:102E8000032080BDF0B503AF4DF8048D0BB343F6BE
:102E9000080102EB030CC4F20001904696461EF8AE
:102EA000015B0E68B40617D4F40617D4B407F8D53E
:102EB0000D710E680025740615D4B40615D4F406F9
:102EC00015D4F407F5D00C79E64588F80040F046B3
:102ED000E5D1C0E900230DE0012100E0022100223C
:102EE0000171026006E0002102E0012100E0022100
:102EF000056001715DF8048BF0BDF0B503AF2DE9FD
:102F0000000F87B09346884693E8761043F6000991
:102F100082466846C4F2000980E8761009F5EC3470
:102F2000204602F00CFD06904AF2AC4006A9C0F61D
:102F3000000002F090FC002800F0BC800698B0F180
:102F4000804FC0F09C8000F07841B1F1804F40F09C
:102F50009B804FF0844111EB4011B1EB401FC0F05A
:102F6000848011F1380080F08080012101602046CA
:102F700002F0E7FC06904AF2AC4006A9C0F6000059
:102F800002F069FC002800F095800698B0F1804FAF
:102F900075D300F07841B1F1804F75D14FF0844185
:102FA00011EB4011B1EB401F5FD311F138005CD23F
:102FB00001210160204602F0C4FC06904AF2AC40B8
:102FC00006A9C0F6000002F046FC002872D0069860
:102FD000B0F1804F53D300F07841B1F1804F53D11D
:102FE0004FF0844111EB4011B1EB401F3DD311F183
:102FF00038003AD2002101606846C9F8041002F096
:1030000068FD02F050FCBBF1000F49D058455BD37E
:10301000B0FBFBF1032901D2002017E0062901D201
:10302000082013E00C2901D210200FE0182901D24A
:1030300018200BE0302901D2202007E0602901D2BE
:10304000282003E03820C02938BF30204FF45171C8
:10305000BAF1000F18BF40F2463141440843C9F8A5
:10306000000007B0BDE8000FF0BD4AF2A0504AF2E0
:103070008452C0F60000C0F600021C210DE04AF2A6
:103080003050C0F6000003E04AF26050C0F6000085
:103090004AF218522121C0F6000202F0A7FEFEDE1D
:1030A0004AF290404AF27442C0F60000C0F60002B4
:1030B0001921F2E74AF2BC504AF20862C0F6000059
:1030C000C0F600024921E8E74AF218604AF2A0621D
:1030D000C0F60000C0F600022821DEE7B0B502AF5E
:1030E00004680546C168204602F0F8F9A968286915
:1030F000814221BF0A1A69680144204624BFBDE805
:10310000B04002F0A4B94AF20C72C0F6000203F01B
:103110001EFDFEDEB0B502AF056808460C4603F0A2
:103120000EFD28B128462146BDE8B04004F09EB807
:10313000204603F008FD28B128462146BDE8B040EE
:1031400004F0F5B828462146BDE8B04004F08CB93B
:10315000704780B56F468CB0CDE904120DF1180CA4
:1031600093E8724105AB624682E872414AF26472AA
:10317000C0F60002B968029104A9CDE9002C02F062
:103180006CFEFEDEF0B503AF2DE9000F85B0272BF6
:10319000C0F0DA80044604A8994690460D4601F036
:1031A000CEFA002800F0DA802046294600220023CB
:1031B0004FF0000B04F0E6F950B12D20C2460AF89A
:1031C000010BA9F1010985F000464FF0010B01E068
:1031D000C2462E460020E943C7F6F07001420CD1EA
:1031E0006FF31F550BF1030154EA050020D04E2068
:1031F0008AF8020046F24E101FE0F143014200F04F
:10320000B780204631460022002305F053FE0028F7
:1032100000F0B88026F00040204311D030466FF314
:103220001F50204310D02046314600F0D8FE0FE05A
:1032300066208AF8020046F66960AAF800005FE09E
:1032400000220024002305E02046314600F0E6FC81
:1032500004460B4644F00100002BB0FA80F040F227
:10326000D14100F1200018BFB3FA83F080F03F0095
:1032700048430021000B12280DD84AF27876C0F698
:10328000000606EBC00556F830606D68A61B73EBB0
:10329000050628BF012108441044411C914234D640
:1032A000481E88423AD6A0F10A0111F10F0F0CD244
:1032B0004AF6AC11CDE90020C0F60001504602915B
:1032C0004946224600F059F917E04AF6AC11B0F130
:1032D000FF3FC0F6000108DDCDE900205046029115
:1032E0004946224600F07FFB07E0CDE9002050462A
:1032F00002914946224600F057FA1BEB000117D213
:10330000404605B0BDE8000FF0BD4AF220704AF615
:103310007C02C0F60000C0F6000211E04AF24070E4
:103320004AF67C02C0F60000C0F60002212108E047
:103330004AF220704AF66012C0F60000C0F60002A1
:103340001C2102F053FDFEDE4AF6D0104AF6882218
:10335000C0F60000C0F600025321F2E74AF67010F2
:103360004AF69412C0F60000C0F600022321E8E7F6
:103370004AF6C0004AF6E802C0F60000C0F60002B5
:103380002521DEE74AF68C004AF6B002C0F60000BE
:10339000C0F600022221D4E7272B28BFFFF7F2BE98
:1033A00080B56F464AF6D0104AF68822C0F6000073
:1033B000C0F60002532102F019FDFEDED0B502AFC7
:1033C0008A4252D8844618698E460021C8B390427A
:1033D00037D293F8221019B91CF80010352901D200
:1033E0000021D0BD0CD100EB0C01431C11F8011CD5
:1033F0009A4210D01CF803400133302CF8D00CE076
:1034000070453CD8F8B10CEB0001013811F8011CF3
:103410003829F7D80BE0C907E2D070452FD890B112
:103420000CEB0001013811F8011C3829F7D82F39AD
:10343000C9B23031CAB28A420BD1421C0CF800101A
:1034400000211046D0BD312001218CF80000012060
:10345000D0BD4AF620304AF63C32C0F60000C0F635
:1034600000021C2102F0C2FCFEDE4AF630704AF671
:103470006072C0F60000C0F600022D21F2E74AF6A5
:10348000F7604AF62072C0F60000C0F6000227215D
:10349000E8E7F0B503AF4DF8048D84B090461268AC
:1034A000BE68551C865443D2B3F1FF3F04DC2D2285
:1034B000425501354ED25B4243F001024AF6B8361E
:1034C000B2FA82F2C0F6000682F01F024FF0000C42
:1034D00006EBC20456F832206468D21854F1000694
:1034E0004CF10002012A2CD0491BB1423BD34AF6D1
:1034F000F4422844CDE900061846C0F600020A212D
:10350000C823029601F081FAA8193FBFC8F800004D
:1035100004B05DF8048BF0BD4AF620304AF6907294
:10352000C0F60000C0F600021C2102F05FFCFEDEC7
:103530004AF620304AF68072C0F60000C0F600025B
:10354000F2E74AF620304AF6B842C0F60000C0F66C
:103550000002E9E74AF620304AF67072C0F6000031
:10356000C0F60002E0E74AF6CC504AF6BC52C0F67C
:103570000000C0F600022721D7E7F0B503AF2DE920
:10358000000F8FB004469946934652EA0300069115
:103590003BD005944FF000084FF00A0A00245D4626
:1035A0004E46284631460A22002305F0B0FFA0FB14
:1035B0000AC301EB810203EB4202B5EB0C0366EB9D
:1035C00002021A431DD1621C80F0B380D5F10903B9
:1035D00004F1010478EB060305460E46E1D3079299
:1035E00000204AF6A47208904BF27800C0F6000062
:1035F00007A908AB0090C0F600020020FFF7A9FD64
:10360000FEDE0794002C059CEAD10EA801F097F885
:10361000002800F0AC800698451E142DC0F0B08044
:103620004BF00100B9F1000FB0FA80F040F2D14147
:1036300000F1200018BFB9FA89F080F03F0048433C
:103640000021000B12280ED84AF6F852C0F60002EC
:1036500002EBC00352F830205B68BBEB020279EB4F
:10366000030228BF01210844461CAE4200F29280AA
:10367000386904F101084AF6F4434946C0F60003EC
:103680000A2290F821A0C820CDE900085846CDE9CB
:10369000026601F05FF84046D7F8108029463246AE
:1036A0004346FFF78BFEFA6801F0010155184CD62E
:1036B000D8F814202646617821708242014684F8A9
:1036C00001A088BF1146002A08BF0146012804D185
:1036D00098F8232072B101201CE081420CD80130FF
:1036E00018D34AF620304BF22402C0F60000C0F690
:1036F000000226E001290AD90A1A411C8C182DD291
:103700007018611A302205F0D3FB089403E03020D2
:10371000B07003200890069908AA98F820002B465C
:1037200000903046FFF7B5FE08980FB0BDE8000FD7
:10373000F0BD4AF620304BF21822C0F60000C0F669
:1037400000021C2102F052FBFEDE4AF620304BF252
:103750001402C0F60000C0F60002F2E74AF620307C
:103760004BF23402C0F60000C0F60002E9E74BF26B
:1037700044004BF26802C0F60000C0F6000207E009
:103780004BF2E4104BF20822C0F60000C0F6000233
:103790002321D7E74AF6CC504AF6BC52C0F60000C7
:1037A000C0F600022721CDE7F0B503AF2DE9000FE9
:1037B0008DB00C46F968B1F1FF3F00F3F680814609
:1037C0009846934652EA03003FD0CDE904494FF0B2
:1037D000000A4FF00A0900265C4645462046294665
:1037E0000A22002305F093FEA0FB09C301EB81022E
:1037F00003EB4202B4EB0C0365EB02021A431DD14A
:10380000721C80F0BD80D4F1090306F101067AEB49
:10381000050304460D46E1D3069200204AF6A47241
:1038200007904BF2A800C0F6000006A907AB009075
:10383000C0F600020020FFF78CFCFEDEDDF81490DD
:10384000002EF968049C0696E7D13869C1F1010A97
:103850003022514690F82150484605F029FBA4EB50
:103860000A04142CC0F0AB804BF00100B8F1000F3B
:10387000B0FA80F040F2D14100F1200018BFB8FA50
:1038800088F080F03F0048430021000B12280ED83A
:103890004AF6F852C0F6000202EBC00352F830209C
:1038A0005B68BBEB020278EB030228BF01210844EE
:1038B0000595451CA54200F28C8009EB0A064AF6E4
:1038C000F443C820C0F60003CDE90006584641463F
:1038D0000A22CDE9025500F03DFF21463C69304601
:1038E0002A462346FFF76AFDFB685A1C0CD111F0EB
:1038F000010209D0312189F8001094F82310C9B1D0
:1039000000214FF0010A1EE0059AC90789F801203D
:1039100004D0A9EB030132780A7013E01AEB000A15
:1039200010D34AF620304BF28802C0F60000C0F6F1
:1039300000022DE030214FF0030A89F802100599AA
:1039400089F80110012163690246834288BF1A4643
:10395000002B08BF024669B182420BD9101A1AEB3C
:10396000000419D209EB0A00A4EB0A01302205F089
:103970009FFA00E0544620460DB0BDE8000FF0BDB0
:103980004AF620304BF21822C0F60000C0F60002C2
:103990001C2102F02BFAFEDE4AF620304BF2980290
:1039A000C0F60000C0F60002F2E74BF2B8004BF29E
:1039B000D802C0F60000C0F600021D21E9E74BF274
:1039C000E4104BF20822C0F60000C0F600022321EA
:1039D000DFE74AF6CC504AF6BC52C0F60000C0F60B
:1039E00000022721D5E7F0B503AF2DE9000F8FB016
:1039F000FE68002E00F1F480804699460D4652EA9A
:103A0000030044D0CDE906584FF0000B4FF00A0AEE
:103A10004FF0000814464E460592204631460A22D1
:103A2000002305F074FDA0FB0A2301EB810503EBE5
:103A30004503A21A66EB03031A431ED118F10102D3
:103A400080F0B080D4F1090308F101087BEB060394
:103A500004460E46E1D3089200204AF6A47209906B
:103A60004BF20810C0F6000008A909AB0090C0F6A0
:103A700000020020FFF76DFBFEDECDF82080B8F1DC
:103A8000000FDDF81C80FE68DDE90525E4D1142D6A
:103A9000C0F0B08042F00100B9F1000FB0FA80F040
:103AA00040F2D14100F1200018BFB9FA89F080F04E
:103AB0003F0048430021000B12280DD84AF6F85465
:103AC000C0F6000404EBC00354F830405B68141BDC
:103AD00079EB030328BF01210844441CAC4200F2E7
:103AE0009380D7F810B04AF6F443C820C0F600031C
:103AF000CDE90008104649460A229BF821A0CDE9ED
:103B0000024400F027FE4046294622465B46FFF766
:103B100055FC01F0010173185C1CA04210D9411C36
:103B20004CD2021B09D000EB08021B1A013A0133E8
:103B300012F8016901339670FAD308F804A014E072
:103B400008EB0002211A30251046302205F0B0F9AA
:103B50009BF8230018B100222046214606E0601C95
:103B600008F804A0A11C08F800500122DBF814603A
:103B70000346864288BF3346002E08BF03465AB12B
:103B8000834209D9181A0C1821D208EB0100611AD6
:103B9000302205F08DF900E00C4620460FB0BDE85C
:103BA000000FF0BD4AF620304BF21822C0F600009C
:103BB000C0F600021C2102F019F9FEDE4AF62030A0
:103BC0004BF2E802C0F60000C0F60002F2E74AF647
:103BD00020304BF2F802C0F60000C0F60002E9E720
:103BE0004BF218104BF23812C0F60000C0F600027B
:103BF0001E21E0E74BF2E4104BF20822C0F6000071
:103C0000C0F600022321D6E74AF6CC504AF6BC5251
:103C1000C0F60000C0F600022721CCE7F0B503AFE4
:103C20002DE9000F83B00020C7F6F07008404FF672
:103C3000CD31CFF6FF7101EB105B40F2011044F281
:103C40001341CFF6F870C0F2130104BF4FF6CE3B1C
:103C5000CFF6FF7B0BFB010146F6B140CFF6E570D6
:103C60008A1550430BEBE044C4F10B00402880F070
:103C7000728102924FF49272A2EBA1514BF2B023E7
:103C8000C0F600034FF0000C0A0103EB01119E582F
:103C9000C0F12002D1F80480B6EB985168F100051C
:103CA000C14005FA02F341EA0309B0F1200158BF0F
:103CB00025FA01F9334616EB585E019658F10003D8
:103CC0004CF1000625FA00FA002958BF4FF0000A0F
:103CD000012E00F049812EFA00F603FA02F246EABC
:103CE0000205002923FA00F62BF0010058BF23FA41
:103CF00001F558BF00260228009409D019F10109E6
:103D00004FF000005AF1000A50F1000040F03581F8
:103D1000284631460A2200230A2405F0F8FBA0FBBE
:103D2000042301EB810403EB4403B2EB090273EBC0
:103D30000A022FD20098C0F10A003F2800F2268123
:103D40000199C0F12002002308FA02F2C140114398
:103D5000B0F1200258BF28FA02F128FA00F258BF49
:103D60000022481C52F1000153F1000240F018817A
:103D70005FEA51024FEA3003800740F186801BF171
:103D80004D0FC0F282801BF14C0F7EDA581E62F19B
:103D9000000189E0D5F109024FF00002B24180F044
:103DA00014814CF6FD6847F21175C8F26148CAF6F5
:103DB000CC35A0FB08C600224FF0000EE1FB0862E4
:103DC000A0FB0543A4195341E0FB05624EF100043A
:103DD000E1FB052493011ED1BCEB080376EB050340
:103DE00019D2900E45F6294140EA8410CCF28F2179
:103DF00045F6294300FB01F2C0F28F234FEAB206D9
:103E000008229E4252D2023280F1938030464E43C5
:103E10004FEAB606F5E745F6294642F6F50ECCF22E
:103E20008F26C8F65C7EA0FB062348F65D7945F632
:103E30002848CFF2C25900FB0E33C0F28F284FF052
:103E4000000C01FB0633950745EA93059B0743EAFF
:103E50009204B4EB090275EB08023AD20022023256
:103E600070D629462046A4FB064500FB0E5501FBF3
:103E70000653A50745EA93059B0743EA9404B4EB70
:103E8000090375EB0803EAD324E0581C42F1000152
:103E9000B3EB09054FF0000672EB0A0538BF0126A7
:103EA000002E04BF11461846029A3EE04CF6CD4162
:103EB00049F69A16CCF6CC41C1F6991641434FEA21
:103EC0007103B3423CBF4FEA710042F0010200218E
:103ED00027E000224CF6CD434FF0CC34CCF6CC4357
:103EE000A0FB036500FB045549F69A14C9F6991422
:103EF00001FB0353F50745EA5305DB0743EA560385
:103F000049F69916C1F699161C1B75EB060638BFC3
:103F10004FF0010CBCF1000F1EBF2946184642F0BD
:103F20000102029B0133D21843D603B0BDE8000F53
:103F3000F0BD4AF620304DF6A012C0F60000C0F6E3
:103F400000023EE04AF620304DF69012C0F6000026
:103F5000C0F6000235E04AF6D0404BF22822C0F607
:103F60000000C0F6000219E04AF620304BF2382279
:103F7000C0F60000C0F6000223E04AF620304BF203
:103F80004812C0F60000C0F600021AE04AF6D0401F
:103F90004BF24822C0F60000C0F60002242111E0D6
:103FA0004AF620304BF25822C0F60000C0F600025C
:103FB00007E04AF620304DF68012C0F60000C0F649
:103FC00000021C2101F012FFFEDE4BF291204DF6A3
:103FD000B012C0F60000C0F600021F21F2E7F0B5F3
:103FE00003AF2DE9000F8FB084460020C7F6F070B4
:103FF000894601404FF6CD30CFF6FF7049F24F327F
:1040000000EB11544DF20510C0F2040004BF4FF64E
:10401000CE34CFF6FF7404FB00F80220C0F21A027F
:104020006FF31F59002918BF09F58019A0EB28501C
:10403000504304EBE043C3F13F00402880F0FD8291
:104040004FF493714BF2B025A1EB2851C0F6000557
:104050000A0105EB011155F802E0C0F12005D1F885
:1040600004A02EFA00F20AFA05F52A43203858BFB8
:104070002AFA00F2402B80F0EA824FEA4900CDF89C
:104080003080D1E902B840EADC714FEA4C00CDF84B
:104090002CC040F0010C0E920194B3F120020CFAF6
:1040A00003F5089058BF0025AEFB0540099101FAC1
:1040B00003F6C3F1200107910D940024EAFB0504E7
:1040C0002CFA01F10E430A93002A029258BF0CFA0F
:1040D00002F6CDF818E0CDF814A001462246EEFB1A
:1040E0000612CDF81080CDF80CB0AEFB06EC10EB4C
:1040F0000E0054EB0C00ABFB05434FF0000040F109
:10410000000CE8FB0530EAFB062C4FF0000A1D46C8
:104110000446EBFB0654ABFB065E5B1950EB0E004E
:104120004FF2CF734AF10000CEF25333E8FB064062
:104130000D9E14EB060E50EB010852F1000649F6F5
:10414000A5324CF10004C2F2C402A6FB03014FF4F5
:104150007A7C0020E4FB0310A6FB02355B1850EBD1
:104160000503E6FB02104AF10003E4FB0203C00969
:10417000D90940EA4360A0FB0C2501FB0C53B51A9A
:1041800074EB0303C0F06D820C9BB21A0E9D4FEAD4
:10419000235A0B9B954203F0010413D9002C00F025
:1041A0007281002A40F06F815EEA080240F06B8164
:1041B00050EA010200F07082013861F100014FF411
:1041C0007A7201E080F0A380B2EB550FC0F052820A
:1041D0006B08D21A12F1320380F05582B3F57A7F60
:1041E00000F278820A2201EB8101A0FB0202DDF8D5
:1041F00028B002EB41014FF4247203FB02F91FFACD
:1042000089F210EB194041F100011209282A00F24D
:10421000FC81BBF1000FCDE90DA300F06582DDF854
:1042200020C00024DDF80CE04FF0000ADDF810801B
:10423000099BAEFB0C25E8FB0C540C92AEFB036211
:1042400076196241EEFB0354069A4AF1000AE8FB34
:10425000034AA2FB0C8602FB0366059B0C9A03FB38
:104260000C6618EB040303FA0BFE46EB0A04CBF1D1
:104270004006C6F1200A22FA06FC04FA0BFB05FAF6
:104280000AF204FA0AFA42EA0C02DDF81CC0BCF198
:10429000000F58BF25FA0CF2DDF80880F5400C92AB
:1042A00023FA0CF2B8F1000F42EA0B0258BF4FF0AC
:1042B000000EB8F1000F58BF03FA08F2F340BCF14A
:1042C000000F43EA0A0358BF0025BCF1000F58BF96
:1042D00024FA0CF30E9E7340DB0701BF4FEA19432B
:1042E0000C9E46EA0E062A4301BF3243B2FA82F21E
:1042F000520912EA030200F08681DDF834A050EA88
:10430000010200F0DB81013861F100017DE11E4610
:10431000089BB3F1010C099B63F1000556EA090300
:1043200000F0C381002C74D1019B0A3B13F10C0FE8
:104330006FD30A9BCDF834A0002B00F0D581DDF8B7
:104340000C909B46DDF810A00024A9FB0CE3EAFBCF
:104350000C34A9FB0568F61854EB0806E9FB053494
:104360004FF0000646F10008EAFB0548DDF818A00A
:10437000AAFB0C960AFB0565059EDDF81CA006FB52
:104380000C5519EB0406DC4645EB0809CBF140055A
:10439000C5F1200BBAF1000F26FA05F42EFA05FE3E
:1043A00009FA0BF844EA080458BF29FA0AF4BAF1EA
:1043B000000F4FEAC47409FA0CF90C9403FA0BF4D9
:1043C0004EEA040826FA0AF458BF23FA0AF8DDF880
:1043D00008B006FA0CFE44EA0904BBF1000F58BF0E
:1043E0004FF0000EBBF1000F23FA05F358BF06FA99
:1043F0000BF4BAF1000F58BF00230C9EDDE90DA5A8
:10440000002E40D14EEA0806234333437FF4DCAE4E
:1044100039E0DDF82880B8F1000F00F06581DDF8A3
:104420000C900024DDF810B0A9FB0C36EBFB0C64FB
:10443000A9FB053E9B1954EB0E03E9FB05644FF005
:10444000000343F1000E069BEBFB054EA3FB0C960D
:1044500003FB0566059B19EB040503FB0C6646EBA5
:104460000E03C8F14006C6F1200425FA06F6079DA2
:1044700003FA04F42643002D58BF23FA05F60E9DD7
:10448000F3073FF4A1AE50EA010200F037814CF689
:10449000FD6847F21175C8F26148CAF6CC35A0FB39
:1044A00008C600224FF0000EE1FB0862A0FB0543A6
:1044B000A4195341E0FB05624EF10004E1FB052421
:1044C00093011ED1BCEB080376EB050319D2900EC5
:1044D00045F6294140EA8410CCF28F2145F6294364
:1044E00000FB01F2C0F28F234FEAB20608229E427F
:1044F00069D2023280F18E8030464E434FEAB606D2
:10450000F5E745F6294642F6F50ECCF28F26C8F6B9
:104510005C7EA0FB062348F65D7945F62848CFF27D
:10452000C25900FB0E33C0F28F284FF0000C01FB84
:104530000633950745EA93059B0743EA9204B4EBDB
:10454000090275EB08024FF0000214D202326AD65B
:1045500029462046A4FB064500FB0E5501FB0653E9
:10456000A50745EA93059B0743EA9404B4EB0903C6
:1045700075EB0803EAD34CF6CD434FF0CC34CCF6C0
:10458000CC43A0FB036500FB045549F69A14C9F619
:10459000991401FB0353F50745EA5305DB0743EA8A
:1045A000560349F69916C1F699161C1B75EB0606BB
:1045B00038BF4FF0010CBCF1000F1EBF2946184652
:1045C00042F0010211E04CF6CD4149F69A16CCF6C4
:1045D000CC41C1F6991641434FEA7103B3423CBF47
:1045E0004FEA710042F0010200210AF1010313EBCE
:1045F000020A0AD74AF620304DF68012C0F60000B3
:10460000C0F6000217E0DDF834A052460FB0BDE856
:10461000000FF0BD4AF620304DF6A012C0F60000A3
:10462000C0F6000207E04AF620304DF69012C0F6C0
:104630000000C0F600021C2149E04AF6D0404DF6C9
:104640007012C0F60000C0F6000224213FE04BF2D9
:1046500070104BF25812C0F60000C0F60002232181
:1046600035E04AF6A0204BF29412C0F60000C0F6E6
:1046700000022BE04AF6A0204BF2C412C0F6000064
:10468000C0F6000222E04AF620304BF2C412C0F617
:104690000000C0F60002CEE74AF6A0204BF2B412AA
:1046A000C0F60000C0F6000210E04AF6A0204BF26F
:1046B000A412C0F60000C0F6000207E04AF6A020EF
:1046C0004BF2D412C0F60000C0F60002212101F026
:1046D0008DFBFEDE4DF6C0104DF6F012C0F6000068
:1046E000C0F600022E21F2E74BF268204DF6601270
:1046F000C0F60000C0F600022921E8E74BF2912045
:104700004DF6B012C0F60000C0F600021F21DEE731
:1047100080B56F460A2000F0B2FA60B10A2000F0BE
:10472000AEFA50B10A2000F0AAFA0146152000297D
:1047300018BF302080BD132080BD142080BD80B5FF
:104740006F4682B0FFF7E4FF0090684600F09CFAE5
:1047500002B080BDF0B503AF2DE9000F83B00A2A87
:10476000029340F01B810E46804642F21070D7F84B
:1047700014A0F968B8EB000076F1000002D24546BB
:10478000B14653E0881E01904046314642F2107215
:104790000023D34604F0BBFEBAF1020FC0F0B08094
:1047A000054638690228C0F0B48042F2107089468C
:1047B00005FB108141F27B42BB6888B28008504300
:1047C0006422400C00FB121189B2490041F0010241
:1047D0009A4280F0A780029B019C595C9A5C04F885
:1047E0000B1004EB0B014A70ABF10202012A40F2FC
:1047F000A280BC68400040F00103A34280F0A48086
:10480000029CA2F1020A205CE35C01F8020C4EF269
:10481000001001F8013CC0F2F550B8EB0000A846CA
:1048200076F100004E46AFD2ABF1040AB5F1640058
:1048300079F1000002D2284649462CE0029E4FF052
:10484000640842F2107B284649466422002304F0A3
:104850005EFEBAF1020FC0F081803A69022AC0F010
:10486000878000FB1852BC68520042F00103A3424B
:1048700080F08880FC68B25C5444F35CAAF1020AC0
:1048800004F8022CB5EB0B02054679F100028946CB
:1048900004F8013CD7D2B0F10A0271F1000110D244
:1048A000FB68BAF1000F00F083803969002900F03D
:1048B00088804DF60021C0F600010144AAF10100F4
:1048C00018E0FB68BAF1020FC0F084803969022950
:1048D000C0F08980BA68400040F00101914280F048
:1048E0008B80029E0AEB0302715C02F8011C3118F6
:1048F000AAF102000978195403B0BDE8000FF0BD19
:104900004DF674304DF6F032C0F60000C0F60002ED
:104910002CE04DF651304DF6F032C0F60000C0F6F6
:1049200000022DE04DF636404DF6F032C0F60000A4
:10493000C0F6000210E04DF674304DF60042C0F6AD
:104940000000C0F6000211E04DF610404DF60042A6
:10495000C0F60000C0F6000226211CE04DF67430BF
:104960004DF6E032C0F60000C0F600021C2112E055
:104970004DF651304DF6E032C0F60000C0F60002B0
:10498000232108E04DF62C304DF6E032C0F6000051
:10499000C0F60002252101F029FAFEDE4DF6842042
:1049A0004DF6A022C0F60000C0F600021A21F2E780
:1049B0004DF6C3304DF69032C0F60000C0F600024E
:1049C000D4E74DF6A0304DF69032C0F60000C0F6A8
:1049D0000002D5E74DF674304DF61C32C0F60000EB
:1049E000C0F60002C2E74DF651304DF61C32C0F65B
:1049F0000000C0F60002C3E74DF62C304DF61C3225
:104A0000C0F60000C0F60002C4E7F0B503AF2DE920
:104A1000000F81B00A2940F0FB80D7F810A042F2C5
:104A20001071D7E9026E884201D283464AE04EF205
:104A30000018A6F10209C0F2F55841F25971BAF115
:104A4000020FCDF2B711A0FB0141C0F09380BEF17F
:104A5000020FC0F098804FEA513B42F210710BFBFD
:104A6000110141F27B458CB2A4086C43650C6424AF
:104A700005FB141189B24E0046F00101994280F005
:104A80008B80945D09EB0A06515CD4467170AAF1E3
:104A90000201012909F80A4040F287806D0045F0C3
:104AA00001049C4280F08A80145DA1F1020A404515
:104AB00006F8014C5846545D06F8024CBDD2ACF1E4
:104AC000040ABE68BBF1640F01D2584624E048F2E4
:104AD0001F5C4FF06408C5F2EB1C42F21079ABFB8F
:104AE0000C10BAF1020F73D3BEF1020F7AD3400952
:104AF00000FB18B1490041F001059D427CD206EB54
:104B00000A04555D515CAAF1020ACB45834604F8BC
:104B1000015C04F8021CE2D20A280FD2BAF1000F9D
:104B200000F08080BEF1000F00F085804DF600217E
:104B3000C0F600010144AAF1010015E0BAF1020F2C
:104B4000C0F08280BEF1020FC0F08780400040F0CC
:104B50000101994280F08A800AEB0603515C03F858
:104B6000011C1118AAF102000978315401B0BDE806
:104B7000000FF0BD4DF674304DF6F032C0F6000077
:104B8000C0F600022CE04DF651304DF6F032C0F682
:104B90000000C0F600022DE04DF636404DF6F03232
:104BA000C0F60000C0F6000210E04DF674304DF67D
:104BB0000042C0F60000C0F6000211E04DF61040C1
:104BC0004DF60042C0F60000C0F6000226211CE0AF
:104BD0004DF674304DF6E032C0F60000C0F600022B
:104BE0001C2112E04DF651304DF6E032C0F60000C7
:104BF000C0F60002232108E04DF62C304DF6E032DD
:104C0000C0F60000C0F60002252101F0EFF8FEDE3C
:104C10004DF684204DF6A022C0F60000C0F600023A
:104C20001A21F2E74DF6C3304DF69032C0F600007F
:104C3000C0F60002D4E74DF6A0304DF69032C0F633
:104C40000000C0F60002D5E74DF674304DF61C3278
:104C5000C0F60000C0F60002C2E74DF651304DF636
:104C60001C32C0F60000C0F60002C3E74DF62C303F
:104C70004DF61C32C0F60000C0F60002C4E70A3848
:104C8000B0FA80F04009704700683038B0FA80F020
:104C90004009704770470020704703207047F0B507
:104CA00003AF2DE9000F81B003F0DFFD00220023E8
:104CB00080468B4602F09CFC00230546C3F6F07349
:104CC00040465946002204F051F904460E46002D94
:104CD0001CBF00240026204631460022002302F09B
:104CE00087FC0546204631460022002304F0F2FBF3
:104CF000284331D1404659462246334603F05AFAFA
:104D000082468946404659460022002303F01CFA99
:104D100060B100232046C3F6E0733146002202F062
:104D200031FC60B90023C3F6F0730EE00023204687
:104D3000CBF6E0733146002203F006FA10B1D046FC
:104D4000CB4609E00023CBF6F073504649460022DB
:104D500004F08AFA80468B4600234046CCF2E013EA
:104D60005946002202F00EFC10B14FF0004427E03B
:104D700000224FF6FF73CFF6C072C4F2DF13404635
:104D8000594603F0E1F910B16FF0004418E0002338
:104D90004046CCF2E01359464FF4001203F0D4F928
:104DA00005464046594603F0AFFC75B10023044662
:104DB000C4F2E01340465946002202F0E3FB20B162
:104DC000204601B0BDE8000FF0BD4DF65C404DF649
:104DD000F042C0F60000C0F600022B2101F006F8F8
:104DE000FEDEF0B503AF2DE9000F81B003F03DFD0D
:104DF0000022002380468B4602F0FAFB0023054682
:104E0000C3F6F07340465946002204F0AFF804465A
:104E10000E46002D1CBF00240026204631460022ED
:104E2000002302F0E5FB0546204631460022002320
:104E300004F050FB284331D14046594622463346C0
:104E400003F0B8F9824689464046594600220023BD
:104E500003F07AF960B100232046C3F6E0733146CF
:104E6000002202F08FFB60B90023C3F6F0730EE05E
:104E700000232046CBF6E0733146002203F064F9AC
:104E800010B1D046CB4609E00023CBF6F073504674
:104E90004946002204F0E8F980468B46BBF1000F3A
:104EA0000ED400224FF6FF73CFF6E072C4F2EF1378
:104EB0004046594603F053FC20B94FF0FF3419E047
:104EC000002417E000234046CBF6F0735946002239
:104ED00003F03AF905464046594603F09FFC75B188
:104EE00000230446C4F2F01340465946002202F063
:104EF00049FB20B1204601B0BDE8000FF0BD4DF6E2
:104F00005C404DF60052C0F60000C0F600022B21B6
:104F100000F06CFFFEDEF0B503AF4DF804BD02F00B
:104F2000E0FE0021044602F0C3FE064620464FF094
:104F30007E5104F0E6F90546002E18BF00252846EC
:104F4000002102F0B5FE06462846002103F064FF6A
:104F5000304320D12046002103F0E6FF06462046DC
:104F6000294603F0A1FF0446284646B14FF07C5184
:104F700004F0A5F978B920464FF07E5108E04FF0D3
:104F80003F4103F0D1FF30B900212046CBF68071BC
:104F900004F0B5F90446002C0AD44FF600712046FF
:104FA000C4F27F7104F062F920B94FF6FF7513E087
:104FB000002511E000212046CBF6807103F0B4FFFC
:104FC0000646204603F007FC56B1054620464FF042
:104FD0008F4104F074F918B128465DF804BBF0BDA8
:104FE0004DF65C404DF61052C0F60000C0F60002CF
:104FF0002B2100F0FBFEFEDEF0B503AF4DF804BD43
:1050000002F06FFE0021044602F052FE06462046E2
:105010004FF07E5104F075F90546002E18BF0025AB
:105020002846002102F044FE06462846002103F0EF
:10503000F3FE304320D12046002103F075FF0646E1
:105040002046294603F030FF0446284646B14FF07B
:105050007C5104F034F978B920464FF07E5108E0D5
:105060004FF03F4103F060FF30B900212046CBF6FE
:10507000807104F044F90446002C08D40021204635
:10508000C4F27F3104F0F2F818B9FF2513E00025CF
:1050900011E000212046CBF6807103F045FF064663
:1050A000204603F098FB56B1054620464FF0874155
:1050B00004F005F918B128465DF804BBF0BD4DF6C3
:1050C0005C404DF62052C0F60000C0F600022B21D5
:1050D00000F08CFEFEDE7047704770477047D4D4F6
:1050E000F0B503AF2DE9000F81B0D7F808900E4658
:1050F0000446C9B2481E984615460A282BD8DFE850
:1051000010F00B0043014301350040004C00430107
:105110004301430165005B00E8B2811E102900F2E3
:10512000C480DFE811F01100F800FE003101040135
:105130000A01310110013101310131013101310127
:105140003101310131011601B9F11C0F40F01C8110
:105150001C20002110E1132902BFE8B26028B9F138
:10516000080F40F0118108200A2105E1E8B2042867
:1051700000F20A81DFE800F003C7C9CBCD0013209D
:1051800005E1E8B2002850D0012808BFB9F1020FAC
:1051900040F0FA8002200C21EEE0E8B21D2821DC6C
:1051A000002800F09A80132808BFB9F1040F40F0DE
:1051B000EB8004201221DFE0E8B2322808BFB9F109
:1051C000100F40F0E18010200B21D5E0E8B2042858
:1051D00032D0092808BFB9F13C0F40F0D5803C20FF
:1051E0001921C9E01E2800F08480242808BFB9F1E5
:1051F000240F40F0C98098F80200811E092980F030
:10520000C08098F80300013802289CBF98F81E005F
:10521000072800F2B980012101FA00F010F0C90F4F
:1052200000F0B28024201121A6E0B9F1020F40F075
:10523000AB8002200D219FE0B9F1280FC0F0A480BF
:1052400040461E2100F06FF9002800F09D8008F113
:105250001E000A2100F067F9002800F095804EF644
:10526000EF60A9F1280ACEF6EE6048F688010AFB45
:1052700000F0C0F688014FEA7000884200F2848096
:1052800008F12800BAF1000F00F08C805146BAF105
:105290001E0F28BF1E21AAEB010A00EB010B00F034
:1052A00042F900285846EDD16EE0212857D0352824
:1052B0006AD1B9F1080F67D34AF6AB21A9F108000A
:1052C000CAF6AA21484345F25651C1F255514FEA58
:1052D000B000884258D2072059E0B9F1140F53D1D9
:1052E00098F80000002840D0042841D114200F2154
:1052F00042E0B9F1140F47D198F80500052843D2D0
:105300001420092138E0142041E015203FE0162048
:105310003DE017203BE0B9F1100F35D110200121FD
:105320002AE0B9F1120F2FD11220022124E0B9F1A5
:10533000340F29D1342004211EE0B9F15C0F23D1B0
:105340005C20032118E0B9F1140F1DD114200821AD
:1053500012E0B9F1240F17D1242005210CE0B9F196
:10536000140F11D11420062106E014200E2103E0B1
:10537000032809D2142010216160C4F80880E0607D
:105380000AE000283FF43DAF65741A20267460607F
:10539000C4F80880C4F80C900420208001B0BDE857
:1053A000000FF0BD1820F2E70144704700230EC043
:1053B000704780B56F468CB08446CDE900125CF82A
:1053C00008EF964511D38A422AD3D0F804C09445F9
:1053D00021BF00680844511A0CB028BF80BD104698
:1053E00061461A4601F0D3FBFEDE00214DF69452D1
:1053F000069102216846C0F600020391043005912F
:1054000008A9029208AA049147F26941C0F6000176
:1054100082E8031002A80B91194600F0D1FCFEDED1
:10542000084611461A4601F0D2FBFEDE80B56F46F3
:1054300043688B4282BF0068084480BD0846194615
:1054400000F0EBFCFEDE8068704740687047F0B506
:1054500003AF4DF8048D9046D0E90132934216D344
:105460009E1AB04538BF464694191AD29C4224D899
:105470000546A01AB04229D128681044324603F0EC
:1054800011FDAC60A8EB06005DF8048BF0BD4DF695
:1054900050504DF60062C0F60000C0F60002212117
:1054A00008E04DF630504DF61062C0F60000C0F630
:1054B00000021C2100F09AFCFEDE4DF62062204620
:1054C000C0F60002194601F062FBFEDE4DF63062C6
:1054D0003146C0F6000201F09AFBFEDEB0B502AF25
:1054E00004468068884206D9451A206801442A4645
:1054F00003F008F900E00025A560B0BD0020002100
:10550000704780B56F4690F800E090F801C02AB16E
:1055100011F8013B013A9E44F444F9D180F801C0EE
:1055200080F800E080BD80B56F4684B031B103469D
:105530000022985C013218B19142FAD1002006E0B5
:1055400001A8194601F084FB019880F0010004B025
:1055500080BD59B18C4603460021002013F8012B71
:10556000BCF1010C10440144F8D170470020002127
:1055700070477047F0B503AF2DE9000F81B080464A
:1055800040F2A4100D4642F20844C4F24220012128
:10559000C0F88011C4F20104226805F10C0B22F05E
:1055A0000102226001600021016048F65931206843
:1055B000C0F24F1140F4F01020F00200206054F8C7
:1055C000040C20F4106000F5006044F8040C606ADC
:1055D00020F470006062206840F0010020609BE8C9
:1055E000000E4FEA1920A0FB01010E09304600F021
:1055F000C0FB42F2A050C0F2260082450CD2BAF1A4
:10560000000F26D0B9FBFAF000282CD44000B0429D
:1056100002D9801B00F0ADFB206840F0080020603C
:1056200020680007FCD4206840F004002060206857
:105630004007FCD495E80E0040460EC00320A8F8B1
:10564000180008F10C0080E8000E01B0BDE8000F62
:10565000F0BD4DF6B0604DF69862C0F60000C0F6A1
:105660000002192108E04DF630704DF65472C0F674
:105670000000C0F60002212100F0B8FBFEDED4D409
:1056800080B56F46C8B2112800F29F800FF2040166
:10569000DFE800F0091119212931394149515A62D5
:1056A0006A727A828A9242F20C40C4F20100416826
:1056B00062F3020146E042F20C40C4F2010041688C
:1056C00062F3C5013EE042F20C40C4F201004168C1
:1056D00062F3881136E042F20C40C4F201004168E6
:1056E00062F34B212EE042F20C40C4F2010041680B
:1056F00062F30E3126E042F20C40C4F20100416830
:1057000062F3D1311EE042F20C40C4F20100416864
:1057100062F3944116E042F20C40C4F20100416889
:1057200062F357510EE042F20C40C4F201004168AE
:1057300062F31A6106E042F20C40C4F201004168D3
:1057400062F3DD61416080BD42F20C40C4F20100B1
:10575000016862F3020136E042F20C40C4F201003B
:10576000016862F3C5012EE042F20C40C4F2010070
:10577000016862F3881126E042F20C40C4F2010095
:10578000016862F34B211EE042F20C40C4F20100BA
:10579000016862F30E3116E042F20C40C4F20100DF
:1057A000016862F3D1310EE042F20C40C4F2010014
:1057B000016862F3944106E042F20C40C4F2010039
:1057C000016862F35751016080BD4DF664704DF67B
:1057D0005472C0F60000C0F60002282100F006FB5B
:1057E000FEDEF0B503AF4DF804BD42F208460546B3
:1057F000C4F201060C46706C2A7EFFF741FFF06A86
:105800004FF2FF71CFF6BF7164F30400F0623068AD
:105810000840697E002918BF00F5006000F580008F
:10582000306030684002FCD456F8080C8007FBD585
:10583000706C5DF804BBF0BD0420C4F20100704739
:105840000021022201700420C4F20100016862F309
:105850001A6101607047096802688A4284BF0020AB
:1058600070474268007A20B10020914238BF012081
:1058700070470020914298BF0120704740F280108D
:105880000121C4F24220C0F88011016000210160B2
:1058900001207047704700218162016281610161CE
:1058A000816001607047704740F288100121C4F2A6
:1058B0004220C0F88011016000210160704740F271
:1058C0008C100121C4F24220C0F880110160002137
:1058D0000160704740F290100121C4F24220C0F8EC
:1058E0008011016000210160704743F60000C4F29E
:1058F0000100704744F60000C4F200007047704792
:1059000040F60000C4F20100704740F60040C4F2C7
:105910000100704741F20000C4F2010070470A60C4
:105920004968C0E90021704700214FF4E1328171DC
:1059300002608180704705207047062070471C3048
:10594000704710307047183070470C307047F0B512
:1059500003AF2DE9000F85B00D7A0495B5B14A7AF1
:10596000931CD1E90026002A04BF40F60016C0F2BD
:105970003D06A6FB03639BB14DF690704EF21C12E0
:10598000C0F60000C0F60002212151E00A6812B101
:105990004E68012204E041F200260022C0F27A069D
:1059A00091F80DB04AF2002CC0F24A4C1923BBF119
:1059B0000B0F0CF1010588BF1A23AE422FD25B44B6
:1059C00003F01F0326FA03F4AC423FBFCB7A0293E5
:1059D000053303F007033FBF039324FA03F945F2AD
:1059E0000113C0F2252338BF994518D20D7B0195CC
:1059F0002B466B1D03F0070324FA03F8E0459FBF15
:105A000091F80AA0022505EB4A05EDB29FBFB8FB4D
:105A1000F5FC49F68175C0F2D505AC450BD34EF2C5
:105A20002C104EF2B812C0F60000C0F600028B2116
:105A300000F0DCF9FEDE41F2000EC4F2020E4AB1C3
:105A4000DEF8005045F48035CEF80050DEF8005006
:105A5000AD03FBD5049DCDB1DEF80450002A25F43A
:105A6000741518BF05F58035497A01F00F0145EA34
:105A70008141CEF80410DEF8001041F08071CEF8BC
:105A80000010DEF800108901FBD502220121C0E9D7
:105A9000004901FA03F3C0E902864375039BC0F88D
:105AA00010C0029D994001754FF6F371DEF80400B5
:105AB0008843019940EA8A3040EAC12040EA052043
:105AC00040EA0B101044CEF8040005B0BDE8000F0A
:105AD000F0BD406870478068704780B56F46816848
