:020000040800F2
:100000000020002031010008952A00084F3C00081C
:10001000952A0008952A0008952A0008000000008B
:10002000000000000000000000000000952A000809
:10003000952A000800000000952A0008952A00086B
:10004000952A0008952A0008952A0008952A000894
:10005000952A0008952A0008952A0008952A000884
:10006000952A0008952A0008952A0008952A000874
:10007000952A0008952A0008952A0008952A000864
:10008000952A0008952A0008952A0008000000001B
:10009000000000000000000000000000952A000899
:1000A000952A0008952A0008952A0008952A000834
:1000B000952A0008952A0008952A0008952A000824
:1000C000952A0008952A0008952A0008952A000814
:1000D000952A0008952A0008952A0008952A000804
:1000E000952A0008952A0008952A0008952A0008F4
:1000F000952A0008952A0008000000000000000072
:10010000952A000800000000952A0008952A00089A
:10011000952A0008952A0008952A0008952A0008C3
:10012000952A0008952A0008952A0008952A0008B3
:1001300002F0B2FC084809490022814201D004C003
:10014000FBE707480749084A814202D008CA08C0AD
:10015000FAE700F08FF900DE000000200400002024
:1001600000000020000000209049000881B001B08C
:10017000704780B56F46ADF5087D07900A910C90E9
:1001800000F074F911901D9042F60040C4F2010095
:1001900004905B906190629002F06BFC5C905890D0
:1001A00058995E915D915D9957915A905A986090D7
:1001B0005F905F98599057A8559059A856905598B8
:1001C000569900F0F7FA0146049809686390649123
:1001D000659002F055FC079800F048F9012115914F
:1001E00017901C9015A81690169842F61041C4F26C
:1001F000010105913D913E90002106913C913C9971
:1002000040913F913F993B913BA93A913A9900F037
:1002100005FB01460598096841904291439002F020
:100220002FFC079800F022F906990E90229042F6D2
:100230002440C4F20100239024902591269002F0DE
:100240001FFC079800F012F908900AA802F089FA3A
:10025000411E099100284FD0FFE709980899139192
:10026000149020B9FFE700208DF84B0008E00999B1
:100270000020B1F5803F38BF01208DF84B00FFE72B
:100280009DF84B00C00720B9FFE701208DF84A0018
:1002900026E00898099918911A901B9018A81990AF
:1002A000199842F62C41C4F2010103912A912B9036
:1002B0000021299129992D912C912C99289128A9D7
:1002C0002791279900F0BFFA0146039809682E90FC
:1002D0002F91309002F0D4FB02208DF84A00FFE706
:1002E0009DF84A0000F0D9FEC0B28DF82F009DF8AD
:1002F0002F0002280CD0A6E043F6F040C0F6000024
:1003000043F6D442C0F60002212102F0E8FBFEDEF3
:10031000079800F0ABF801901090209042F6004052
:10032000C4F2010002906C907290739002F0A1FBF5
:100330006D90699069996F916E916E9968916B90CB
:100340006B987190709070986A9068A866906AA88F
:1003500067906698679900F0F9F901460298096874
:1003600074907591769002F08BFB01981F9042F685
:100370001440C4F201000090349000203390339870
:10038000369035903598329032A83190319800F0FF
:10039000C4F901460098096837903891399002F005
:1003A0006FFB019902981E914A905090519002F073
:1003B00060FB4B90479047994D914C914C994691D9
:1003C000499049984F904E904E98489046A8449036
:1003D00048A845904498459900F0D2F90146029802
:1003E000096852905391549002F04AFB079800F02C
:1003F0003DF8014602980F9121917D908390849061
:1004000002F037FB7E907A907A9980917F917F9964
:1004100079917C907C988290819081987B9079A84A
:1004200077907BA878907798789900F05CF90146EE
:100430000298096885908691879002F021FB02203E
:100440008DF82E000DE09DF82F008DF8370043F653
:100450001451C0F6000100F0F0FDC0B28DF82E007E
:10046000FFE79DF82E000DF5087D80BD81B000905E
:1004700001B0704780B56F4684B000F05CFD00F0BD
:1004800025FAFFF773FE00F062FD002007F8050C67
:1004900000F0E9F907F8060C17F8060C07F8090C44
:1004A000A7F10900039000F0C5FDFEDE83B0014610
:1004B000009102910020B0EB114F07D1FFE70098A7
:1004C000ADF806000020ADF8040003E00120ADF80F
:1004D0000400FFE7BDF80400BDF8061003B0704744
:1004E00081B0009001B07047704781B00090006803
:1004F00001B0704780B56F468AB00390069041F214
:100500000000C4F2020001900790099001F04CF83D
:100510000B21029102F035F90198089001F049F899
:10052000029902F039F9019801F043F8029902F0BA
:100530001DF9039904A800F040F80AB080BD80B509
:100540006F469CB00390049105910790012107F834
:100550004D1C099005A806900699019142F60C40A1
:10056000C4F201000290109011911790189002F0BF
:1005700080FA0146019812910D910D9A14921392EE
:10058000139A0C920F910F991691159115990E913E
:100590000CA90A910EA90B910A990B9A00F024F963
:1005A00001460298096819901A911B9002F068FAA6
:1005B0001CB080BD82B002B0704780B56F4696B067
:1005C00002910146029803910591069000F097F977
:1005D000049004A800F0ADFE47F6D501C2F2E9612F
:1005E00048434FEAF00048F63711C0F24101884213
:1005F00012D8FFE704A800F09CFE44F6D351C1F2E4
:100600006201A0FB0102900907904FF0FF3101EB5E
:1006100092110191E0B30BE043F62450C0F60000C4
:1006200043F6A852C0F60002272102F058FAFEDE77
:100630000198FFF73BFF43F6F452C0F6000200F0CA
:100640006DFF0146039827F8361C0A900B90A7F11E
:1006500036000990099842F62841C4F20101009140
:100660000F91109000210E910E99129111911199F4
:100670000D910DA90C910C9900F016F80146009807
:10068000096813901491159002F0FAF916B080BD24
:1006900043F6D050C0F6000043F6B852C0F6000250
:1006A000212102F01CFAFEDE80B56F468CB002906C
:1006B000039109910B910A910A990298008805917A
:1006C00027F8160C059907910968019100F091FD32
:1006D000024601980599089162F30F000860059899
:1006E00004900CB080BD8CB00190029109910B91E7
:1006F0000A910A980490059001218DF81A10059826
:10070000079000688DF81B100599089140F00100D2
:100710000860059803900CB070478BB0019008906A
:100720000A90099009980390049001218DF8161001
:100730000498069000688DF817100499079140F00E
:1007400001000860049802900BB070478CB00190D3
:10075000029109910B910A910A9804900590012148
:100760008DF81A100598079000688DF81B100599F0
:10077000089140F004000860059803900CB07047A1
:100780008CB00190029109910B910A910A98049002
:10079000059000218DF81A1005980790006820F048
:1007A00004008DF81B1005990891086005980390C6
:1007B0000CB070478CB00190029109910B910A9195
:1007C0000A980490059000218DF81A10059807905A
:1007D000006820F001008DF81B1005990891086051
:1007E000059803900CB0704780B56F468CB00192AD
:1007F0000290039104920591069108680090029876
:10080000FFF773FE00990246019811430790089183
:1008100009900A9101600B900CB080BD80B56F46C5
:1008200088B00091019002910198FFF75EFE0146A9
:100830000098C94389B20490059106900791016020
:10084000039008B080BD88B00091014600980191E6
:100850000290019909680490059106900791016042
:10086000039008B0704781B08DF802008DF8030046
:100870008DF801009DF801008DF800009DF8000042
:1008800001B0704780B56F4682B0019000F002F869
:1008900002B080BD80B56F4682B001904FF47A718E
:1008A000A0FB0110009128B9FFE7009801F04BFF71
:1008B00002B080BD43F67060C0F6000043F65C6293
:1008C000C0F60002212102F00AF9FEDE40F2010129
:1008D000C2F2000101200870704780B56F4682B0F7
:1008E000019000F002F802B080BD80B56F4682B082
:1008F0000190FFF7FFFDFFF75DFE02B080BD80B500
:100900006F4682B0019001F0F3F802B080BD80B56F
:100910006F46B8B0059106900B900C9100F08CFDDD
:10092000014607910D90022007F8BD0C17F8BD0C89
:10093000022808D0FFE717F8BD0C07F8A50CC00780
:10094000002854D13AE00599069A0320099009A895
:100950000A900A98029010921191129000F06CFD8A
:1009600002991390043004900F910F9903912C90E9
:100970002D913390349002F07CF8014603982E912B
:100980002991299A30922F922F9A28922B912B9964
:100990003291319131992A9128A926912AA927913A
:1009A0002699279A00F08DFA014604980968359037
:1009B0003691379002F064F838B080BD0798103057
:1009C0000190209000201F901F9822902190219844
:1009D0001E901EA81D901D9800F0B5F801460198C4
:1009E000096823902491259002F04AF8ABE7079814
:1009F00010300090179000201690169819901890BB
:100A00001898159015A81490149800F008F901464C
:100A1000009809681A901B911C9002F031F892E737
:100A200080B56F46B8B0059106900B900C9100F020
:100A300003FD014607910D90022007F8BD0C17F841
:100A4000BD0C022808D0FFE717F8BD0C07F8A50C6D
:100A5000C007002853D139E00599069A0320099070
:100A600009A80A900A98029010921191129000F031
:100A7000E3FC0299049013900F910F9903912C902D
:100A80002D913390349001F0F4FF014603982E919C
:100A90002991299A30922F922F9A28922B912B9953
:100AA0003291319131992A9128A926912AA9279129
:100AB0002699279A00F01DFA014604980968359096
:100AC0003691379001F0DCFF38B080BD07981030C8
:100AD0000190209000201F901F9822902190219833
:100AE0001E901EA81D901D9800F063F80146019805
:100AF000096823902491259001F0C2FFACE7079884
:100B000010300090179000201690169819901890A9
:100B10001898159015A81490149800F009F801463B
:100B2000009809681A901B911C9001F0A9FF93E7A7
:100B300087B001900290802103910490059101609B
:100B4000069007B0704780B56F468AB00190049058
:100B500018200290002050B9FFE7029800F01F0211
:100B600001219140009110F0E00F16D10BE043F607
:100B70000070C0F6000043F6EC62C0F600021C21D3
:100B800001F0ADFFFEDE01980099059006910790F7
:100B90000891016009900AB080BD43F63070C0F63C
:100BA000000043F61C72C0F60002232101F097FFFB
:100BB000FEDE80B56F468AB0019004901720029047
:100BC000002050B9FFE7029800F01F020121914078
:100BD000009110F0E00F16D10BE043F60070C0F664
:100BE000000043F6EC62C0F600021C2101F077FF22
:100BF000FEDE01980099059006910790089101602A
:100C000009900AB080BD43F63070C0F6000043F68C
:100C10001C72C0F60002232101F061FFFEDE87B0E6
:100C2000019002904FF4807103910490059101604E
:100C3000069007B0704782B00090019121F070409B
:100C40000099096840EA017002B0704782B00090D4
:100C5000019121F00F0000990968084302B0704724
:100C600080B56F469CB00390059007F8561C07F8B6
:100C7000551C04A8079017F8550CC007E0B9FFE70A
:100C800004A8099000F0D8FB1030029016900020C4
:100C900015901598189017901798149014A8139001
:100CA000139800F0F7F801460298096819901A9114
:100CB0001B9001F0E5FE1BE004A8089000F0BCFBCF
:100CC000103001900D9000200C900C980F900E9019
:100CD0000E980B900BA80A900A9800F06FF8014646
:100CE0000198096810901191129001F0C9FEFFE778
:100CF000039904A8FFF70BFE00F052F81CB080BD6A
:100D000080B56F469CB00390059007F8561C07F815
:100D1000551C04A8079017F8550CC007E0B9FFE769
:100D200004A8099000F088FB103002900D9000207C
:100D30000C900C980F900E900E980B900BA80A90A8
:100D40000A9800F0B3F801460298096810901191D2
:100D5000129001F095FE1BE004A8089000F06CFBD7
:100D6000103001901690002015901598189017904B
:100D70001798149014A81390139800F055F8014692
:100D80000198096819901A911B9001F079FEFFE70C
:100D9000039904A8FFF744FE00F009F81CB080BDD9
:100DA00080B56F4682B000F0BCF802B080BD80B55F
:100DB0006F4682B000F0B5F802B080BD80B56F46D6
:100DC0008AB00190049018200290002050B9FFE7EB
:100DD000029800F01F0201219140009110F0E00FF5
:100DE00016D10BE043F60070C0F6000043F65472D3
:100DF000C0F600021C2101F072FEFEDE019800998F
:100E00000590069107900891016009900AB080BD95
:100E100043F63070C0F6000043F66472C0F600027C
:100E2000232101F05CFEFEDE80B56F468AB00190A2
:100E3000049017200290002050B9FFE7029800F0BC
:100E40001F0201219140009110F0E00F16D10BE03C
:100E500043F60070C0F6000043F65472C0F600027C
:100E60001C2101F03CFEFEDE0198009905900691E0
:100E700007900891016009900AB080BD43F6307078
:100E8000C0F6000043F66472C0F60002232101F0B0
:100E900026FEFEDE87B0019002904FF48071039130
:100EA000049005910160069007B0704787B00190EB
:100EB000029080210391049005910160069007B093
:100EC000704780B56F468CB00092029003910492F7
:100ED00005910691096801910199FFF7B7FE014656
:100EE00000980790089109900A9101600B900CB04E
:100EF00080BD80B56F468CB0009202900391049241
:100F000005910691096801910199FFF794FE014648
:100F100000980790089109900A9101600B900CB01D
:100F200080BD80B56F46FFF7DFFA80BD80B56F46A4
:100F300001F0AEFD80BD80B56F4601F0A7FD80BD1C
:100F400040F20001C2F2000101200870704780B534
:100F50006F4682B000F002F802B080BDF0B503AF7A
:100F60004DF804BDC0B0FFF701F9FFF7E9FF00F04D
:100F700050F90BA8009000F04FF900991DAA1046F7
:100F8000B1E87850A0E8785091E8785080E878503F
:100F90000AA801903F902FA90846B2E87850A0E82F
:100FA000785092E8785080E878502BA800F0A8FD9F
:100FB000019A2B982C992D9BDDF8B8C0CDF8F8C07C
:100FC0003D933C913B9017A803903BA900F0F6FAA3
:100FD00000F04FF9002007F86A0C17F86A1C29A8DE
:100FE0000290FFF73DFE02980121059107F8691C68
:100FF00017F8691CFFF784FE0398FFF76EFC05984D
:10100000FFF740FC01462AA80490FFF7B2F8C0B2EF
:1010100043F68071C0F6000100F01EF80498FFF757
:1010200025FA0599FFF78BFAFFF780FF40B05DF8CE
:1010300004BBF0BD81B0FFE7FEE781B08DF8000092
:101040009DF800008DF802008DF803008DF8010076
:101050009DF8010001B0704780B56F4684B00191E2
:1010600007F8060C17F8060C022802D1FFE704B0B7
:1010700080BD019817F8061C07F8051C6946086032
:1010800043F69070C0F6000043F6BC73C0F6000350
:101090002B217A1F01F03AFDFEDE82B08DF80100AF
:1010A0009DF80100022804D1FFE702208DF802001C
:1010B0000AE09DF801008DF807008DF803009DF807
:1010C00003008DF80200FFE79DF8020002B07047B0
:1010D00080B56F4682B00190FFE7042007F8050C49
:1010E00017F8050C00F002F8F7E7D4D480B56F4686
:1010F0008AB007F8190C17F8190C02900299DFE86A
:1011000001F0041C1D1E1F00FEDE69460020086061
:1011100044F20001C0F6000144F20803C0F60003E7
:1011200004A80190012200F00EF8019844F2580141
:10113000C0F6000101F0BDFCFEDE02E001E000E0CF
:10114000FFE70AB080BD80B56F4694B0029303926A
:1011500004910590B8680690109111921293139023
:1011600082420AD3FFE703990698421C002091426D
:1011700088BF012007F8310C03E0012007F8310C8B
:10118000FFE717F8310CC007B8B9FFE706980599D3
:10119000029A039BDDF810C04FF0000ECDF838E046
:1011A000C1F808C0CB60DDF838C00F9BC1F800C0A3
:1011B0004B600A61486114B080BD69460020086038
:1011C00044F27401C0F6000144F27C03C0F600034F
:1011D00008A801900122FFF7B6FF019844F2C80168
:1011E000C0F6000101F065FCFEDE81B0009001B0A8
:1011F000704781B0ADF80000ADF8020080B201B0D8
:10120000704781B08DF802008DF80300C0B201B0C4
:10121000704781B001B07047B0B502AF99B00021FE
:101220000C910E9110911291149116910C9A0D99A6
:10123000009201910E9A0F9902920391109A1199BE
:1012400004920591129A139906920791149A15998E
:1012500008920991169A17990A920B916946B1E87A
:101260003C50A0E83C5091E83C5080E83C5019B01C
:10127000B0BD80B56F4686B041F20000C4F20200F6
:1012800000900390049000F08FF90321019101F088
:1012900078FA0098059000F08CF9019901F07CFA39
:1012A000009800F086F9019901F060FA00F09AF8D0
:1012B00000F07CF800F06CF800F07FF800F06FF8B8
:1012C00000F082F800F05DF800F085F800F098F882
:1012D00000F09DF800F047F800F04CF800F09EF8A0
:1012E00000F087F800F038F800F09FF806B080BDF5
:1012F00080B56F4682B0019000F002F802B080BD68
:1013000080B56F4682B001900090002028B9FFE7B9
:10131000009800F013F802B080BD44F24010C0F60F
:10132000000044F22C12C0F60002212101F0D7FB8C
:10133000FEDE81B00090006801B0704780B56F4656
:1013400084B00190039000F0C2F800F0C0F801985A
:101350000290029804B080BD80B56F4682B000F064
:10136000A5F802B080BD80B56F4682B000F09EF84F
:1013700002B080BD80B56F4682B000F097F802B031
:1013800080BD80B56F4682B000F090F802B080BD9D
:1013900080B56F4682B000F089F802B080BD80B59C
:1013A0006F4682B000F087F802B080BD80B56F460E
:1013B00082B000F07BF802B080BD80B56F4682B08D
:1013C00000F079F802B080BD80B56F4682B000F0C1
:1013D0006DF802B080BD80B56F4682B000F066F84F
:1013E00002B080BD80B56F4682B000F05FF802B0F9
:1013F00080BD80B56F4682B000F058F802B080BD65
:1014000080B56F4682B000F051F802B080BD80B563
:101410006F4682B000F04AF802B080BD80B56F46DA
:1014200082B000F043F802B080BD80B56F4682B054
:1014300000F03CF802B080BD80B56F4682B001205C
:101440000090002028B90099DFE801F00F151B215A
:10145000270044F26110C0F6000044F2E412C0F626
:101460000002282101F03BFBFEDE40F60000C4F242
:101470000100019017E040F60040C4F20100019025
:1014800011E041F20000C4F2010001900BE041F2D2
:101490000040C4F20100019005E041F60000C4F2F2
:1014A00001000190FFE7019802B080BD80B56F4652
:1014B00000F00FF880BD704781B08DF801008DF805
:1014C00003008DF802009DF8020001B070477047DC
:1014D0007047704782B001900068012804D1FFE78F
:1014E00001208DF8030003E000208DF80300FFE7E2
:1014F0009DF8030002B0704782B001900078C007E9
:1015000020B1FFE701208DF8030003E000208DF8F3
:101510000300FFE79DF8030002B0704780B56F46F7
:1015200084B00192ADF80800ADF80A10BDF80800CB
:1015300030B9FFE7BDF80A0027F8020C04B080BDFF
:1015400001986946086044F2F410C0F6000044F2C5
:101550002023C0F600032B2103AA01F0D7FAFEDEF8
:1015600080B56F4684B00091029003910078C00767
:1015700058B9FFE7009844F23F21C0F60001082265
:1015800002F034F807F8090C0AE0009844F2302120
:10159000C0F600010F2202F029F807F8090CFFE756
:1015A00017F8090C04B080BD81B00090183001B06C
:1015B000704781B000900C3001B07047F0B503AFB8
:1015C0004DF8048DF8B00691149200F0DCFD0698F9
:1015D00041F20001C4F202011591FFF77BFF30B91F
:1015E000FFE70698007AC00700284FD1AEE041F22D
:1015F0000000C4F2020005903F904590469001F033
:1016000038FA40903C903C994291419141993B91EC
:101610003E903E984490439043983D903BA839902B
:101620003DA83A9039983A9900F0FEF8014605989D
:10163000096847904891499001F022FAFFE741F28A
:101640000000C4F202001D902090219001F011FAD8
:101650001C901C981F901E901E98089008A87290CD
:1016600073900898C0F3404007F81D0C07F81E0C53
:1016700017F81E0C8DF81F000DF11F006F90709071
:101680009DF81F00C0070028D9D0AAE70698417A24
:101690008DF827100DF127010A910B900A9A0292FA
:1016A0000B99019141F20400C4F2020003905090A2
:1016B000519252915890599001F0DBF901990246EC
:1016C000029853924D924D9B55935493549B4C9337
:1016D0004F924F9A57925692569A4E924CAA4A92CD
:1016E0004EAA4B924A9A4B9B00F0B8F801460398D9
:1016F00009685A905B915C9001F0C2F941F20000D8
:10170000C4F202000490639069906A9001F0B1F90C
:101710006490609060996691659165995F9162901F
:10172000629868906790679861905FA85D9061A8E3
:101730005E905D985E9900F0D0F8014604980968C3
:101740006B906C916D9001F09BF946E0DDF818E02C
:101750000EF1080C0EF10A030EF10B020EF10C0152
:101760000EF10D00CDF838E0CDF83CC01093119289
:101770001291139041F20400C4F2020000902E90E6
:101780003490359001F075F901462F910EAB22A8E7
:10179000024693E8705182E870512B912B9A319256
:1017A0003092309A2A922D912D993391329132991B
:1017B0002C912AA928912CA929912899299A00F0DD
:1017C000A6F801460098096836903791389001F0E4
:1017D00057F978B05DF8048BF0BD41F20000C4F217
:1017E000020017901A901B9001F043F9169016987A
:1017F0001990189018980D900DA8759076900D98E6
:10180000C0F3406007F8110C07F8120C17F8120C1F
:101810008DF833000DF133006E9071909DF8330018
:10182000C0070028D9D091E78CB0019002910991AE
:101830000B910A910A980490059001218DF81A10D5
:101840000598079000688DF81B100599089140F4E1
:1018500080300860059803900CB0704780B56F46E3
:1018600096B00390049105920693109312931193EE
:101870001199039800780C9107F8210C0C990E919E
:10188000096821F470110191FFF7BBFC0146019832
:1018900001F00F020C990F9140EA824008600C9809
:1018A000139015901490149802900498FFF712FE6C
:1018B00002460298089007F8322C08980A900068AF
:1018C00020F4803007F8312C08990B9140EA02404F
:1018D00008600898079016B080BD8CB00190029106
:1018E00009910B910A910A980490059001218DF8B5
:1018F0001A100598079000688DF81B10059908913B
:1019000040F080700860059803900CB0704780B577
:101910006F46B2B0039207900A910B922F923192C8
:10192000309230990191406900780D9107F88D0C43
:10193000FFF7C2FD01990F9107F8850C0F991191DE
:10194000096821F440410291FFF75BFC0299039A78
:101950000346079803F0030C0F9B129341EA8C3166
:1019600019602C922E922D922D99006900788DF895
:1019700024009DF824001F9107F8450C1F99219120
:10198000096821F460510491FFF73BFC0499024679
:10199000079802F007031F9A229241EAC3211160BF
:1019A0001F9929912B912A912A99C068007807F8EC
:1019B000A30C17F8A30C179107F8650C1799199148
:1019C000096821F4E0610591FFF71BFC05990246C7
:1019D000079802F00703179A1A9241EA032111604F
:1019E000179926912891279127998068007807F800
:1019F000A20C17F8A20C1B9107F8550C1B991D910E
:101A0000096821F0F0010691FFF7FBFB06990246F9
:101A1000079802F00F031B9A1E9241EA031111600E
:101A20001B99239125912491249908914068FFF7EF
:101A300063FD30B9FFE707980068FFF74BFDF8B981
:101A40001AE0022007F8A10CFFE7089917F8A10C8B
:101A5000139107F8750C1399159109680091FFF718
:101A6000D0FB024600981399169162F301000860BA
:101A700013980C9032B080BD002007F8A10CE4E769
:101A8000012007F8A10CE0E780B56F4686B0029010
:101A900005900830FFF74DFC01460298039100F0D5
:101AA00022F8C0B2012803D1FFE70120049002E030
:101AB00002200490FFE703980499A0FB0110019114
:101AC00028B9FFE70198FFF739FC06B080BD44F262
:101AD000B020C0F6000044F2D422C0F6000221215A
:101AE00000F0FDFFFEDE81B00090407D01B0704748
:101AF00080B56F4682B00190FFF7C6FF02B080BD8F
:101B0000F0B503AF4DF804BDB6B01B9101461B986C
:101B10001C91016840681D911E901D98012804D1F8
:101B2000FFE71E982B901F9005E040F60010C0F2D2
:101B30003D001F90FFE71B98006A012808D1FFE7CE
:101B40001B98406A19902C901F981A9068B106E073
:101B500001202090FFE72098012812D018E0199862
:101B60001A99B0FBF1F02090F5E744F20030C0F68E
:101B7000000044F2E422C0F60002192100F0AFFF99
:101B8000FEDE00208DF88C001D9801285ED061E0FB
:101B9000209818B9FFE7209870B110E0209810281D
:101BA000F9D8FFE720982590FFE79DF89400811E63
:101BB0001891022813D305E001202590F5E71020A5
:101BC0002590F2E718988DF8990001208DF898007B
:101BD0001F982599A0FB01101791B8B90BE044F2AA
:101BE0003030C0F6000044F21C32C0F60002212161
:101BF00000F075FFFEDE17989DF898209DF899106B
:101C00008DF884208DF8851022900BE044F2B020EE
:101C1000C0F6000044F25432C0F60002212100F068
:101C20005EFFFEDE1B989DF884209DF8851013460C
:101C300014930B4615938DF8B8208DF8B91022999E
:101C400016912F918068012815D01AE01E982D90CA
:101C5000249005E041F20020C0F27A002490FFE7D2
:101C60009DF88C109DF88D008DF884108DF88500FE
:101C700024982290D6E71B98C06813903090B0B19A
:101C80000CE0072007F84D0CFFE717F84D0C07F89C
:101C9000470C17F8470C0B287DD871E0169813995C
:101CA000B0FBF1F001461291002810D20BE044F293
:101CB0000030C0F6000044F26432C0F60002192180
:101CC00000F00DFFFEDE1298022808D00BE01298FB
:101CD0000128F8D8FFE7072007F84D0CD5E70820C2
:101CE00007F84D0CD1E71298022804D8FFE71298A4
:101CF00005280CD807E012980528F8D8FFE7092036
:101D000007F84D0CC1E712980B280CD807E0129881
:101D10000B28F8D8FFE70A2007F84D0CB5E7129812
:101D200027280CD807E012982728F8D8FFE70B20BF
:101D300007F84D0CA9E712985F280CD807E0129815
:101D40005F28F8D8FFE70C2007F84D0C9DE71298A4
:101D5000BF280CD807E01298BF28F8D8FFE70D205D
:101D600007F84D0C91E70F2007F84D0C8DE71298FE
:101D7000C0090228F7D8FFE70E2007F84D0C84E7CA
:101D800017F84D0C07F8450C17F8450CC11F1191B9
:101D9000072851D346E017F84D0C07F8460C17F802
:101DA000460C811F109106280AD3FFE7109800F017
:101DB0001F02012191400F9110F0E00F0FD10BE0B5
:101DC00044F23030C0F6000044F27432C0F6000233
:101DD000212100F084FEFEDE0F9890B10BE044F26A
:101DE000A030C0F6000044F28432C0F60002232185
:101DF00000F075FEFEDE16980F99B0FBF1F027900B
:101E00000BE044F20030C0F6000044F2C432C0F6E9
:101E10000002192100F063FEFEDE1B980069012814
:101E200037D03BE0119800F01F02012191400E9144
:101E300010F0E00F0FD10BE044F23030C0F600009C
:101E400044F2D432C0F60002212100F048FEFEDE4A
:101E50000E9890B10BE044F2A030C0F6000044F2BE
:101E6000E432C0F60002232100F039FEFEDE1698AF
:101E70000E99B0FBF1F02790CFE744F20030C0F6A6
:101E8000000044F2F432C0F60002192100F027FEEF
:101E9000FEDE1B9840693190299010E0279845F2AA
:101EA0000011C0F22521884206D3FFE745F2001059
:101EB000C0F22520299002E027982990FFE7279972
:101EC0002998084402460D92884205D3FFE70D98F1
:101ED000411E0C9180B10BE044F22040C0F600009E
:101EE00044F20442C0F600021C2100F0F8FDFEDEC0
:101EF00029980B90C8B10BE044F23030C0F60000D6
:101F000044F23C42C0F60002212100F0E8FDFEDE72
:101F10000C980B99B0FBF1F001460A91022814D3FA
:101F2000FFE70A98022814D00BE044F20030C0F614
:101F3000000044F23C42C0F60002192100F0CFFD3F
:101F4000FEDE0A9802280CD807E003208DF8A800CE
:101F50000FE004208DF8A8000BE00A98052811D89E
:101F60000CE00A980528F8D8FFE705208DF8A800AE
:101F7000FFE71B98806901280CD013E007208DF83B
:101F8000A800F6E70A980B28F8D8FFE706208DF896
:101F9000A800EEE71B98C069089032902799099134
:101FA000C0B10EE0032007F83F0CFFE717F83F0C25
:101FB00007F83E0C17F83E0CC11E079103284BD3BF
:101FC00040E009980899B0FBF1F00146069100281D
:101FD00010D20BE044F20030C0F6000044F24C4254
:101FE000C0F60002192100F07AFDFEDE06980228F4
:101FF00008D00BE006980128F8D8FFE7032007F87F
:102000003F0CD3E7042007F83F0CCFE706980228DF
:1020100004D8FFE7069805280CD807E0069805289D
:10202000F8D8FFE7052007F83F0CBFE7072007F8BF
:102030003F0CBBE706980B28F8D8FFE7062007F807
:102040003F0CB3E7079800F01F0201219140059172
:1020500010F0E00F12D10BE044F23030C0F6000077
:1020600044F25C42C0F60002212100F038FDFEDEA1
:102070000598339027990491C0B10BE044F2A03049
:10208000C0F6000044F26C42C0F60002232100F0CA
:1020900026FDFEDE1B980499059AB1FBF2F10A4673
:1020A00003923491806A01280CD011E044F2003090
:1020B000C0F6000044F27C42C0F60002192100F094
:1020C0000EFDFEDE1B98C06A0290359058B321E0E9
:1020D000032007F83D0CFFE71C99DDF854E0149C41
:1020E0001D9E1E9D17F84DCC9DF8A83017F83F2C6B
:1020F00017F83D0C0E604D6004F001040C7281F87D
:1021000009E081F80AC0CB720A73487336B05DF8F3
:1021100004BBF0BD03980299B0FBF1F001460191B8
:10212000002810D20BE044F20030C0F6000044F268
:102130008C42C0F60002192100F0D1FCFEDE0198AD
:1021400002280CD807E001980228F8D8FFE7002001
:1021500007F83D0CC0E7019804280CD807E0019867
:102160000428F8D8FFE7012007F83D0CB4E7032066
:1021700007F83D0CB0E701980728F8D8FFE70220E0
:1021800007F83D0CA8E7B0B502AFACB01A911B90B0
:102190002291087AC00750B1FFE71A98417A0A469F
:1021A000199207F8251C0068012819D01DE01A981B
:1021B0000068012805D1FFE71A98406823901C9019
:1021C00005E041F20020C0F27A001C90FFE71A9867
:1021D000807A07F83A0C17F83A0C0B2843D835E008
:1021E0001A98406825901D9005E040F60010C0F256
:1021F0003D001D90FFE719981D991791C0B202305C
:102200001890002038B9FFE717981899A0FB011023
:10221000169178B90BE044F22040C0F6000044F279
:102220009C42C0F600021C2100F059FCFEDE16980C
:102230001C90CCE744F2B020C0F6000044F2AC425F
:10224000C0F60002212100F04AFCFEDE1A981C991B
:102250001491807A8DF880009DF88000C11F15913F
:10226000072859D34EE01A981C991291807A07F8E2
:10227000390C17F8390C811F139106280AD3FFE790
:10228000139800F01F0201219140119110F0E00F0E
:102290000FD10BE044F23030C0F6000044F2BC42F3
:1022A000C0F60002212100F01AFCFEDE119890B168
:1022B0000BE044F2A030C0F6000044F2CC42C0F67D
:1022C0000002232100F00BFCFEDE12981199B0FBF6
:1022D000F1F01E900BE044F20030C0F6000044F232
:1022E000DC42C0F60002192100F0F9FBFEDE1A986C
:1022F000C07A07F8370C17F8370CC11E1091032865
:1023000041D336E0159800F01F02012191400F9152
:1023100010F0E00F0FD10BE044F23030C0F60000B7
:1023200044F2EC42C0F60002212100F0D8FBFEDEB0
:102330000F9890B10BE044F2A030C0F6000044F2D8
:10234000FC42C0F60002232100F0C9FBFEDE149817
:102350000F99B0FBF1F01E90C9E744F20030C0F6CF
:10236000000044F20C52C0F60002192100F0B7FB45
:10237000FEDE109800F00702012191400E9110F04E
:10238000F80F16D10BE044F23030C0F6000044F2F2
:102390001C52C0F60002212100F0A1FBFEDE0E98C7
:1023A00007F81D0C1E990C91C0B201460D91F0B1B9
:1023B0000BE044F2A030C0F6000044F22C52C0F60C
:1023C0000002232100F08BFBFEDE1A980C990D9A77
:1023D000B1FBF2F10A460A922791007B07F8360C0E
:1023E00017F8360CC11E0B91032816D30BE044F2EC
:1023F0000030C0F6000044F23C52C0F60002192141
:1024000000F06DFBFEDE0B9800F007020121914009
:10241000099110F0F80F16D10BE044F23030C0F6FD
:10242000000044F24C52C0F60002212100F057FB9C
:10243000FEDE099807F8150C1E990791C0B20146F7
:102440000891F0B10BE044F2A030C0F6000044F275
:102450005C52C0F60002232100F041FBFEDE1A9818
:102460000799089AB1FBF2F10A4605922991407B3F
:1024700007F8350C17F8350C013006900020A8B984
:102480000BE044F20030C0F6000044F26C52C0F69B
:102490000002192100F023FBFEDE0698400007F839
:1024A0000D0CC0B201460491D8B10BE044F22040BB
:1024B000C0F6000044F27C52C0F600021C2100F07D
:1024C0000EFBFEDE05980499B0FBF1F00146039186
:1024D0002B901C984AF20121C0F24A41884210D345
:1024E0000BE044F20030C0F6000044F28C52C0F61B
:1024F0000002192100F0F3FAFEDE002007F8310C8B
:102500000BE01E994AF20122C0F24A420020914299
:1025100038BF012007F8310CFFE717F8310CC0076E
:1025200020B9FFE7002007F8320C0BE00A9945F2CA
:102530000112C0F225220020914238BF012007F885
:10254000320CFFE717F8320CC00720B9FFE7002074
:1025500007F8330C0BE005994AF20122C0F24A4217
:102560000020914238BF012007F8330CFFE717F82D
:10257000330CC00720B9FFE700208DF884000BE082
:10258000039949F68172C0F2D5020020914238BF0A
:1025900001208DF88400FFE79DF88400C00730B368
:1025A000FFE71E98FEF7A4FE05460A98FEF7A0FE78
:1025B00004460598FEF79CFE02901C98FEF798FED4
:1025C000014603980191FEF793FEDDF838C0099BA0
:1025D000019A1B99DDF808E00D604C60C1F808E035
:1025E00081F814C04B75CA6008612CB0B0BD44F2CC
:1025F0009C50C0F6000044F22862C0F600028B2115
:1026000000F06DFAFEDE83B0029001900020009091
:102610000098019903B0704784B000900390007A4D
:10262000C00730B9FFE70098043002900020019005
:1026300005E000980430029001200190FFE7019826
:10264000029904B0704780B56F469CB00290049127
:102650001190FFF7D8FF079106900698039030B1CC
:10266000FFE70398012811D0FFE71EE0FEDE079880
:10267000089008A814900498099009A81590089843
:10268000099900F0DAF907F8590C12E007980A9056
:102690000AA8129004980B900BA813900A980B9913
:1026A00000F0D9F907F8590C03E0012007F8590C9C
:1026B000FFE717F8590CC00720B9FFE7002007F81B
:1026C0005A0C33E00298FFF7A7FF0E910D900D987A
:1026D000019030B1FFE70198012810D0FFE71CE01E
:1026E000FEDE0E98199004A91A910F900FA81B9066
:1026F00004980F9900F0A1F907F83D0C11E00E982D
:10270000169004A91791109010A818900498109989
:1027100000F0A1F907F83D0C03E0012007F83D0C9B
:10272000FFE717F83D0C07F85A0CFFE717F85A0CAB
:102730001CB080BD80B56F4682B000900191FFF75C
:1027400082FF02B080BD80B56F4684B001900390D7
:10275000FEF7BDFEFEF7BCFE01980290029804B0A1
:1027600080BD81B00090006801B0704780B56F46B1
:1027700082B0009007F8011C002200F018F802B0A7
:1027800080BD80B56F4682B0009007F8011C012221
:1027900000F0B0F802B080BD80B56F4682B0009006
:1027A00007F8011C012200F002F802B080BD80B5DC
:1027B0006F468EB0134606930B460793099007F8B1
:1027C0000E1C07F80D2C089044F26460C0F600005F
:1027D00008A9FFF7AFFF28B1FFE70798C0B21F288D
:1027E00019D80BE044F27060C0F6000044F2147295
:1027F000C0F60002492100F072F9FEDE0798C0B26F
:10280000014604910B90089800F140410591B0F108
:10281000804F12D30BE044F22470C0F6000044F263
:102820004072C0F600021A2100F059F9FEDE059848
:102830004101C00E0391A0B90BE044F26070C0F6F4
:10284000000044F25072C0F60002212100F047F966
:10285000FEDE039901F1844002460292884212D3BF
:102860000BE044F24060C0F6000044F25072C0F643
:102870000002212100F033F9FEDE04988100800F70
:102880000191A0B90BE044F2A070C0F6000044F240
:102890008472C0F600021C2100F021F9FEDE0299CC
:1028A0000198084402460092884217D30BE044F294
:1028B0004060C0F6000044F2BC72C0F60002212164
:1028C00000F00DF9FEDE009806990C9001F0010170
:1028D00007F8011C00F0D4F80EB080BD44F2A070DF
:1028E000C0F6000044F28472C0F600021C2100F021
:1028F000F6F8FEDE80B56F468EB0134606930B46A3
:102900000793099007F80E1C07F80D2C089044F265
:102910006460C0F6000008A9FFF70CFF28B1FFE7CC
:102920000798C0B21F2819D80BE044F27060C0F6B7
:10293000000044F21472C0F60002492100F0CFF802
:10294000FEDE0798C0B2014604910B90089800F192
:1029500040410591B0F1804F12D30BE044F2247056
:10296000C0F6000044F24072C0F600021A2100F0E6
:10297000B6F8FEDE05984101C00E0391A0B90BE048
:1029800044F26070C0F6000044F25072C0F60002DB
:10299000212100F0A4F8FEDE039901F184400246F3
:1029A0000292884212D30BE044F24060C0F600006D
:1029B00044F25072C0F60002212100F090F8FEDED1
:1029C00004988100800F0191A0B90BE044F2A0703F
:1029D000C0F6000044F28472C0F600021C2100F030
:1029E0007EF8FEDE02990198084402460092884271
:1029F00017D30BE044F24060C0F6000044F2BC7212
:102A0000C0F60002212100F06AF8FEDE0098069967
:102A10000C9001F0010107F8011C00F031F80EB034
:102A200080BD44F2A070C0F6000044F28472C0F68B
:102A300000021C2100F053F8FEDE83B00091014635
:102A4000009801910290096802680020914298BFA5
:102A5000012003B0704783B00091014600980191B6
:102A60000290096802680020914238BF012003B03B
:102A7000704782B0009000680190019802B07047E2
:102A800082B000900191016002B0704772B6704749
:102A900062B67047FFE7FEE770470068FEE77047E1
:102AA0004AF2E10041F21051CCF61670CFF68011D7
:102AB000704780B56F4686B0CDE9030144F2F470EB
:102AC000C0F600000122029044F2CC70C0F6000073
:102AD0008DF81420019001A8FEF7FAFAFEDE80B509
:102AE0006F4688B00123944644F2CC72039306AB40
:102AF000CDE9060102930023C0F600026846614654
:102B0000059304920093FFF7D4FFFEDE80B56F4675
:102B10008EB08DE80F00022044F608010790C0F641
:102B2000000109900AA808900020049043F629406B
:102B3000C0F6000006910D9002A80C9043F64340A9
:102B4000C0F60000B9680B9068460A9004A8FFF729
:102B5000B0FFFEDEF0B503AF2DE9000F8FB08A465F
:102B60000A210C910121CDE90A21514204914FF033
:102B7000000B0168904602914FF000094168002562
:102B80008068CDF824B0CDE907A2CDE905B2019166
:102B900003900FE0501810F8010C0A38B0FA80F0DA
:102BA0004009039B18700198C36802989847002851
:102BB000A34677D1002D70D1C1454CD8A8EB0902AE
:102BC0000AEB0903082A1FD22AB3049800214844BB
:102BD0005E5C0A2E2AD04618751C10D05D186C78E1
:102BE0000A2C1DD0B41C0AD0AC780A2C1DD0033698
:102BF00005D0EE780A2E29D004314618E8D10020FD
:102C00001146012815D025E00A20194600F0F4FCF1
:102C100001280ED01EE000210020012809D019E073
:102C200001310120012804D014E0023101200128E3
:102C300010D109EB010010F10109BDD0C145BBD88D
:102C40001AF800000A218842B6D11EE003310120A3
:102C50000128EED0C146C3451FD001255C4646463B
:102C60000398007848B1019844F2F071C0F6000171
:102C70000422C36802989847A0B90AEB0B01B6EB8F
:102C80000B027FF487AF00208BE700254C464E46B1
:102C9000039800780028E6D1EFE700200FB0BDE8E8
:102CA000000FF0BD01200FB0BDE8000FF0BDF0B582
:102CB00003AF2DE9000B8EB00446007A48B12668B8
:102CC00001202072701C206020460EB0BDE8000B71
:102CD000F0BDD4E900659146A8698846410719D43A
:102CE00044F6360044F63201C0F60000C0F600019A
:102CF0000222002E08BF014608BF0122D5E90003C9
:102D0000DB6898470028DBD1D9F80C2040462946DB
:102D10009047D6E76EB9D5E900010222CB6844F6A8
:102D20003401C0F60001984710B101200026C8E721
:102D3000A86901210B9007F83D1CA7F13D01039103
:102D400095E80F00CDE9010105A995F820008DF85F
:102D50003400E8690C9068690A902869099044F683
:102D60001800CDE90723C0F60000D9F80C20069022
:102D700001A80590404690470028A1D1DDE9050152
:102D80000222CB6844F63001C0F60001984798E76C
:102D900080B56F4682B000228029019207D28DF85B
:102DA0000410012201A9FFF7D5FE02B080BD022266
:102DB0000B4662F39F13B1F5006F05D28DF8053015
:102DC000C02343EA911125E0B1F5803F11D28DF87F
:102DD0000630E02343EA1133890962F39F118DF82D
:102DE00004308DF80510032201A9FFF7B3FE02B0ED
:102DF00080BD8DF807308B0962F39F138DF8063084
:102E00000B0B890C62F39F131E2262F3DF01042275
:102E10008DF805308DF8041001A9FFF79BFE02B074
:102E200080BDF0B503AF4DF804BD88B0019002AA93
:102E300091E8785044F600111046C0F6000180E891
:102E4000785001A800F069F808B05DF804BBF0BD47
:102E50000068FFF77FBE80B56F4682B00068002231
:102E60008029019207D28DF80410012201A9FFF7F1
:102E700071FE02B080BD02220B4662F39F13B1F5D2
:102E8000006F05D28DF80530C02343EA911125E08B
:102E9000B1F5803F11D28DF80630E02343EA1133BB
:102EA000890962F39F118DF804308DF80510032213
:102EB00001A9FFF74FFE02B080BD8DF807308B09E6
:102EC00062F39F138DF806300B0B890C62F39F138E
:102ED0001E2262F3DF0104228DF805308DF8041004
:102EE00001A9FFF737FE02B080BDF0B503AF4DF882
:102EF00004BD88B0006802AA019091E8785010469D
:102F000044F60011C0F6000180E8785001A800F0F6
:102F100004F808B05DF804BBF0BDF0B503AF2DE9CF
:102F2000000F8BB093460322DBF8006002AB8DF8F4
:102F30002820202209920022002E0892069207C320
:102F40007BD0DBF80400002800F0A180DBF80890BB
:102F50004FEA401A013802AD20F0784000244FF0CB
:102F600000080130019009EB0800426842B1DDE938
:102F7000020359F80810DB689847002840F09A804F
:102F800006EB8800D0E90512C3680992027F089118
:102F900006EB04018DF828200A69DBF810106BB1EC
:102FA000012B12D101EBC202AC4642F69B255368BD
:102FB000C0F60005AB420FD0002310E00123CDE99D
:102FC0000432D0E9010280B91EE00023CDE90432C9
:102FD000D0E9010248B917E012680123126865467A
:102FE000CDE90432D0E9010270B1012808D101EB2A
:102FF000C20042F69B23C0F6000342689A4201D009
:10300000002002E0006802680120CDE90602325982
:1030100051F8320001EBC2014A6829469047002866
:1030200048D1203408F10808A2459CD1DDF804906D
:10303000DBF80C00814530D341E0DBF8140030B3FD
:10304000DBF81010C60001380DF108080C1DDBF884
:10305000081020F060400D1D00F101092A6832B10E
:10306000DDE90201CB6855F8041C984710BB54F801
:10307000040C414622689047E0B90834083E05F147
:103080000805EBD1DBF80C00814506D317E04FF0C3
:103090000009DBF80C00814511D2DBF80800494635
:1030A00050F8311000EBC9004268DDE90203DB682B
:1030B000984720B101200BB0BDE8000FF0BD002003
:1030C0000BB0BDE8000FF0BDF0B503AF2DE9000F68
:1030D00087B0D7F80C909B4694460646E9B1B46990
:1030E00014F0010000EB090A4FF02B0008BF4FF469
:1030F000881006906007D7F8088017D5BBF1100F2D
:1031000045D2BBF1000F66D0ABF101000BF003011B
:10311000032862D2002062467DE0B46909F1010A09
:103120002D2006906007D7F80880E7D44FF0000CF8
:10313000B068002800F08B80CDF814B0D6F80CB041
:10314000D34515D92007CDF8108027D496F8200054
:10315000ABEB0A01E346032808BF0120820700F019
:103160009B80012840F09A804FF0000A084699E0C1
:1031700005986346D6E9004500902946069A204600
:1031800000F0E3F800286ED04FF001081EE0604622
:103190005946654600F0FAFAAC4653E03020F4692F
:1031A000F0614FF0010896F820006346CDF80C90CE
:1031B00002900598D6E9009586F82080294600906F
:1031C000069A484600F0C1F8002856D0404607B09D
:1031D000BDE8000FF0BD002034E02BF00303002019
:1031E000624612F9045B15F1410FC8BF013012F9B4
:1031F000035C15F1410FC8BF013012F9025C15F1F3
:10320000410FC8BF013012F9015C15F1410FC8BF71
:103210000130043BE5D1A9B192F9003013F1410F1F
:10322000C8BF013001290DD092F9013013F1410FCF
:10323000C8BF0130022905D092F9021011F1410FE7
:10324000C8BF01308244B06800287FF475AFD6E96A
:1032500000456346CDF800B02946069A204600F0A6
:1032600074F8002852D1EB68204641464A4607B020
:10327000BDE8000FBDE8F04018470694ABEB0A002C
:10328000DDF81080441C013C3AD02A6948463021C0
:1032900090470028F7D039E08A4603E0480801311A
:1032A0004FEA510AD6E90058441CF669013C07D0A0
:1032B000D8F810202846314690470028F6D025E05F
:1032C000B6F5881F22D00598414600902846069AF8
:1032D0005B4600F03AF8C8B9D8F80C302846049993
:1032E0004A46984790B90024A24522D0D8F8102029
:1032F00028463146904701340028F5D0601E19E079
:10330000EB684846039A4146984730B14FF00108B0
:10331000404607B0BDE8000FF0BD02984FF000082E
:1033200086F820000698F061404607B0BDE8000F1F
:10333000F0BD50464FF00008504538BF4FF001082F
:10334000404607B0BDE8000FF0BDF0B503AF4DF843
:10335000048DD7F808801C460D460646B2F5881F36
:1033600008D02B6930461146984718B101205DF806
:10337000048BF0BD44B1EB683046214642465DF80F
:10338000048BBDE8F040184700205DF8048BF0BDC9
:10339000F0B503AF2DE9000F81B0D0F808C0814629
:1033A00000698846BCF1010F18BF01280AD1012825
:1033B00077D1D9F8140008EB020E4FF0000A41460D
:1033C000441C0CE0D9E90001D1E046EA8115811CDA
:1033D000AAEB0000B5F5881F00EB010A61D0013CA3
:1033E000084628D070455CD0014611F9016BB6F152
:1033F000FF3FF5B2ECDC467805F01F01DF2D06F04B
:103400003F06E2D98378F02D03F03F0343EA8616A6
:103410000DD3C37801F0070103F03F0343EA86139D
:1034200043EA8145B5F5881F3BD0011DD0E746EA48
:103430000135C11CCCE7704533D090F90010B1F1D3
:10344000FF3F04DCC9B2E02928BFF02915D2BAF148
:10345000000F09D0924506D218F90A0010F1400F6A
:1034600002DA002001E0FCD1404600280CBF924661
:103470008046BCF1000F18D174E0437801F00701D9
:103480008678C07803F03F0306F03F0600F03F0067
:10349000B60146EA0333184440EA8140B0F5881F7C
:1034A000D5D19246BCF1000F5CD0D9F80C40BAF1EE
:1034B000100F0BD2BAF1000F0DD0AAF101000AF0E3
:1034C0000301032809D20020424624E04046514629
:1034D00000F05CF936E0002034E02AF0030300201D
:1034E000424612F9046B16F1410FC8BF013012F9C0
:1034F000036C16F1410FC8BF013012F9026C16F1CE
:10350000410FC8BF013012F9016C16F1410FC8BF5D
:103510000130043BE5D1A9B192F9003013F1410F1C
:10352000C8BF013001290DD092F9013013F1410FCC
:10353000C8BF0130022905D092F9021011F1410FE4
:10354000C8BF013084420DD999F82020201AD11E1D
:1035500018BF11468A0715D0012910D1002100910A
:10356000014610E0D9F804105246D9F80000CB68A3
:10357000414601B0BDE8000FBDE8F04018474108E2
:10358000013040080090D9E900B54C1CD9F81C6006
:10359000013C06D02A695846314690470028F7D0AA
:1035A00008E0B6F5881F05D0EB68584641465246FC
:1035B000984720B1012001B0BDE8000FF0BDDDF853
:1035C00000800024A04508D02A695846314690471B
:1035D00001340028F6D0611E00E04146002041453C
:1035E00038BF012001B0BDE8000FF0BDD0E90030C8
:1035F000D0F80CC018466047F0B503AF2DE9000BBA
:103600005FFA80FCC81C20F00300884225D0401AD5
:10361000904228BF104600B3C0F1000E0023CC5CDE
:10362000644565D00EEB0304651C11D0CD186E788F
:1036300066456BD0A61C0BD0AE7866456CD00334C3
:1036400006D0EC7864456DD004331EEB0304E6D15C
:10365000A2F10803984203D91FE0A2F10803002059
:103660004FF001360CFB06F50E586E40A6F1013402
:1036700024EA060616F0803F01BF0E1876686E40F9
:10368000A6F1013404BF24EA060616F0803F02D1F9
:1036900008309842E8D990424AD8824205D10020A9
:1036A00013461946BDE8000BF0BDA2EB000E0B1847
:1036B000A0EB0208AEF1010900215C5C64451FD05B
:1036C0008945ECD05E18747864450FD008EB01048E
:1036D000A51CE4D0B57865450FD00334DFD0F4786D
:1036E00064450CD004318E45E7D1D8E701310B1881
:1036F00001201946BDE8000BF0BD023100E00331A6
:103700000B1801201946BDE8000BF0BD0133012064
:103710001946BDE8000BF0BD023301201946BDE893
:10372000000BF0BD033301201946BDE8000BF0BDCE
:1037300044F61C131146C0F600031A4600F001F8C7
:10374000FEDE80B56F4600F001F8FEDE80B56F4604
:103750008CB0CDE90001022044F66011059007907D
:1037600008A8C0F60001069000200491029043F6DC
:103770002B3001A9C0F600000B90CDE90901684685
:10378000089002A81146FFF794F9FEDEF0B503AFEA
:103790002DE9000F0246033020F00300831A8B420C
:1037A00098BF042B0BD931B1481E01F00303032845
:1037B00010D200202BE00020BDE8000FF0BDA1EBEF
:1037C000030CBCF1040FEED30CF00301904238D18E
:1037D000002078E021F00301002012F9046B16F1BB
:1037E000410FC8BF013012F9036C16F1410FC8BF79
:1037F000013012F9026C16F1410FC8BF013012F905
:10380000016C16F1410FC8BF01300439E5D1ABB1ED
:1038100092F9001011F1410FC8BF0130012B0DD0FA
:1038200092F9011011F1410FC8BF0130022B05D0F0
:1038300092F9021011F1410FC8BF0130BDE8000F2D
:10384000F0BDD643304403F0030E032802D200201B
:1038500014461DE023F003050020144614F9046B00
:1038600016F1410FC8BF013014F9036C16F1410F76
:10387000C8BF013014F9026C16F1410FC8BF013006
:1038800014F9016C16F1410FC8BF0130043DE5D1B8
:10389000BEF1000F17D094F9005015F1410FC8BFC9
:1038A0000130BEF1010F0ED094F9015015F1410F16
:1038B000C8BF0130BEF1020F05D094F9026016F1C5
:1038C000410FC8BF013002EB030E4FEA9C090023F1
:1038D000C1B12CF00306764496F9005015F1410F62
:1038E000C8BF012301290DD096F9015015F1410FF0
:1038F000C8BF0133022905D096F9021011F1410F1A
:10390000C8BF0133184411E04FF0FF112CF0FF2223
:1039100001EA1C21A9EB0B09114408EB8B0E1BF0EB
:10392000030301EB014100EB11403ED1B9F1000F5F
:103930003FF484AFB9F1C00FCB4628BF4FF0C00BA6
:103940001BF0FC01F0464FF0000C0EEB810ADBD0BF
:103950004346002B1FBFD3E90062D3E90214F543AD
:10396000ED091FBF45EA961626F0FE366644D5439C
:103970001FBFED0945EA921222F0FE3232441FBF0A
:10398000CE43F60946EA911121F0FE311FBF1144E2
:10399000E243D20942EA94121FBF22F0FE3202EB48
:1039A000010C10335345D4D1AEE7B8F1000F0AD063
:1039B000591E21F040414B1C032903F0030C05D292
:1039C0004FF0000E33E04FF0000E58E023F00304F8
:1039D0004FF0000EDAE90016043CDAE902520AF16F
:1039E000100A6FEA01034FEAD31343EA91116FEA19
:1039F000060321F0FE314FEAD313714443EA9613D4
:103A000023F0FE3319446FEA05034FEAD31343EA68
:103A1000951323F0FE3319446FEA02034FEAD313E0
:103A200043EA921222F0FE3202EB010ED2D1BCF137
:103A3000000F24D0DAF80010BCF1010F6FEA010684
:103A40004FEAD61646EA911121F0FE318E4416D087
:103A5000DAF80410BCF1020F6FEA01064FEAD6163D
:103A600046EA911121F0FE318E4408D0DAF80810B0
:103A7000CA43D20942EA911121F0FE318E444FF03F
:103A8000FF112EF0FF2201EA1E21114401EB01413A
:103A900000EB1140BDE8000FF0BDB0B502AF84B03F
:103AA0000C460090D1E900010F22CB6844F670115A
:103AB000C0F6000198478DF80C00002044F68012F3
:103AC0008DF80D00019001A86946C0F6000202942D
:103AD000FFF7EDF801989DF80C4000B30CB10124FC
:103AE0001DE0029D012810D19DF80D0068B1287ECF
:103AF00040070AD4D5E900010122CB6844F637011A
:103B0000C0F600010124984748B9D5E90001012217
:103B1000CB6844F2CC71C0F6000198470446002CF3
:103B200018BF0124204604B0B0BDF0B503AF2DE9A5
:103B3000000F8DB0046844F6380842F210700E464B
:103B40008442C0F6000841D341F259794EF2FF0E8B
:103B50000021CDF2B71941F27B4A4FF0640BC0F25D
:103B6000F55E0296A7F14302744502EB0105A4FB42
:103B70000926A1F104014FEA563202FB1046144611
:103B80001FFA86FC4FEA9C0303FB0AF34FEA5343F8
:103B900038F81300A5F8230003FB1B6080B238F847
:103BA0001000A5F8250042F21070DBD8029E01F14A
:103BB00027031446632C0CD821460A291BD338F856
:103BC0001110981EA7F14302115219E02723632C0C
:103BD000F2D9A0B241F27B418008023B4843A7F1F1
:103BE0004302410C642001FB104080B238F8100001
:103BF000D0520A29E3D2581EA7F1430230311154A2
:103C0000C0F12701A7F14302104444F2CC72CDE980
:103C10000001C0F60002304601210023FFF754FAEC
:103C20000DB0BDE8000FF0BDD0E90020C36810461C
:103C30001847084644F61811C0F600010222FFF7A3
:103C4000A7BB0B46D0E900121846FFF7A1BB704690
:103C50000421084203D1EFF3088000F004B8EFF329
:103C6000098000F000B881B00090FFE7FEE7D4D4EF
:103C70002F686F6D652F61726E6F2F2E6361726793
:103C80006F2F72656769737472792F7372632F6710
:103C900069746875622E636F6D2D316563633632AA
:103CA000393964623965633832332F73746D333256
:103CB000663178782D68616C2D302E31302E302FA2
:103CC0007372632F74696D65722F636F756E74659F
:103CD000722E7273703C000864000000AA0000009D
:103CE00022000000000000000000000000000000B2
:103CF000617474656D707420746F20737562747272
:103D00006163742077697468206F766572666C6F82
:103D100077000000703C000864000000AA0000006A
:103D200009000000617373657274696F6E206661CB
:103D3000696C65643A20636C6B2E72617728292068
:103D4000252046524551203D3D20302F686F6D653E
:103D50002F61726E6F2F2E636172676F2F726567AE
:103D600069737472792F7372632F676974687562EF
:103D70002E636F6D2D316563633632393964623974
:103D800065633832332F73746D3332663178782D32
:103D900068616C2D302E31302E302F7372632F748A
:103DA000696D65722E7273004B3D00085C00000067
:103DB000AA020000090000004B3D00085C00000062
:103DC000AC0200002E000000000000000000000017
:103DD000617474656D707420746F20737562747291
:103DE0006163742077697468206F766572666C6FA2
:103DF000770000004B3D00085C000000AC020000B2
:103E0000370000002F686F6D652F61726E6F2F2E67
:103E1000636172676F2F72656769737472792F734C
:103E200072632F6769746875622E636F6D2D3165DB
:103E300063633632393964623965633832332F66E9
:103E4000756769742D302E332E362F7372632F648D
:103E500075726174696F6E2E72730000043E000803
:103E600056000000550200000100000000000000A4
:103E7000617474656D707420746F206D756C7469F5
:103E8000706C792077697468206F766572666C6FE4
:103E9000772F686F6D652F61726E6F2F2E63617261
:103EA000676F2F72656769737472792F7372632FEE
:103EB0006769746875622E636F6D2D316563633653
:103EC00032393964623965633832332F73746D3334
:103ED00032663178782D68616C2D302E31302E307D
:103EE0002F7372632F6770696F2E7273913E000893
:103EF0005B000000130400003A0000000000000016
:103F0000617474656D707420746F206164642077CF
:103F1000697468206F766572666C6F77913E0008F1
:103F20005B000000130400003500000000000000EA
:103F3000617474656D707420746F20736869667441
:103F4000206C6566742077697468206F7665726688
:103F50006C6F7700913E00085B00000028020000B3
:103F600041000000913E00085B00000028020000B4
:103F70003C0000007372632F6D61696E2E727300D6
:103F8000743F00080B000000310000001F0000001B
:103F900063616C6C65642060526573756C743A3A49
:103FA000756E77726170282960206F6E20616E20B7
:103FB00060457272602076616C756500E1040008EE
:103FC00001000000010000006115000874686572BE
:103FD00065206973206E6F2073756368207468694B
:103FE0006E6720617320612072656C617865642062
:103FF000636F6D70696C65722066656E6365000045
:10400000CC3F0008320000002F72757374632F6478
:1040100035613832626264323665316164386237E4
:104020003430316636613731386139633537633959
:10403000363930353438332F6C6962726172792FBA
:10404000636F72652F7372632F73796E632F617460
:104050006F6D69632E727300084000084F00000006
:10406000590D000018000000696E76616C696420CB
:1040700061726773684000080C0000002F7275734E
:1040800074632F643561383262626432366531613F
:1040900064386237343031663661373138613963BC
:1040A00035376339363930353438332F6C696272BD
:1040B0006172792F636F72652F7372632F666D74EF
:1040C0002F6D6F642E7273007C4000084B0000005F
:1040D0008C0100000D0000002F686F6D652F61726C
:1040E0006E6F2F2E636172676F2F726567697374CD
:1040F00072792F7372632F6769746875622E636FAC
:104100006D2D3165636336323939646239656338E0
:1041100032332F66756769742D302E332E362F7328
:1041200072632F726174652E72730000D8400008AC
:10413000520000000D02000001000000000000001D
:10414000617474656D707420746F206D756C746922
:10415000706C792077697468206F766572666C6F11
:1041600077696E7465726E616C206572726F723AF7
:1041700020656E746572656420756E726561636832
:1041800061626C6520636F64652F686F6D652F6178
:10419000726E6F2F2E636172676F2F72656769731E
:1041A0007472792F7372632F6769746875622E63F6
:1041B0006F6D2D31656363363239396462396563F9
:1041C0003832332F73746D3332663178782D6861ED
:1041D0006C2D302E31302E302F7372632F67706943
:1041E0006F2E7273894100085B000000B304000069
:1041F0001200000063616C6C656420605265737529
:104200006C743A3A756E77726170282960206F6E0F
:1042100020616E2060457272602076616C75650069
:10422000EB11000800000000010000009B3A0008AC
:1042300057726F6E674175746F52656C6F6164443D
:10424000697361626C65642F686F6D652F61726E52
:104250006F2F2E636172676F2F7265676973747257
:10426000792F7372632F6769746875622E636F6D3F
:104270002D316563633632393964623965633832AA
:10428000332F73746D3332663178782D68616C2DFD
:10429000302E31302E302F7372632F7263632E7283
:1042A000730000000000000000000000000000009B
:1042B000617474656D707420746F206D756C7469B1
:1042C000706C792077697468206F766572666C6FA0
:1042D00077000000474200085A0000007201000009
:1042E00019000000474200085A0000002B0200009D
:1042F0000D000000000000000000000000000000B1
:10430000617474656D707420746F2064697669647B
:1043100065206279207A65726F00000047420008CC
:104320005A000000410200001300000000000000DD
:10433000617474656D707420746F2073756274722B
:104340006163742077697468206F766572666C6F3C
:1043500077000000474200085A00000041020000B8
:1043600026000000474200085A00000045020000F5
:1043700013000000474200085A00000055020000E8
:104380001C000000474200085A00000055020000CF
:104390001600000000000000000000000000000007
:1043A000617474656D707420746F207368696674CD
:1043B000206C6566742077697468206F7665726614
:1043C0006C6F7700474200085A0000005502000059
:1043D0000D000000474200085A000000570200008C
:1043E0001C000000474200085A000000570200006D
:1043F00016000000474200085A0000005702000063
:104400000D000000474200085A0000006102000051
:10441000210000000000000000000000000000007B
:10442000617474656D707420746F206164642077AA
:10443000697468206F766572666C6F774742000812
:104440005A000000610200002000000047420008FE
:104450005A0000006A0200001300000047420008F2
:104460005A000000750200001A00000047420008D0
:104470005A000000750200001500000047420008C5
:104480005A000000760200001500000047420008B4
:104490005A0000008002000013000000474200089C
:1044A0005A0000009F020000190000004742000867
:1044B0005A0000009F0200000D0000004742000863
:1044C0005A000000A70200001C000000474200083C
:1044D0005A000000A7020000160000004742000832
:1044E0005A000000A70200000D000000474200082B
:1044F0005A000000A90200001C000000474200080A
:104500005A000000A90200001600000047420008FF
:104510005A000000A90200000D00000047420008F8
:104520005A000000AC0200001A00000047420008D8
:104530005A000000AC0200001500000047420008CD
:104540005A000000AD0200001500000047420008BC
:104550005A000000AF0200001A00000047420008A5
:104560005A000000AF02000015000000474200089A
:104570005A000000B0020000150000004742000889
:104580005A000000B2020000140000004742000878
:104590005A000000B302000016000000617373654A
:1045A0007274696F6E206661696C65643A20737914
:1045B00073636C6B203C3D2037325F3030305F30AE
:1045C00030302026262068636C6B203C3D2037323B
:1045D0005F3030305F3030302026262070636C6BC7
:1045E00031203C3D2033365F3030305F303030207A
:1045F00026265C6E202020202020202070636C6BFB
:1046000032203C3D2037325F3030305F3030302058
:10461000262620616463636C6B203C3D2031345F4F
:104620003030305F30303000474200085A00000020
:10463000BD020000090000000000000000000000B2
:10464000617474656D707420746F206D756C74691D
:10465000706C792077697468206F766572666C6F0C
:104660007700000000000040FFFF0F400000000046
:10467000617373657274696F6E206661696C6564DD
:104680003A2028504552495F414444524553535FB4
:1046900053544152542E2E3D504552495F4144449B
:1046A000524553535F454E44292E636F6E746169C2
:1046B0006E73282661646472292F686F6D652F619F
:1046C000726E6F2F2E636172676F2F7265676973E9
:1046D0007472792F7372632F6769746875622E63C1
:1046E0006F6D2D31656363363239396462396563C4
:1046F0003832332F73746D3332663178782D6861B8
:104700006C2D302E31302E302F7372632F62622E5B
:1047100072730000B9460008590000002D00000027
:1047200005000000617373657274696F6E206661C5
:10473000696C65643A20626974203C203332000061
:10474000B9460008590000002E00000005000000D6
:10475000B94600085900000031000000290000009F
:10476000617474656D707420746F207375627472F7
:104770006163742077697468206F766572666C6F08
:1047800077000000B9460008590000003100000021
:104790001300000000000000000000000000000006
:1047A000617474656D707420746F20616464207727
:1047B000697468206F766572666C6F77B946000819
:1047C00059000000310000004D00000029000000E9
:1047D0006C6962726172792F636F72652F73726395
:1047E0002F736C6963652F6D656D6368722E7273CC
:1047F000202020209F2A0008000000000100000067
:10480000A12A00083A200000CC4700080000000060
:1048100004480008020000009F2A00080C00000065
:1048200004000000552B0008912D0008232E0008DD
:104830002C0A2C20280A282C3030303130323033EA
:10484000303430353036303730383039313031313E
:104850003132313331343135313631373138313924
:10486000323032313232323332343235323632371C
:104870003238323933303331333233333334333502
:1048800033363337333833393430343134323433E8
:1048900034343435343634373438343935303531CE
:1048A00035323533353435353536353735383539B4
:1048B00036303631363236333634363536363637AC
:1048C0003638363937303731373237333734373592
:1048D0003736373737383739383038313832383378
:1048E000383438353836383738383839393039315E
:1048F0003932393339343935393639373938393944
:104900009F2A00080400000004000000512E000847
:10491000572E0008EB2E000828290000D047000879
:1049200020000000680000002700000072616E6730
:104930006520737461727420696E64657820206FDD
:104940007574206F662072616E676520666F7220D5
:10495000736C696365206F66206C656E6774682090
:104960002C490008120000003E4900082200000007
:1049700054727946726F6D496E744572726F72002F
:104980009F2A00080400000004000000333C0008D7
:0400000508000131BD
:00000001FF
