:020000040800F2
:1000000000200020310100080721000849230008D2
:100010000721000807210008072100080000000050
:1000200000000000000000000000000007210008A0
:100030000721000800000000072100080721000830
:1000400007210008072100080721000807210008F0
:1000500007210008072100080721000807210008E0
:1000600007210008072100080721000807210008D0
:1000700007210008072100080721000807210008C0
:1000800007210008072100080721000800000000E0
:100090000000000000000000000000000721000830
:1000A0000721000807210008072100080721000890
:1000B0000721000807210008072100080721000880
:1000C0000721000807210008072100080721000870
:1000D0000721000807210008072100080721000860
:1000E0000721000807210008072100080721000850
:1000F00007210008072100080000000000000000A0
:10010000072100080000000007210008072100085F
:10011000072100080721000807210008072100081F
:10012000072100080721000807210008072100080F
:1001300080B56F4601F0F3FFFFE740F20000C2F226
:10014000000040F20401C2F2000101F0E9FFFFE704
:1001500040F20000C2F2000040F20001C2F20001D1
:1001600042F65832C0F6000202F005F8FFE700F050
:100170003BF9FEDE80B56F4601F0A0FFFFE780BDD2
:1001800080B56F4601F098FFFFE780BD80B56F46F0
:1001900082B0019001F05CFF0090FFE7009802B090
:1001A00080BD84B00090019100780290097803919D
:1001B000401AB0FA80F0400904B0704780B56F462D
:1001C00084B001F07DFF014601910390FFE70198A3
:1001D000C00720B9FFE7002007F8050C03E0012065
:1001E00007F8050CFFE717F8050C04B080BD80B5D3
:1001F0006F4682B007F8010C42F27831C0F6000178
:10020000781EFFF7CEFF0090FFE7009800F0010096
:1002100002B080BD80B56F4682B00190012107F821
:10022000051C17F8051C00F031F8FFE702B080BD8F
:1002300080B56F4682B00190002107F8051C17F8C1
:10024000051C00F023F8FFE702B080BD80B56F46C3
:1002500084B00390012107F8091C17F8091C00F06D
:1002600003F8FFE704B080BD80B56F4684B000900E
:10027000029007F8011C01A800F045F8FFE700987C
:1002800001F0A7FBFFE7FFE704B080BD80B56F4634
:1002900090B007F8351C039017F8351CC80710B14B
:1002A000FFE701E0FEDE18E0FFE741F21000C4F2D4
:1002B000010001900C9000200B900BA80A900A9866
:1002C00000F06BF80146019809680D900E910F90AF
:1002D00001F0FAFEFFE710B080BD41F21000C4F259
:1002E0000100009006900020059005A80490049855
:1002F00000F06DF801460098096807900891099090
:1003000001F0E2FEE7E780B56F4690B007F8351CD4
:10031000039017F8351CC80710B1FFE701E0FEDEB7
:1003200018E0FFE741F21000C4F2010001900C90C8
:1003300000200B900BA80A900A9800F021F80146C3
:10034000019809680D900E910F9001F0BDFEFFE736
:1003500010B080BD41F21000C4F201000090069080
:100360000020059005A80490049800F023F80146A9
:100370000098096807900891099001F0A5FEE7E749
:1003800085B001460091029103914FF00050049016
:100390000860FFE7009805B0704785B001460091FE
:1003A000029103914FF0005004900860FFE700981D
:1003B00005B0704785B001460091029103914FF45A
:1003C000005004900860FFE7009805B0704785B0C2
:1003D00001460091029103914FF40050049008608F
:1003E000FFE7009805B0704780B56F4600F001F850
:1003F000FEDE80B56F46BEB000F0CFF90290FFE799
:10040000029800F0010042F28431C0F6000100F0D1
:100410001FF9FFE700F04CF90190FFE7019800F0A9
:10042000010042F29431C0F6000100F029F9FFE723
:1004300003A801F00AFAFFE703A801F033FAFFE787
:100440000FA8FFF703FFFFE701F0FCF9FFE703A99F
:1004500024A8B1E83C50A0E83C5091E83C5080E82A
:100460003C50082001F0EEFD0090FFE7009A18A82C
:1004700024A900F043F9FFE712A818A911AA00F077
:100480003EFAFFE712AA36A9084692E8785080E8BB
:10049000785030A801F01BFCFFE710A8FFF7C8FE5A
:1004A000FFE700F04CF9FFE730A84FF47A7101F054
:1004B0004EFCFFE710A8FFF7ADFEFFE700F03FF9A5
:1004C000FFE730A84FF47A7101F041FCE5E780B511
:1004D0006F4684B0039040F20100C2F20000007841
:1004E000C00718B9FFE700F0FBF807E0002007F8A5
:1004F000090CFFE717F8090C04B080BD012007F8CC
:10050000090CF7E780B56F4684B0039000F0DCF883
:1005100007F8090CFFE717F8091CC80710B1FFE737
:1005200004E0FEDE002007F80A0C06E000F0DFF829
:10053000FFE7012007F80A0CFFE717F80A0C04B0E0
:1005400080BD80B56F4686B0FFF738FE0146029148
:1005500007F8020CFFE7FFF713FEFFE701F0B3FD1A
:10056000FFE704A803900398FFF7B1FF014601914C
:1005700007F8010CFFE7029800F00100FFF737FED3
:100580000090FFE70098C00728B9FFE7019800F046
:10059000010006B080BDFFF7EDFDF7E780B56F46BF
:1005A00086B0FFF70BFE0146029107F8020CFFE749
:1005B000FFF7E6FDFFE701F086FDFFE704A80390E3
:1005C000039800F0CFF80146019107F8010CFFE70E
:1005D000029800F00100FFF70AFE0090FFE7009884
:1005E000C00728B9FFE7019800F0010006B080BD00
:1005F000FFF7C0FDF7E780B56F4686B0FFF7DEFD79
:100600000146029107F8020CFFE7FFF7B9FDFFE78B
:1006100001F059FDFFE704A803900398FFF772FF6C
:100620000146019107F8010CFFE7029800F0010074
:10063000FFF7DDFD0090FFE70098C00728B9FFE74E
:10064000019800F0010006B080BDFFF793FDF7E7C9
:1006500080B56F4684B0019107F8050C17F8051CAA
:10066000C80710B1FFE709E0FEDE019A42F2A430AC
:10067000C0F600002B2101F050FEFEDE04B080BD6C
:1006800080B56F4684B0019107F8050C17F8051C7A
:10069000C80710B1FFE709E0FEDE019A42F2A4307C
:1006A000C0F600002B2101F038FEFEDE04B080BD54
:1006B00080B56F4682B0FFF79EFF0190FFE701987B
:1006C00000F0010002B080BD80B56F4682B0FFF738
:1006D00038FF0190FFE7019800F0010002B080BDF3
:1006E00040F20101C2F2000101200870704780B59C
:1006F0006F46FFF7F5FFFFE7FFE780BDB0B502AF3C
:1007000088B0029201910146029803910790FFF789
:100710003DFD0490FFE701990398049A0692012297
:100720000592059B069A0B624A62B1E83C50A0E82C
:100730003C5091E83C5080E83C5008B0B0BD83B0DC
:10074000012010B9FFE704E0FEDE01208DF8030070
:1007500004E000208DF80300FFE7FFE79DF80300A9
:1007600003B0704780B56F4684B0039040F200003C
:10077000C2F200000078C00718B9FFE700F019F8CE
:1007800007E0002007F8090CFFE717F8090C04B090
:1007900080BD012007F8090CF7E780B56F4682B0ED
:1007A000FFF7FCFE0190FFE7019800F0010002B0A6
:1007B00080BD40F20001C2F20001012008707047C4
:1007C00080B56F4682B00190FFE7042007F8050C62
:1007D00017F8050C00F002F8F7E7D4D480B56F469F
:1007E0008AB007F8190C17F8190C02900299DFE883
:1007F00001F0041415161700FEDE6946002008609B
:1008000042F20441C0F6000142F20C43C0F600037C
:1008100004A8012200F00FF805E002E001E000E08A
:10082000FFE70AB080BD42F25C41C0F6000104A8B7
:1008300001F05DFDFEDE80B56F4694B00293039239
:1008400004910590B868069010911192129313903C
:1008500082420AD3FFE703990698421C0020914286
:1008600088BF012007F8310C03E0012007F8310CA4
:10087000FFE717F8310CC007B8B9FFE706980599EC
:10088000029A039BDDF810C04FF0000ECDF838E05F
:10089000C1F800C04B60DDF838C00F9BC1F808C03C
:1008A000CB600A61486114B080BD694600200860D1
:1008B00042F27841C0F6000142F28043C0F60003E4
:1008C00008A80122FFF7B7FFFFE742F2CC41C0F6CC
:1008D000000108A801F00BFDFEDE81B00090FFE7EB
:1008E00041F21800C4F2020001B0704781B00090DC
:1008F000FFE741F20C00C4F2020001B07047F0B50E
:1009000003AF4DF8048DADF5247D2E912F905792B5
:100910000868496840F60012C0F23D0201F0B7F9DC
:10092000014630915890FFE7309A2E99086A496A3B
:1009300001F0ADF92D90FFE7309850B1FFE72D9809
:100940003099B0FBF1F001462C91599001280CD060
:1009500019E042F25050C0F6000042F23852C0F6A0
:100960000002192101F0D9FCFEDE2E9900208DF83D
:10097000D4000868496841F20022C0F27A0201F00E
:1009800086F92B9058E02C98012100F037FF2A902F
:10099000FFE72A98102100F03DFF014629915A9067
:1009A000FFE72998C0B2811EC8B20A462892884241
:1009B0000DD1FFE730982999289A8DF8D920012286
:1009C0008DF8D820A0FB01102791B8B90BE042F2B6
:1009D0008050C0F6000042F26C52C0F600022121A5
:1009E00001F09BFCFEDE27989DF8D8209DF8D910D9
:1009F0008DF8CC208DF8CD1034900BE042F2C05031
:100A0000C0F6000042F2A452C0F60002212101F01B
:100A100084FCFEDE9DF8CC109DF8CD008DF8C4104E
:100A20008DF8C5003498329032984AF20021C0F215
:100A30004A41884216D80AE02B989DF8D4209DF8A8
:100A4000D5108DF8CC208DF8CD103490E2E72E999A
:100A50008868C96832AA3792379A01F001F8259060
:100A600026910BE042F2E150C0F6000042F208622B
:100A7000C0F60002262101F050FCFEDE26992598E2
:100A800000F00100072201F0D7F88DF8DB00FFE746
:100A90009DF8DB000B280BD8FFE7329823909DF8D8
:100AA000DB00C11FC8B20A462492884254D149E0F3
:100AB000329821909DF8DB00811FC8B20A4622922D
:100AC00088420AD1FFE7229800F01F0201219140DD
:100AD000209110F0E00F0FD10BE042F28050C0F6F1
:100AE000000042F21862C0F60002212101F015FC5C
:100AF000FEDE209890B10BE042F24060C0F60000AC
:100B000042F22862C0F60002232101F006FCFEDE5C
:100B100021982099B0FBF1F038900BE042F2505050
:100B2000C0F6000042F26462C0F60002192101F032
:100B3000F4FBFEDE38984AF20021C0F24A418842B6
:100B400042D836E0249800F01F02012191401F9105
:100B500010F0E00F0FD10BE042F28050C0F6000021
:100B600042F27462C0F60002212101F0D6FBFEDEE3
:100B70001F9890B10BE042F24060C0F6000042F2D4
:100B80008462C0F60002232101F0C7FBFEDE239839
:100B90001F99B0FBF1F03890CCE742F25050C0F60C
:100BA000000042F29462C0F60002192101F0B5FB88
:100BB000FEDE2E990869496938AA3A923A9A00F0FD
:100BC000E5FF1D901E910BE042F2A460C0F600000C
:100BD00042F2C862C0F60002242101F09EFBFEDE54
:100BE0001E991D9800F00100032201F025F88DF8F0
:100BF000E700FFE79DF8E700C11EC8B20A461C9255
:100C000088420AD1FFE71C9800F0070201219140B9
:100C10001B9110F0F80F15D10BE042F28050C0F696
:100C2000000042F2D862C0F60002212101F075FBFB
:100C3000FEDE1B988DF86F013899199101F014F9B7
:100C40001A900BE042F24060C0F6000042F2E86207
:100C5000C0F60002232101F060FBFEDE1A9870B19D
:100C6000FFE719981A99B0FBF1F0014618915C90D2
:100C700045F20011C0F22521884217D80BE042F25C
:100C80005050C0F6000042F2F862C0F6000219218E
:100C900001F043FBFEDE2E998869C96938AA3C92AF
:100CA0003C9A00F041FF169017910BE042F2087059
:100CB000C0F6000042F23072C0F60002252101F0B9
:100CC0002CFBFEDE1799169800F00100032200F0BD
:100CD000B3FF8DF8EF00FFE79DF8EF00C11EC8B22B
:100CE0000A46159288420AD1FFE7159800F00702DC
:100CF00001219140149110F0F80F15D10BE042F250
:100D00008050C0F6000042F24072C0F6000221217D
:100D100001F003FBFEDE14988DF8740138991291EE
:100D200001F0A2F813900BE042F24060C0F6000020
:100D300042F25072C0F60002232101F0EEFAFEDE0C
:100D4000139868B1FFE712981399B0FBF1F03D904A
:100D50003D984AF20021C0F24A41884221D80BE076
:100D600042F25050C0F6000042F26072C0F600023B
:100D7000192101F0D2FAFEDE2E98D0F800C04368A7
:100D80009DF8C4209DF8C5103298CDF8FCC0409362
:100D90008DF804218DF8051142903F9801280CD060
:100DA00010E042F27070C0F6000042F29872C0F695
:100DB0000002252101F0B1FAFEDE9DF80401C00712
:100DC00038B9FFE701208DF8F80000208DF8F90010
:100DD0001DE04298119046F60041C0F2DC218842A5
:100DE0000FD0FFE711984AF20021C0F24A41884231
:100DF000E8D1FFE700208DF8F80001208DF8F90018
:100E000005E001208DF8F8008DF8F900FFE72E9934
:100E10009DF8F8008DF875019DF8F90002460E92D4
:100E20008DF87601886AC96A3DAA4492449A00F016
:100E300049FE0F901091FFE710990F9800F0010004
:100E4000032200F0F9FE8DF80F01FFE79DF80F0176
:100E5000411CC8B20A460D92884204D1FFE70D98A2
:100E600040000C900BE042F2C070C0F6000042F26D
:100E7000A872C0F600021C2101F04FFAFEDE0C98A9
:100E80008DF877013D990A9100F0EEFF0B90FFE796
:100E90000B9870B1FFE70A980B99B0FBF1F001468F
:100EA00009915E9049F68071C0F2D50188420DD853
:100EB0000BE042F25050C0F6000042F2DC72C0F685
:100EC0000002192101F029FAFEDE0BE042F2EC707B
:100ED000C0F6000042F61402C0F60002262101F01E
:100EE0001CFAFEDE2E9841F20001C4F202015F916D
:100EF00000F090FE0890FFE70898C00730B9FFE7C0
:100F00009DF8C400C007002848D177E041F20000F6
:100F1000C4F2020007908E909090919001F0C2F878
:100F20008F908C908D908CA88A908DA88B908A98A9
:100F30008B9900F09BFA014607980968929093916B
:100F4000949001F0C1F8FFE741F20000C4F2020002
:100F500069906A906B9001F0A5F868906898469047
:100F6000FFE746A8A0904698C0F3404007F8190C48
:100F700007F81A0C17F81A0C8DF81701FFE70DF295
:100F80001710619062909DF8170180F001000690A3
:100F9000FFE70698C0070028D6D1B1E72E989DF844
:100FA000C5108DF81F110DF21F1148914990489AF4
:100FB00004924999039141F20400C4F202000590A1
:100FC0008190829283918590869001F06BF80399CD
:100FD0000246049884927F9280927FAA7D9280AA92
:100FE0007E927D9A7E9B00F05AFA01460598096828
:100FF00087908891899001F067F835E02E980DF27E
:101000000F114C910DF1EF014D910DF1E7014E9152
:101010000DF1DB014F9131A95091519041F2040043
:10102000C4F20200029076907890799001F03AF83C
:10103000014677914CAB6CA8024693E8705182E868
:1010400070517491759174A9729175A97391729987
:10105000739A00F07AFA0146029809687A907B91B7
:101060007C9001F031F847E041F20000C4F2020048
:10107000019099909B909C9001F014F89A90979011
:10108000989097A8959098A896909598969900F022
:1010900043FA0146019809689D909E919F9001F046
:1010A00013F8FFE741F20000C4F202006590669079
:1010B000679000F0F7FF649064984B90FFE74BA8AF
:1010C000A2904B98C0F3406007F8110C07F8120C7F
:1010D00017F8120C8DF82B01FFE70DF22B10609022
:1010E00063909DF82B0180F001000090FFE70098CD
:1010F000C0070028D6D181E72F990E98149A1B9B20
:10110000DDF824C0DDF860E0389C5294CDF84CE165
:10111000DDF8F4E0CDF850E1DDF8C8E0CDF854E1B9
:10112000CDF858C1DDF848C1C1F800C0DDF84CC1A8
:10113000C1F804C0DDF850C1C1F808C00B754A758C
:10114000559ACA60569A0A6100F0010088750DF53B
:10115000247D5DF8048BF0BD80B56F4686B00191AB
:101160000390059103980068029081B1FFE702980F
:101170000199B0FBF1F001460091C0B1FFE7009882
:10118000012820D0FFE70098022820D00BE042F28F
:101190005050C0F6000042F62402C0F600021921A9
:1011A00001F0BBF8FEDE0098022818D813E042F6E2
:1011B0003400C0F6000042F65C02C0F600022821AE
:1011C00001F0ABF8FEDE072007F8050C0FE0082061
:1011D00007F8050C0BE00098052810D80BE00098E4
:1011E0000528F8D8FFE7092007F8050CFFE717F8EE
:1011F000050C06B080BD00980B280CD807E00098BD
:101200000B28F8D8FFE70A2007F8050CEFE700984D
:1012100027280CD807E000982728F8D8FFE70B20EC
:1012200007F8050CE3E700985F280CD807E0009862
:101230005F28F8D8FFE70C2007F8050CD7E70098DF
:10124000BF280CD807E00098BF28F8D8FFE70D208A
:1012500007F8050CCBE70F2007F8050CC7E7009847
:10126000C0090228F7D8FFE70E2007F8050CBEE7F3
:1012700080B56F4686B00191039005910398006890
:10128000029081B1FFE702980199B0FBF1F00146AD
:101290000091C0B1FFE70098012820D0FFE7009837
:1012A000022820D00BE042F25050C0F6000042F677
:1012B0006C02C0F60002192101F02FF8FEDE009842
:1012C000022818D813E042F63400C0F6000042F6B7
:1012D0007C02C0F60002282101F01FF8FEDE032088
:1012E00007F8050C0FE0042007F8050C0BE0009848
:1012F000052810D80BE000980528F8D8FFE705204E
:1013000007F8050CFFE717F8050C06B080BD0720AD
:1013100007F8050CF7E700980B28F8D8FFE7062038
:1013200007F8050CEFE780B56F4686B00191039092
:10133000059103980068029081B1FFE70298019936
:10134000B0FBF1F001460091C0B1FFE70098012821
:1013500020D0FFE70098022820D00BE042F2505046
:10136000C0F6000042F68C02C0F60002192100F01F
:10137000D4FFFEDE0098022818D813E042F63400AD
:10138000C0F6000042F69C02C0F60002282100F0E0
:10139000C4FFFEDE032007F8050C0FE0042007F869
:1013A000050C0BE00098052810D80BE000980528E4
:1013B000F8D8FFE7052007F8050CFFE717F8050C3C
:1013C00006B080BD072007F8050CF7E700980B284A
:1013D000F8D8FFE7062007F8050CEFE780B56F4661
:1013E00086B001910390059103980068029049B17D
:1013F000FFE702980199B0FBF1F001460091002847
:1014000010D20BE042F25050C0F6000042F6AC029F
:10141000C0F60002192100F080FFFEDE00980228CD
:1014200010D80BE000980228F8D8FFE7002007F852
:10143000050CFFE717F8050C06B080BD00980428DE
:101440000CD807E000980428F8D8FFE7012007F837
:10145000050CEFE7032007F8050CEBE700980728D9
:10146000F8D8FFE7022007F8050CE3E78AB00390FD
:1014700004910691059105980190FFE70198079066
:10148000089001208DF827000899086840F4803002
:10149000086008980090FFE700980AB0704780B590
:1014A0006F4692B006900791089209930B930A93A6
:1014B0000A980590FFE7059806990A780E9007F8B4
:1014C000092C0E99086820F4701002F00F0240EA0F
:1014D000824008600E980490FFE704980D900C90ED
:1014E0000C980390FFE7079800F094FB0290FFE749
:1014F00002980399109100F0010207F8012C10994D
:10150000086820F4803040EA02400860109801909A
:10151000FFE7019812B080BD8AB003900491069154
:10152000059105980190FFE7019807900890012028
:101530008DF827000899086840F0807008600898C6
:101540000090FFE700980AB0704780B56F46A4B0DE
:101550000A920B900E910F921992189218980C9073
:10156000FFE70C980B9909680A78229007F8012C7C
:101570002299086820F4404002F0030240EA8230D9
:101580000860FFE70A981790169016980990FFE7F1
:1015900009980B9949680A78209007F8092C209936
:1015A000086820F4605002F0070240EAC220086098
:1015B00020980890FFE708981590149014980790C9
:1015C000FFE707980B9989680A781E9007F8112C95
:1015D0001E99086820F4E06002F0070240EA022049
:1015E00008601E980690FFE70698139012901298D4
:1015F0000590FFE705980B99C9680A781C9007F8D1
:10160000192C1C99086820F0F00002F00F0240EA43
:10161000021008601C980490FFE704981190109045
:1016200010980390FFE70B98006900F0E1FA029030
:10163000FFE70298C00730B9FFE70B98406900F058
:10164000E9FA019011E0022007F8590CFFE703982E
:1016500017F8592C1A9007F8212C1A99086862F388
:10166000010008601A9800900BE00198C00720B9AB
:10167000FFE7002007F8590CE9E7012007F8590CAB
:10168000E5E7009824B080BD81B00090C06801B04B
:1016900070478AB0039004910691059105980190D6
:1016A000FFE701980790089001208DF8270008991E
:1016B000086840F01000086008980090FFE7009864
:1016C0000AB070478AB0039004910691059105987D
:1016D0000190FFE701980790089001208DF82700FE
:1016E0000899086840F01000086008980090FFE72B
:1016F00000980AB070478AB0039004910691059152
:1017000005980190FFE701980790089000208DF858
:1017100027000899086820F01000086008980090D9
:10172000FFE700980AB0704780B56F4684B000901C
:101730000191012007F8010C07F8020C684601A985
:1017400000F09EFB07F8030CFFE717F8031C481C8A
:10175000C0B2022802D3FFE706E0FEDE002007F851
:10176000020C0198029005E0002007F8010C009897
:101770000290FFE717F8020CC00728B9FFE717F837
:10178000010CC00720B900E0F9E7029804B080BD61
:10179000FBE780B56F4684B000900191012007F807
:1017A000010C07F8020C684601A900F069FB07F874
:1017B000030CFFE717F8031C481CC0B2022802D331
:1017C000FFE706E0FEDE002007F8010C009802901B
:1017D00005E0002007F8020C01980290FFE717F8D7
:1017E000020CC00728B9FFE717F8010CC00720B9A1
:1017F00000E0F9E7029804B080BDFBE780B56F46D2
:1018000084B002900391FFF78FFF0190FFE70198EA
:1018100004B080BD80B56F4684B002900391FFF79D
:10182000B8FF0190FFE7019804B080BD82B001903D
:1018300020F0040002B0704782B0019040F0040034
:1018400002B0704781B001B07047B0B502AF99B037
:1018500000210C910E9110911291149116910C9AF5
:101860000D99009201910E9A0F9902920391109A8C
:10187000119904920591129A139906920791149A5C
:10188000159908920991169A17990A920B9169462F
:10189000B1E83C50A0E83C5091E83C5080E83C5016
:1018A00019B0B0BD80B56F46AAB0039006900790FE
:1018B000FFF713F804900C900E900F9000F0F2FBDD
:1018C0000D900A900B900AA808900BA80990089810
:1018D0000999FFF7DEFE01460498096810901191FE
:1018E000129000F0F1FBFFE703981390FEF7FEFF64
:1018F000019018901A901B9000F0D4FB199016904C
:10190000179016A8149017A8159014981599FFF71A
:10191000D9FE0146019809681C901D911E9000F0A7
:10192000D3FB0398FEF7E2FF0290239025902690C8
:1019300000F0B8FB24902190229021A81F9022A8AB
:1019400020901F982099FFF7D6FE0146029809685B
:1019500027902891299000F0B7FBFFE700F076FA76
:10196000FFE700F073FAFFE700F070FAFFE700F01E
:101970006DFAFFE700F06AFAFFE700F067FAFFE7A9
:1019800000F064FAFFE700F061FAFFE700F05EFAAA
:10199000FFE700F05BFAFFE700F058FAFFE700F01E
:1019A00055FAFFE700F052FAFFE700F04FFAFFE7C1
:1019B00000F04CFAFFE700F049FAFFE72AB080BDDB
:1019C00081B00090FFE741F20400C4F2010001B0D1
:1019D000704780B56F468EB00290FFF7F1FF01901F
:1019E000FFE70198079009900A9000F05BFB0890D0
:1019F0000590069005A8039006A804900398049902
:101A000000F00EF80146019809680B900C910D90BA
:101A100000F05AFBFFE700F01AFAFFE70EB080BDB6
:101A200088B0009103900491059000680190FFE751
:101A300000990198032262F31750069107900860FD
:101A4000FFE7009808B0704781B08DF80300C0B27E
:101A500001B0704781B0ADF8020080B201B07047AC
:101A600080B56F468AB002920390049108920120DB
:101A700007F8090C039810B1FFE704E0FEDE002030
:101A80008DF8140012E0029804990991002207F8D9
:101A9000092C06910699FFF75FFB0190FFE701987B
:101AA0008DF8150001208DF81400FFE717F8090CD8
:101AB000C00730B9FFE79DF814009DF815100AB073
:101AC00080BDF8E780B56F468AB00292039004911A
:101AD0000892012007F8090C039810B1FFE704E011
:101AE000FEDE00208DF8140012E00298049909919E
:101AF000002207F8092C06910699FFF76FFC019068
:101B0000FFE701988DF8150001208DF81400FFE71C
:101B100017F8090CC00730B9FFE79DF814009DF8CD
:101B200015100AB080BDF8E780B56F468AB0029202
:101B3000039004910892012007F8090C039810B152
:101B4000FFE704E0FEDE00208DF8140012E00298AA
:101B500004990991002207F8092C06910699FFF7CC
:101B6000E2FB0190FFE701988DF8150001208DF848
:101B70001400FFE717F8090CC00730B9FFE79DF81C
:101B800014009DF815100AB080BDF8E780B56F46C7
:101B90008AB00292039004910892012007F8090C80
:101BA000039810B1FFE704E0FEDE00208DF814007A
:101BB00012E0029804990991002207F8092C069175
:101BC0000699FFF755FB0190FFE701988DF8150086
:101BD00001208DF81400FFE717F8090CC00730B991
:101BE000FFE79DF814009DF815100AB080BDF8E7D6
:101BF00082B001900078C00720B1FFE701208DF886
:101C0000030003E000208DF80300FFE79DF80300C8
:101C100002B0704782B001900068012804D1FFE74C
:101C200001208DF8030003E000208DF80300FFE79A
:101C30009DF8030002B0704783B0134600938DF8FF
:101C400004008DF805108DF80A2001208DF8090098
:101C50009DF80410C80710B1FFE707E0FEDE00980A
:101C600000218DF809108DF8080006E09DF80500A8
:101C70008DF80B008DF80800FFE79DF80900C007FC
:101C800020B9FFE79DF8080003B07047FAE787B076
:101C9000009201900291059201208DF813000198A5
:101CA00010B1FFE706E0FEDE009800218DF813106A
:101CB000039003E0029806900390FFE79DF813005D
:101CC000C00718B9FFE7039807B07047FBE7F0B506
:101CD00003AF4DF8048D8AB001910290002007F8FF
:101CE000290C17F8291C03A800F06AF9FFE70298ED
:101CF000019B04A90A4693E8705182E8705191E86B
:101D00003C5080E83C500AB05DF8048BF0BD80B5D3
:101D10006F4684B00090029003914FF47A70A1FB5B
:101D20000010019128B9FFE70199009800F024F80C
:101D30000BE042F63010C0F6000042F61812C0F672
:101D40000002212100F0E9FAFEDE04B080BD80B57A
:101D50006F4686B00191014601980291049127F8DF
:101D6000020C00F075F80390FFE703990298FFF763
:101D7000CEFFFFE706B080BD80B56F468AB0039105
:101D8000049008900991FFF77FFC0590FFE7039806
:101D900005994DF68362C4F21B32A1FB0221890C26
:101DA000A0FB0110029118B9FFE7029806900BE022
:101DB00042F63010C0F6000042F65412C0F600029F
:101DC000212100F0AAFAFEDE069810B9FFE70AB05A
:101DD00080BD0698B0F1807F04D3FFE76FF07F40AD
:101DE000079002E006980790FFE70498079900F033
:101DF00069F8FFE7049800F092F8FFE7049800F014
:101E0000A3F8FFE707990698421A0192884203D384
:101E1000FFE7019806900BE042F68010C0F6000044
:101E200042F66412C0F60002212100F076FAFEDECE
:101E3000049800F05EF80090FFE70098C0070028C3
:101E4000F6D0FFE7049800F09DF8BDE770477047B3
:101E500080B56F4682B027F8020CFFF7FBFD0090BB
:101E6000FFE7009802B080BD80B56F4682B007F8EA
:101E7000010CFFF7E9FD0090FFE7009802B080BD7C
:101E800085B0009101900390049100680968884230
:101E900007D3FFE7009901980068096888420CD0D1
:101EA00007E0FF208DF80B00FFE79DF80B0005B061
:101EB000704701208DF80B0003E000208DF80B0027
:101EC000FFE7F2E780B56F468AB001910290039177
:101ED0000990FFE701994EF21400CEF20000049041
:101EE000059106900791089000F0EEF8FFE70AB020
:101EF00080BD80B56F4686B001900590FFE74EF239
:101F00001000CEF2000002900390049000F0CAF896
:101F10000090FFE70098C0F3004006B080BD80B598
:101F20006F4688B001900790FFE74EF21800CEF29E
:101F3000000002900021039104900591069000F0AA
:101F4000C3F8FFE708B080BD80B56F468AB0019046
:101F50000990FFE74EF21000CEF2000000900390CF
:101F60000490059000F09EF80290029800F094F81A
:101F70000146009806900791089000F0A5F8FFE749
:101F80000AB080BD80B56F468AB001900990FFE726
:101F90004EF21000CEF200000090039004900590E5
:101FA00000F080F80290029800F070F80146009866
:101FB00006900791089000F087F8FFE70AB080BD0F
:101FC00080B56F4696B0039007F8451C059017F84A
:101FD000451CC80710B1FFE703E0FEDE039814902C
:101FE0001AE003981590FFE74EF21000CEF20000C1
:101FF000029009900A900B9000F054F8089008980D
:10200000FFF714FC014602980E900F91109000F01B
:102010005BF8FFE716B080BD4EF21000CEF2000074
:10202000019007900C900D9000F03CF806900698F7
:10203000FFF702FC0146019811901291139000F0F5
:1020400043F8E7E782B001900090009802B0704733
:1020500080B56F4684B0039044F24021C0F20F0176
:10206000A0FB0110019128B9FFE7019802900298A6
:1020700004B080BD42F6B010C0F6000042F62C223B
:10208000C0F60002212100F048F9FEDE82B0019086
:1020900020F0010002B0704782B0019040F00100D2
:1020A00002B0704783B001900068029002980090DF
:1020B000FFE7009803B0704772B6704762B670478A
:1020C000EFF310807047704782B00090019101607B
:1020D000FFE702B0704786B0029001A90391006843
:1020E0000190019800900490FFE70098059006B0D9
:1020F000704783B0009101460098019002910198C9
:10210000086003B0704780B56F4682B0FFE70420D7
:1021100007F8010C17F8010C00F0B2F8F7E7704768
:1021200080B56F468EB0039104900591FFE7039947
:102130000498884202D3FFE70EB080BD0498019056
:1021400006A8079008900990002006900698029033
:102150000A90FFE702990198FFF7B6FFFFE704989E
:102160000B9001210C9104300D900D980090FFE729
:1021700000980490DBE780B56F468EB0049105901F
:1021800006920791FFE704990598884202D3FFE77A
:102190000EB080BD059802900698FFF79CFF039053
:1021A000FFE703990298FFF7A4FFFFE7059808905F
:1021B0000121099104300A900A980190FFE70198E3
:1021C000059006980B9001210C9104300D900D980C
:1021D0000090FFE700980690D5E780B56F4694B071
:1021E0000293039204910590B868069010911192A1
:1021F0001293139082420AD3FFE703990698421C78
:102200000020914288BF012007F8310C03E0012033
:1022100007F8310CFFE717F8310CC007B8B9FFE732
:1022200006980599029A039BDDF810C04FF0000E46
:10223000CDF838E0C1F800C04B60DDF838C00F9B26
:10224000C1F808C0CB600A61486114B080BD69461E
:102250000020086042F64821C0F6000142F65023F3
:10226000C0F6000308A80122FFF7B7FFFFE742F618
:102270009C21C0F6000108A800F039F8FEDED4D495
:1022800080B56F468AB007F8190C17F8190C029040
:102290000299DFE801F0041415161700FEDE694606
:1022A0000020086042F6E021C0F6000142F6E82373
:1022B000C0F6000304A80122FFF78FFF05E002E04B
:1022C00001E000E0FFE70AB080BD42F63831C0F619
:1022D000000104A800F00BF8FEDE70474FF29B40AF
:1022E00048F6F471C6F22C40C1F6D531704780B57E
:1022F0006F4686B0CDE9030142F64830C0F60000D3
:102300000122029042F64830C0F600008DF81420F9
:10231000019001A8FEF754FAFEDE80B56F4688B042
:10232000944642F64832C0F600020023CDE9060189
:102330006846049201226146019206AA059302931F
:102340000092FFF7D4FFFEDE70460421084202D15E
:10235000EFF3088002E0EFF30980FFE780B56F46F6
:1023600082B00190FFE7042007F8050C17F8050C70
:08237000FFF786FFF7E7D4D464
:10237800007372632F6D61696E2E72737923000882
:102388000B0000000C000000270000007923000863
:102398000B0000000D0000002C00000063616C6C55
:1023A800656420604F7074696F6E3A3A756E777223
:1023B8006170282960206F6E206120604E6F6E6505
:1023C800602076616C756574686572652069732034
:1023D8006E6F2073756368207468696E6720617317
:1023E80020612072656C6178656420636F6D706927
:1023F8006C65722066656E6365000000CF23000877
:10240800320000002F72757374632F363966396392
:102418003333643731633837316663313661633457
:1024280034353231313238316336653761333430DF
:102438003934332F6C6962726172792F636F7265F8
:102448002F7372632F73796E632F61746F6D696375
:102458002E7273000C2400084F000000590D000074
:1024680018000000696E76616C6964206172677398
:102478006C2400080C0000002F72757374632F36EB
:1024880039663963333364373163383731666331DA
:102498003661633434353231313238316336653739
:1024A800613334303934332F6C6962726172792F39
:1024B800636F72652F7372632F666D742F6D6F640F
:1024C8002E727300802400084B0000008C0100006D
:1024D8000D0000002F686F6D652F61726E6F2F2ED3
:1024E800636172676F2F72656769737472792F738E
:1024F80072632F6769746875622E636F6D2D31651D
:1025080063633632393964623965633832332F731D
:10251800746D3332663178782D68616C2D302E36C3
:102528002E312F7372632F7263632E727300000053
:10253800DC24000859000000DE000000160000003E
:102548000000000000000000617474656D70742064
:10255800746F20646976696465206279207A65728F
:102568006F000000DC24000859000000E9000000AA
:102578001300000000000000617474656D70742021
:10258800746F2073756274726163742077697468FC
:10259800206F766572666C6F77000000DC24000897
:1025A80059000000E90000002600000000000000BB
:1025B8000000000000000000617474656D707420F4
:1025C800746F206D756C7469706C792077697468A4
:1025D800206F766572666C6F776173736572746964
:1025E8006F6E206661696C65643A20737973636CF9
:1025F8006B203C3D2037325F3030305F3030300068
:10260800DC24000859000000EC000000090000006C
:10261800DC24000859000000FF0000001C00000036
:10262800DC24000859000000FF000000160000002C
:102638000000000000000000617474656D70742073
:10264800746F207368696674206C65667420776996
:102658007468206F766572666C6F7700DC240008FA
:1026680059000000FF0000000D000000DC240008F5
:1026780059000000010100001C000000DC240008D3
:10268800590000000101000016000000DC240008C9
:1026980059000000010100000D000000617373651E
:1026A8007274696F6E206661696C65643A2068634C
:1026B8006C6B203C3D2037325F3030305F3030303B
:1026C800DC24000859000000040100000900000093
:1026D800DC24000859000000120100001A00000064
:1026E800DC24000859000000120100001500000059
:1026F800DC24000859000000130100001500000048
:10270800617373657274696F6E206661696C656464
:102718003A2070636C6B31203C3D2033365F30309B
:10272800305F303030000000DC2400085900000021
:102738001501000009000000DC2400085900000011
:10274800230100001A000000DC24000859000000E2
:102758002301000015000000DC24000859000000D7
:102768002401000015000000617373657274696FBD
:102778006E206661696C65643A2070636C6B322008
:102788003C3D2037325F3030305F30303000000061
:10279800DC240008590000002601000009000000A0
:1027A800DC24000859000000490100001400000062
:1027B8000000000000000000617474656D707420F2
:1027C800746F206164642077697468206F7665721D
:1027D800666C6F77DC240008590000004A0100008D
:1027E80016000000617373657274696F6E2066610C
:1027F800696C65643A20616463636C6B203C3D20BE
:1028080031345F3030305F3030300000DC24000875
:10281800590000004C01000009000000DC240008F9
:1028280059000000F00000001F000000696E746588
:10283800726E616C206572726F723A20656E746593
:1028480072656420756E726561636861626C65208B
:10285800636F6465DC24000859000000F100000083
:1028680016000000DC2400085900000008010000E0
:1028780020000000DC2400085900000009010000C5
:1028880016000000DC2400085900000019010000AF
:1028980020000000DC240008590000001A01000094
:1028A80016000000DC240008590000004101000067
:1028B800210000002F686F6D652F61726E6F2F2EDB
:1028C800636172676F2F72656769737472792F73AA
:1028D80072632F6769746875622E636F6D2D316539
:1028E80063633632393964623965633832332F733A
:1028F800746D3332663178782D68616C2D302E36E0
:102908002E312F7372632F64656C61792E72730098
:10291800BC2800085B000000200000001700000031
:102928000000000000000000617474656D70742080
:10293800746F206D756C7469706C79207769746830
:10294800206F766572666C6F77000000BC280008FF
:102958005B000000350000001D000000BC280008D6
:102968005B000000430000000D00000000000000B4
:102978000000000000000000617474656D70742030
:10298800746F2073756274726163742077697468F8
:10299800206F766572666C6F77000000000000009B
:1029A8000000000000000000617474656D70742000
:1029B800746F206D756C7469706C792077697468B0
:1029C800206F766572666C6F772F686F6D652F6103
:1029D800726E6F2F2E636172676F2F7265676973EE
:1029E8007472792F7372632F6769746875622E63C6
:1029F8006F6D2D31656363363239396462396563C9
:102A08003832332F73746D3332663178782D6861BC
:102A18006C2D302E362E312F7372632F74696D65CD
:102A28002E727300D12900085A000000A30000008C
:102A38000E000000696E76616C69642061726773CC
:102A48003C2A00080C0000002F72757374632F363F
:102A58003966396333336437316338373166633104
:102A68003661633434353231313238316336653763
:102A7800613334303934332F6C6962726172792F63
:102A8800636F72652F7372632F666D742F6D6F6439
:102A98002E727300502A00084B0000008C010000C1
:102AA8000D0000007468657265206973206E6F20E0
:102AB80073756368207468696E672061732061208C
:102AC80072656C6178656420636F6D70696C65729E
:102AD8002066656E63650000AC2A000832000000BD
:102AE8002F72757374632F363966396333336437DD
:102AF80031633837316663313661633434353231A6
:102B08003132383163366537613334303934332FF5
:102B18006C6962726172792F636F72652F73726369
:102B28002F73796E632F61746F6D69632E727300F2
:102B3800E82A00084F000000590D000018000000A6
:102B4800DB2200080000000001000000DD22000870
:0400000508000131BD
:00000001FF
